{
  "contractName": "Bond",
  "abi": [
    {
      "inputs": [],
      "stateMutability": "nonpayable",
      "type": "constructor"
    },
    {
      "anonymous": false,
      "inputs": [
        {
          "indexed": true,
          "internalType": "address",
          "name": "account",
          "type": "address"
        },
        {
          "indexed": true,
          "internalType": "address",
          "name": "operator",
          "type": "address"
        },
        {
          "indexed": false,
          "internalType": "bool",
          "name": "approved",
          "type": "bool"
        }
      ],
      "name": "ApprovalForAll",
      "type": "event"
    },
    {
      "anonymous": false,
      "inputs": [
        {
          "indexed": false,
          "internalType": "uint256",
          "name": "_tokenID",
          "type": "uint256"
        },
        {
          "indexed": false,
          "internalType": "address",
          "name": "_to",
          "type": "address"
        },
        {
          "indexed": false,
          "internalType": "uint256",
          "name": "_amouont",
          "type": "uint256"
        },
        {
          "indexed": true,
          "internalType": "uint256",
          "name": "_timestamp",
          "type": "uint256"
        }
      ],
      "name": "CouponPaid",
      "type": "event"
    },
    {
      "anonymous": false,
      "inputs": [
        {
          "indexed": false,
          "internalType": "uint256",
          "name": "_tokenID",
          "type": "uint256"
        },
        {
          "indexed": true,
          "internalType": "address",
          "name": "_to",
          "type": "address"
        },
        {
          "indexed": true,
          "internalType": "address",
          "name": "_from",
          "type": "address"
        },
        {
          "indexed": false,
          "internalType": "uint256",
          "name": "_amount",
          "type": "uint256"
        },
        {
          "indexed": true,
          "internalType": "uint256",
          "name": "_timestamp",
          "type": "uint256"
        }
      ],
      "name": "ForcedTokenTransfered",
      "type": "event"
    },
    {
      "anonymous": false,
      "inputs": [
        {
          "indexed": false,
          "internalType": "uint256",
          "name": "_tokenID",
          "type": "uint256"
        },
        {
          "indexed": true,
          "internalType": "address",
          "name": "_from",
          "type": "address"
        },
        {
          "indexed": false,
          "internalType": "uint256",
          "name": "_amount",
          "type": "uint256"
        },
        {
          "indexed": true,
          "internalType": "uint256",
          "name": "_timestamp",
          "type": "uint256"
        }
      ],
      "name": "RedemptionBuyBack",
      "type": "event"
    },
    {
      "anonymous": false,
      "inputs": [
        {
          "indexed": false,
          "internalType": "uint256",
          "name": "_tokenID",
          "type": "uint256"
        },
        {
          "indexed": true,
          "internalType": "address",
          "name": "_to",
          "type": "address"
        },
        {
          "indexed": false,
          "internalType": "uint256",
          "name": "_amouont",
          "type": "uint256"
        },
        {
          "indexed": true,
          "internalType": "uint256",
          "name": "_timestamp",
          "type": "uint256"
        }
      ],
      "name": "RedemptionPaid",
      "type": "event"
    },
    {
      "anonymous": false,
      "inputs": [
        {
          "indexed": true,
          "internalType": "uint256",
          "name": "requestID",
          "type": "uint256"
        },
        {
          "indexed": false,
          "internalType": "uint256",
          "name": "_tokenID",
          "type": "uint256"
        },
        {
          "indexed": false,
          "internalType": "address",
          "name": "_investor",
          "type": "address"
        },
        {
          "indexed": false,
          "internalType": "uint256",
          "name": "_amount",
          "type": "uint256"
        }
      ],
      "name": "RequestForcedTransfer",
      "type": "event"
    },
    {
      "anonymous": false,
      "inputs": [
        {
          "indexed": false,
          "internalType": "uint256",
          "name": "_tokenID",
          "type": "uint256"
        },
        {
          "indexed": true,
          "internalType": "address",
          "name": "_to",
          "type": "address"
        },
        {
          "indexed": false,
          "internalType": "uint256",
          "name": "_amount",
          "type": "uint256"
        },
        {
          "indexed": true,
          "internalType": "uint256",
          "name": "_timestamp",
          "type": "uint256"
        }
      ],
      "name": "TokenBought",
      "type": "event"
    },
    {
      "anonymous": false,
      "inputs": [
        {
          "indexed": false,
          "internalType": "uint256",
          "name": "_tokenID",
          "type": "uint256"
        },
        {
          "indexed": true,
          "internalType": "uint256",
          "name": "_timestamp",
          "type": "uint256"
        }
      ],
      "name": "TokenMinted",
      "type": "event"
    },
    {
      "anonymous": false,
      "inputs": [
        {
          "indexed": false,
          "internalType": "uint256",
          "name": "_tokenID",
          "type": "uint256"
        },
        {
          "indexed": true,
          "internalType": "address",
          "name": "_to",
          "type": "address"
        },
        {
          "indexed": true,
          "internalType": "address",
          "name": "_from",
          "type": "address"
        },
        {
          "indexed": false,
          "internalType": "uint256",
          "name": "_amount",
          "type": "uint256"
        },
        {
          "indexed": true,
          "internalType": "uint256",
          "name": "_timestamp",
          "type": "uint256"
        }
      ],
      "name": "TokenTransfered",
      "type": "event"
    },
    {
      "anonymous": false,
      "inputs": [
        {
          "indexed": true,
          "internalType": "address",
          "name": "operator",
          "type": "address"
        },
        {
          "indexed": true,
          "internalType": "address",
          "name": "from",
          "type": "address"
        },
        {
          "indexed": true,
          "internalType": "address",
          "name": "to",
          "type": "address"
        },
        {
          "indexed": false,
          "internalType": "uint256[]",
          "name": "ids",
          "type": "uint256[]"
        },
        {
          "indexed": false,
          "internalType": "uint256[]",
          "name": "values",
          "type": "uint256[]"
        }
      ],
      "name": "TransferBatch",
      "type": "event"
    },
    {
      "anonymous": false,
      "inputs": [
        {
          "indexed": true,
          "internalType": "address",
          "name": "operator",
          "type": "address"
        },
        {
          "indexed": true,
          "internalType": "address",
          "name": "from",
          "type": "address"
        },
        {
          "indexed": true,
          "internalType": "address",
          "name": "to",
          "type": "address"
        },
        {
          "indexed": false,
          "internalType": "uint256",
          "name": "id",
          "type": "uint256"
        },
        {
          "indexed": false,
          "internalType": "uint256",
          "name": "value",
          "type": "uint256"
        }
      ],
      "name": "TransferSingle",
      "type": "event"
    },
    {
      "anonymous": false,
      "inputs": [
        {
          "indexed": false,
          "internalType": "string",
          "name": "value",
          "type": "string"
        },
        {
          "indexed": true,
          "internalType": "uint256",
          "name": "id",
          "type": "uint256"
        }
      ],
      "name": "URI",
      "type": "event"
    },
    {
      "inputs": [
        {
          "internalType": "address",
          "name": "account",
          "type": "address"
        },
        {
          "internalType": "uint256",
          "name": "id",
          "type": "uint256"
        }
      ],
      "name": "balanceOf",
      "outputs": [
        {
          "internalType": "uint256",
          "name": "",
          "type": "uint256"
        }
      ],
      "stateMutability": "view",
      "type": "function",
      "constant": true
    },
    {
      "inputs": [
        {
          "internalType": "address[]",
          "name": "accounts",
          "type": "address[]"
        },
        {
          "internalType": "uint256[]",
          "name": "ids",
          "type": "uint256[]"
        }
      ],
      "name": "balanceOfBatch",
      "outputs": [
        {
          "internalType": "uint256[]",
          "name": "",
          "type": "uint256[]"
        }
      ],
      "stateMutability": "view",
      "type": "function",
      "constant": true
    },
    {
      "inputs": [
        {
          "internalType": "address",
          "name": "account",
          "type": "address"
        },
        {
          "internalType": "address",
          "name": "operator",
          "type": "address"
        }
      ],
      "name": "isApprovedForAll",
      "outputs": [
        {
          "internalType": "bool",
          "name": "",
          "type": "bool"
        }
      ],
      "stateMutability": "view",
      "type": "function",
      "constant": true
    },
    {
      "inputs": [],
      "name": "requestID",
      "outputs": [
        {
          "internalType": "uint256",
          "name": "",
          "type": "uint256"
        }
      ],
      "stateMutability": "view",
      "type": "function",
      "constant": true
    },
    {
      "inputs": [
        {
          "internalType": "address",
          "name": "operator",
          "type": "address"
        },
        {
          "internalType": "bool",
          "name": "approved",
          "type": "bool"
        }
      ],
      "name": "setApprovalForAll",
      "outputs": [],
      "stateMutability": "nonpayable",
      "type": "function"
    },
    {
      "inputs": [
        {
          "internalType": "bytes4",
          "name": "interfaceId",
          "type": "bytes4"
        }
      ],
      "name": "supportsInterface",
      "outputs": [
        {
          "internalType": "bool",
          "name": "",
          "type": "bool"
        }
      ],
      "stateMutability": "view",
      "type": "function",
      "constant": true
    },
    {
      "inputs": [
        {
          "internalType": "uint256",
          "name": "",
          "type": "uint256"
        }
      ],
      "name": "uri",
      "outputs": [
        {
          "internalType": "string",
          "name": "",
          "type": "string"
        }
      ],
      "stateMutability": "view",
      "type": "function",
      "constant": true
    },
    {
      "inputs": [
        {
          "internalType": "address",
          "name": "_addr",
          "type": "address"
        }
      ],
      "name": "setKycContract",
      "outputs": [],
      "stateMutability": "nonpayable",
      "type": "function"
    },
    {
      "inputs": [
        {
          "internalType": "address",
          "name": "_addr",
          "type": "address"
        }
      ],
      "name": "setCSRContract",
      "outputs": [],
      "stateMutability": "nonpayable",
      "type": "function"
    },
    {
      "inputs": [
        {
          "internalType": "address",
          "name": "_addr",
          "type": "address"
        }
      ],
      "name": "setDocumentsContract",
      "outputs": [],
      "stateMutability": "nonpayable",
      "type": "function"
    },
    {
      "inputs": [
        {
          "internalType": "address",
          "name": "_addr",
          "type": "address"
        }
      ],
      "name": "setStableCoinContract",
      "outputs": [],
      "stateMutability": "nonpayable",
      "type": "function"
    },
    {
      "inputs": [
        {
          "internalType": "address",
          "name": "_regulator",
          "type": "address"
        }
      ],
      "name": "setRegulator",
      "outputs": [],
      "stateMutability": "nonpayable",
      "type": "function"
    },
    {
      "inputs": [
        {
          "internalType": "uint256",
          "name": "_tokenID",
          "type": "uint256"
        }
      ],
      "name": "tokenState",
      "outputs": [
        {
          "internalType": "uint256",
          "name": "state",
          "type": "uint256"
        }
      ],
      "stateMutability": "view",
      "type": "function",
      "constant": true
    },
    {
      "inputs": [
        {
          "internalType": "uint256",
          "name": "_tokenID",
          "type": "uint256"
        }
      ],
      "name": "mintToken",
      "outputs": [
        {
          "internalType": "bool",
          "name": "",
          "type": "bool"
        }
      ],
      "stateMutability": "nonpayable",
      "type": "function"
    },
    {
      "inputs": [
        {
          "internalType": "uint256",
          "name": "_tokenID",
          "type": "uint256"
        }
      ],
      "name": "returnTokenData",
      "outputs": [
        {
          "internalType": "uint256",
          "name": "volume",
          "type": "uint256"
        },
        {
          "internalType": "uint256",
          "name": "parValueETHER",
          "type": "uint256"
        },
        {
          "internalType": "uint256",
          "name": "parValueEUR",
          "type": "uint256"
        },
        {
          "internalType": "uint256",
          "name": "coupon",
          "type": "uint256"
        },
        {
          "internalType": "uint256",
          "name": "issuedAmount",
          "type": "uint256"
        },
        {
          "internalType": "uint256",
          "name": "redemptionAmount",
          "type": "uint256"
        },
        {
          "internalType": "uint256",
          "name": "burnedAmount",
          "type": "uint256"
        }
      ],
      "stateMutability": "view",
      "type": "function",
      "constant": true
    },
    {
      "inputs": [
        {
          "internalType": "uint256",
          "name": "_tokenID",
          "type": "uint256"
        }
      ],
      "name": "returnTokenDates",
      "outputs": [
        {
          "internalType": "uint256",
          "name": "settlementDate",
          "type": "uint256"
        },
        {
          "internalType": "uint256",
          "name": "maturityDate",
          "type": "uint256"
        }
      ],
      "stateMutability": "view",
      "type": "function",
      "constant": true
    },
    {
      "inputs": [
        {
          "internalType": "uint256",
          "name": "_tokenID",
          "type": "uint256"
        }
      ],
      "name": "returnInvestorLength",
      "outputs": [
        {
          "internalType": "uint256",
          "name": "investorLength",
          "type": "uint256"
        }
      ],
      "stateMutability": "view",
      "type": "function",
      "constant": true
    },
    {
      "inputs": [
        {
          "internalType": "uint256",
          "name": "_tokenID",
          "type": "uint256"
        },
        {
          "internalType": "uint256",
          "name": "_index",
          "type": "uint256"
        }
      ],
      "name": "returnInvestorAddress",
      "outputs": [
        {
          "internalType": "address",
          "name": "investorAdress",
          "type": "address"
        },
        {
          "internalType": "bool",
          "name": "isInvestor",
          "type": "bool"
        }
      ],
      "stateMutability": "view",
      "type": "function",
      "constant": true
    },
    {
      "inputs": [
        {
          "internalType": "uint256",
          "name": "_tokenID",
          "type": "uint256"
        },
        {
          "internalType": "address payable",
          "name": "_to",
          "type": "address"
        },
        {
          "internalType": "uint256",
          "name": "_valueInWEI",
          "type": "uint256"
        }
      ],
      "name": "payCoupon",
      "outputs": [],
      "stateMutability": "payable",
      "type": "function",
      "payable": true
    },
    {
      "inputs": [
        {
          "internalType": "address",
          "name": "_from",
          "type": "address"
        },
        {
          "internalType": "uint256",
          "name": "_tokenID",
          "type": "uint256"
        }
      ],
      "name": "redemptionBuyBack",
      "outputs": [],
      "stateMutability": "nonpayable",
      "type": "function"
    },
    {
      "inputs": [
        {
          "internalType": "uint256",
          "name": "_tokenID",
          "type": "uint256"
        },
        {
          "internalType": "address",
          "name": "_to",
          "type": "address"
        }
      ],
      "name": "returnRedemptionPTP",
      "outputs": [
        {
          "internalType": "uint256",
          "name": "",
          "type": "uint256"
        }
      ],
      "stateMutability": "view",
      "type": "function",
      "constant": true
    },
    {
      "inputs": [
        {
          "internalType": "uint256",
          "name": "_tokenID",
          "type": "uint256"
        },
        {
          "internalType": "address payable",
          "name": "_to",
          "type": "address"
        }
      ],
      "name": "payRedemtion",
      "outputs": [],
      "stateMutability": "payable",
      "type": "function",
      "payable": true
    },
    {
      "inputs": [
        {
          "internalType": "uint256",
          "name": "_tokenID",
          "type": "uint256"
        }
      ],
      "name": "burn",
      "outputs": [],
      "stateMutability": "nonpayable",
      "type": "function"
    },
    {
      "inputs": [
        {
          "internalType": "uint256",
          "name": "_tokenID",
          "type": "uint256"
        },
        {
          "internalType": "uint256",
          "name": "_amount",
          "type": "uint256"
        }
      ],
      "name": "returnPriceToPayETHER",
      "outputs": [
        {
          "internalType": "uint256",
          "name": "",
          "type": "uint256"
        }
      ],
      "stateMutability": "view",
      "type": "function",
      "constant": true
    },
    {
      "inputs": [
        {
          "internalType": "uint256",
          "name": "_tokenID",
          "type": "uint256"
        },
        {
          "internalType": "uint256",
          "name": "_amount",
          "type": "uint256"
        }
      ],
      "name": "returnPriceToPayEUR",
      "outputs": [
        {
          "internalType": "uint256",
          "name": "",
          "type": "uint256"
        }
      ],
      "stateMutability": "view",
      "type": "function",
      "constant": true
    },
    {
      "inputs": [
        {
          "internalType": "uint256",
          "name": "_tokenID",
          "type": "uint256"
        },
        {
          "internalType": "uint256",
          "name": "_amount",
          "type": "uint256"
        }
      ],
      "name": "buyTokensETHER",
      "outputs": [
        {
          "internalType": "bool",
          "name": "",
          "type": "bool"
        }
      ],
      "stateMutability": "payable",
      "type": "function",
      "payable": true
    },
    {
      "inputs": [
        {
          "internalType": "uint256",
          "name": "_tokenID",
          "type": "uint256"
        },
        {
          "internalType": "uint256",
          "name": "_amount",
          "type": "uint256"
        }
      ],
      "name": "buyTokensEUR",
      "outputs": [
        {
          "internalType": "bool",
          "name": "",
          "type": "bool"
        }
      ],
      "stateMutability": "payable",
      "type": "function",
      "payable": true
    },
    {
      "inputs": [
        {
          "internalType": "address",
          "name": "from",
          "type": "address"
        },
        {
          "internalType": "address",
          "name": "to",
          "type": "address"
        },
        {
          "internalType": "uint256",
          "name": "id",
          "type": "uint256"
        },
        {
          "internalType": "uint256",
          "name": "amount",
          "type": "uint256"
        },
        {
          "internalType": "bytes",
          "name": "data",
          "type": "bytes"
        }
      ],
      "name": "safeTransferFrom",
      "outputs": [],
      "stateMutability": "nonpayable",
      "type": "function"
    },
    {
      "inputs": [
        {
          "internalType": "uint256",
          "name": "_tokenID",
          "type": "uint256"
        },
        {
          "internalType": "address",
          "name": "_investor",
          "type": "address"
        },
        {
          "internalType": "uint256",
          "name": "_amount",
          "type": "uint256"
        }
      ],
      "name": "requestForcedTransfer",
      "outputs": [],
      "stateMutability": "nonpayable",
      "type": "function"
    },
    {
      "inputs": [
        {
          "internalType": "uint256",
          "name": "_id",
          "type": "uint256"
        }
      ],
      "name": "forcedTransfer",
      "outputs": [],
      "stateMutability": "nonpayable",
      "type": "function"
    }
  ],
  "bytecode": "0x60806040523480156200001157600080fd5b5060405180606001604052806039815260200162005bbc603991396200003d816200008560201b60201c565b5033600860006101000a81548173ffffffffffffffffffffffffffffffffffffffff021916908373ffffffffffffffffffffffffffffffffffffffff160217905550620001b6565b80600290805190602001906200009d929190620000a1565b5050565b828054620000af9062000151565b90600052602060002090601f016020900481019282620000d357600085556200011f565b82601f10620000ee57805160ff19168380011785556200011f565b828001600101855582156200011f579182015b828111156200011e57825182559160200191906001019062000101565b5b5090506200012e919062000132565b5090565b5b808211156200014d57600081600090555060010162000133565b5090565b600060028204905060018216806200016a57607f821691505b6020821081141562000181576200018062000187565b5b50919050565b7f4e487b7100000000000000000000000000000000000000000000000000000000600052602260045260246000fd5b6159f680620001c66000396000f3fe6080604052600436106101ca5760003560e01c806382d2d5be116100f7578063c00de4c011610095578063e281a11d11610064578063e281a11d146106e6578063e985e9c514610724578063f242432a14610761578063f67bddb71461078a576101ca565b8063c00de4c01461061a578063c634d03214610657578063cde0a4f814610694578063dfe71169146106bd576101ca565b8063a22cb465116100d1578063a22cb4651461055b578063a615a5a314610584578063b173483d146105b4578063bbd66532146105dd576101ca565b806382d2d5be146104ca5780638f779201146104f35780639745cc3d1461051e576101ca565b80630e89341c1161016f5780634e1273f41161013e5780634e1273f4146103e357806362d3b8ac146104205780636301b4801461045e5780637a40970a14610487576101ca565b80630e89341c146103175780630fc2136d1461035457806333c8e9171461037d57806342966c68146103ba576101ca565b806301ffc9a7116101ab57806301ffc9a7146102585780630287764f146102955780630b8f55be146102d25780630d7a5470146102ee576101ca565b80626f780c146101cf578062cb1d9a146101eb578062fdd58e1461021b575b600080fd5b6101e960048036038101906101e4919061457d565b6107b3565b005b61020560048036038101906102009190614657565b610a62565b604051610212919061503e565b60405180910390f35b34801561022757600080fd5b50610242600480360381019061023d91906143cc565b610f47565b60405161024f919061531b565b60405180910390f35b34801561026457600080fd5b5061027f600480360381019061027a919061449d565b611010565b60405161028c919061503e565b60405180910390f35b3480156102a157600080fd5b506102bc60048036038101906102b79190614657565b6110f2565b6040516102c9919061531b565b60405180910390f35b6102ec60048036038101906102e791906145b9565b61111e565b005b3480156102fa57600080fd5b50610315600480360381019061031091906143cc565b611278565b005b34801561032357600080fd5b5061033e600480360381019061033991906144ef565b6115ae565b60405161034b9190615059565b60405180910390f35b34801561036057600080fd5b5061037b6004803603810190610376919061429c565b611642565b005b34801561038957600080fd5b506103a4600480360381019061039f9190614657565b611716565b6040516103b1919061531b565b60405180910390f35b3480156103c657600080fd5b506103e160048036038101906103dc91906144ef565b611742565b005b3480156103ef57600080fd5b5061040a60048036038101906104059190614408565b61181c565b604051610417919061501c565b60405180910390f35b34801561042c57600080fd5b50610447600480360381019061044291906144ef565b6119cd565b6040516104559291906153cd565b60405180910390f35b34801561046a57600080fd5b506104856004803603810190610480919061429c565b611a07565b005b34801561049357600080fd5b506104ae60048036038101906104a991906144ef565b611adb565b6040516104c197969594939291906153f6565b60405180910390f35b3480156104d657600080fd5b506104f160048036038101906104ec91906144ef565b611ba0565b005b3480156104ff57600080fd5b50610508611e70565b604051610515919061531b565b60405180910390f35b34801561052a57600080fd5b50610545600480360381019061054091906144ef565b611e76565b604051610552919061531b565b60405180910390f35b34801561056757600080fd5b50610582600480360381019061057d9190614390565b611f14565b005b61059e60048036038101906105999190614657565b612095565b6040516105ab919061503e565b60405180910390f35b3480156105c057600080fd5b506105db60048036038101906105d6919061429c565b612558565b005b3480156105e957600080fd5b5061060460048036038101906105ff9190614541565b61262c565b604051610611919061531b565b60405180910390f35b34801561062657600080fd5b50610641600480360381019061063c91906144ef565b612733565b60405161064e919061531b565b60405180910390f35b34801561066357600080fd5b5061067e600480360381019061067991906144ef565b6127e6565b60405161068b919061503e565b60405180910390f35b3480156106a057600080fd5b506106bb60048036038101906106b6919061429c565b612bff565b005b3480156106c957600080fd5b506106e460048036038101906106df919061429c565b612cd3565b005b3480156106f257600080fd5b5061070d60048036038101906107089190614657565b612da7565b60405161071b929190614ff3565b60405180910390f35b34801561073057600080fd5b5061074b600480360381019061074691906142c5565b612f97565b604051610758919061503e565b60405180910390f35b34801561076d57600080fd5b5061078860048036038101906107839190614301565b61302b565b005b34801561079657600080fd5b506107b160048036038101906107ac9190614608565b6134e1565b005b600860009054906101000a900473ffffffffffffffffffffffffffffffffffffffff1673ffffffffffffffffffffffffffffffffffffffff163373ffffffffffffffffffffffffffffffffffffffff1614610843576040517f08c379a000000000000000000000000000000000000000000000000000000000815260040161083a9061515b565b60405180910390fd5b6009600083815260200190815260200160002060080154421161089b576040517f08c379a00000000000000000000000000000000000000000000000000000000081526004016108929061521b565b60405180910390fd5b670de0b6b3a76400006108fe83600d600086815260200190815260200160002060008573ffffffffffffffffffffffffffffffffffffffff1673ffffffffffffffffffffffffffffffffffffffff168152602001908152602001600020546110f2565b61090891906155e5565b3414610949576040517f08c379a00000000000000000000000000000000000000000000000000000000081526004016109409061527b565b60405180910390fd5b8073ffffffffffffffffffffffffffffffffffffffff166108fc349081150290604051600060405180830381858888f1935050505015801561098f573d6000803e3d6000fd5b50600d600083815260200190815260200160002060008273ffffffffffffffffffffffffffffffffffffffff1673ffffffffffffffffffffffffffffffffffffffff16815260200190815260200160002054600960008481526020019081526020016000206005016000828254610a06919061558f565b92505081905550428173ffffffffffffffffffffffffffffffffffffffff167fa8c9ab8c3ccd23d55a51800f22edc3d9d50985b633f2890c148c76feaeaa35ba8434604051610a569291906153cd565b60405180910390a35050565b600080610a6e84611e76565b14610aae576040517f08c379a0000000000000000000000000000000000000000000000000000000008152600401610aa59061517b565b60405180910390fd5b600360009054906101000a900473ffffffffffffffffffffffffffffffffffffffff1673ffffffffffffffffffffffffffffffffffffffff1663df235fe4336040518263ffffffff1660e01b8152600401610b099190614f47565b60206040518083038186803b158015610b2157600080fd5b505afa158015610b35573d6000803e3d6000fd5b505050506040513d601f19601f82011682018060405250810190610b599190614474565b610b98576040517f08c379a0000000000000000000000000000000000000000000000000000000008152600401610b8f906150fb565b60405180910390fd5b60003390506000610ba98585611716565b9050600660009054906101000a900473ffffffffffffffffffffffffffffffffffffffff1673ffffffffffffffffffffffffffffffffffffffff166323b872dd83600860009054906101000a900473ffffffffffffffffffffffffffffffffffffffff16846040518463ffffffff1660e01b8152600401610c2c93929190614f62565b602060405180830381600087803b158015610c4657600080fd5b505af1158015610c5a573d6000803e3d6000fd5b505050506040513d601f19601f82011682018060405250810190610c7e9190614474565b50610ce3600860009054906101000a900473ffffffffffffffffffffffffffffffffffffffff163387876040518060400160405280600281526020017f5b5d000000000000000000000000000000000000000000000000000000000000815250613669565b600a600086815260200190815260200160002060010160003373ffffffffffffffffffffffffffffffffffffffff1673ffffffffffffffffffffffffffffffffffffffff16815260200190815260200160002060009054906101000a900460ff16610e2c57600a6000868152602001908152602001600020600001339080600181540180825580915050600190039060005260206000200160009091909190916101000a81548173ffffffffffffffffffffffffffffffffffffffff021916908373ffffffffffffffffffffffffffffffffffffffff1602179055506001600a600087815260200190815260200160002060010160003373ffffffffffffffffffffffffffffffffffffffff1673ffffffffffffffffffffffffffffffffffffffff16815260200190815260200160002060006101000a81548160ff0219169083151502179055505b83600960008781526020019081526020016000206004016000828254610e52919061558f565b92505081905550600460009054906101000a900473ffffffffffffffffffffffffffffffffffffffff1673ffffffffffffffffffffffffffffffffffffffff166328ceefeb8633876040518463ffffffff1660e01b8152600401610eb893929190615396565b600060405180830381600087803b158015610ed257600080fd5b505af1158015610ee6573d6000803e3d6000fd5b50505050423373ffffffffffffffffffffffffffffffffffffffff167f3c027c045e3796f01c651fff484d89bbb7f28cbbcc98a20de6d5cb38543a753f8787604051610f339291906153cd565b60405180910390a360019250505092915050565b60008073ffffffffffffffffffffffffffffffffffffffff168373ffffffffffffffffffffffffffffffffffffffff161415610fb8576040517f08c379a0000000000000000000000000000000000000000000000000000000008152600401610faf906150db565b60405180910390fd5b60008083815260200190815260200160002060008473ffffffffffffffffffffffffffffffffffffffff1673ffffffffffffffffffffffffffffffffffffffff16815260200190815260200160002054905092915050565b60007ff704b8f0000000000000000000000000000000000000000000000000000000007bffffffffffffffffffffffffffffffffffffffffffffffffffffffff1916827bffffffffffffffffffffffffffffffffffffffffffffffffffffffff191614806110db57507f0e89341c000000000000000000000000000000000000000000000000000000007bffffffffffffffffffffffffffffffffffffffffffffffffffffffff1916827bffffffffffffffffffffffffffffffffffffffffffffffffffffffff1916145b806110eb57506110ea826138eb565b5b9050919050565b600081600960008581526020019081526020016000206001015461111691906155e5565b905092915050565b600860009054906101000a900473ffffffffffffffffffffffffffffffffffffffff1673ffffffffffffffffffffffffffffffffffffffff163373ffffffffffffffffffffffffffffffffffffffff16146111ae576040517f08c379a00000000000000000000000000000000000000000000000000000000081526004016111a59061515b565b60405180910390fd5b8034146111f0576040517f08c379a00000000000000000000000000000000000000000000000000000000081526004016111e79061527b565b60405180910390fd5b8173ffffffffffffffffffffffffffffffffffffffff166108fc829081150290604051600060405180830381858888f19350505050158015611236573d6000803e3d6000fd5b50427fde3ea3846c481baba44eb2aff38ef316ea62c6faec13dbe0e4fbad6f265d1eb784848460405161126b9392919061535f565b60405180910390a2505050565b600960008281526020019081526020016000206008015442116112d0576040517f08c379a00000000000000000000000000000000000000000000000000000000081526004016112c7906150bb565b60405180910390fd5b6112d8613955565b73ffffffffffffffffffffffffffffffffffffffff168273ffffffffffffffffffffffffffffffffffffffff16148061131e575061131d82611318613955565b612f97565b5b61135d576040517f08c379a00000000000000000000000000000000000000000000000000000000081526004016113549061513b565b60405180910390fd5b6000600460009054906101000a900473ffffffffffffffffffffffffffffffffffffffff1673ffffffffffffffffffffffffffffffffffffffff16633656eec283856040518363ffffffff1660e01b81526004016113bc929190615336565b60206040518083038186803b1580156113d457600080fd5b505afa1580156113e8573d6000803e3d6000fd5b505050506040513d601f19601f8201168201806040525081019061140c9190614518565b905061147283600860009054906101000a900473ffffffffffffffffffffffffffffffffffffffff1684846040518060400160405280600281526020017f5b5d000000000000000000000000000000000000000000000000000000000000815250613669565b600460009054906101000a900473ffffffffffffffffffffffffffffffffffffffff1673ffffffffffffffffffffffffffffffffffffffff1663d9513d8d8333846040518463ffffffff1660e01b81526004016114d193929190615396565b600060405180830381600087803b1580156114eb57600080fd5b505af11580156114ff573d6000803e3d6000fd5b5050505080600d600084815260200190815260200160002060008573ffffffffffffffffffffffffffffffffffffffff1673ffffffffffffffffffffffffffffffffffffffff16815260200190815260200160002081905550428373ffffffffffffffffffffffffffffffffffffffff167f7a4c75b0753489b09aa3fd31b7d8a8aafc36ca1a23ea4e6f03232dcf3c275f4084846040516115a19291906153cd565b60405180910390a3505050565b6060600280546115bd90615771565b80601f01602080910402602001604051908101604052809291908181526020018280546115e990615771565b80156116365780601f1061160b57610100808354040283529160200191611636565b820191906000526020600020905b81548152906001019060200180831161161957829003601f168201915b50505050509050919050565b600860009054906101000a900473ffffffffffffffffffffffffffffffffffffffff1673ffffffffffffffffffffffffffffffffffffffff163373ffffffffffffffffffffffffffffffffffffffff16146116d2576040517f08c379a00000000000000000000000000000000000000000000000000000000081526004016116c99061515b565b60405180910390fd5b80600660006101000a81548173ffffffffffffffffffffffffffffffffffffffff021916908373ffffffffffffffffffffffffffffffffffffffff16021790555050565b600081600960008581526020019081526020016000206002015461173a91906155e5565b905092915050565b600860009054906101000a900473ffffffffffffffffffffffffffffffffffffffff1673ffffffffffffffffffffffffffffffffffffffff163373ffffffffffffffffffffffffffffffffffffffff16146117d2576040517f08c379a00000000000000000000000000000000000000000000000000000000081526004016117c99061515b565b60405180910390fd5b60006117de3383610f47565b90506117eb33838361395d565b80600960008481526020019081526020016000206006016000828254611811919061558f565b925050819055505050565b60608151835114611862576040517f08c379a0000000000000000000000000000000000000000000000000000000008152600401611859906152bb565b60405180910390fd5b6000835167ffffffffffffffff8111156118a5577f4e487b7100000000000000000000000000000000000000000000000000000000600052604160045260246000fd5b6040519080825280602002602001820160405280156118d35781602001602082028036833780820191505090505b50905060005b84518110156119c25761196c85828151811061191e577f4e487b7100000000000000000000000000000000000000000000000000000000600052603260045260246000fd5b602002602001015185838151811061195f577f4e487b7100000000000000000000000000000000000000000000000000000000600052603260045260246000fd5b6020026020010151610f47565b8282815181106119a5577f4e487b7100000000000000000000000000000000000000000000000000000000600052603260045260246000fd5b602002602001018181525050806119bb906157a3565b90506118d9565b508091505092915050565b6000806009600084815260200190815260200160002060070154600960008581526020019081526020016000206008015491509150915091565b600860009054906101000a900473ffffffffffffffffffffffffffffffffffffffff1673ffffffffffffffffffffffffffffffffffffffff163373ffffffffffffffffffffffffffffffffffffffff1614611a97576040517f08c379a0000000000000000000000000000000000000000000000000000000008152600401611a8e9061515b565b60405180910390fd5b80600460006101000a81548173ffffffffffffffffffffffffffffffffffffffff021916908373ffffffffffffffffffffffffffffffffffffffff16021790555050565b60008060008060008060006009600089815260200190815260200160002060000154600960008a815260200190815260200160002060010154600960008b815260200190815260200160002060020154600960008c815260200190815260200160002060030154600960008d815260200190815260200160002060040154600960008e815260200190815260200160002060050154600960008f8152602001908152602001600020600601549650965096509650965096509650919395979092949650565b600860009054906101000a900473ffffffffffffffffffffffffffffffffffffffff1673ffffffffffffffffffffffffffffffffffffffff163373ffffffffffffffffffffffffffffffffffffffff1614611c30576040517f08c379a0000000000000000000000000000000000000000000000000000000008152600401611c279061515b565b60405180910390fd5b60001515600c600083815260200190815260200160002060020160149054906101000a900460ff16151514611c6457600080fd5b6000600c60008381526020019081526020016000206000015490506000600c60008481526020019081526020016000206001015490506000600c600085815260200190815260200160002060020160009054906101000a900473ffffffffffffffffffffffffffffffffffffffff169050611ce0816001613b7a565b611d4481600860009054906101000a900473ffffffffffffffffffffffffffffffffffffffff1685856040518060400160405280600281526020017f5b5d00000000000000000000000000000000000000000000000000000000000081525061302b565b611d4f816000613b7a565b600460009054906101000a900473ffffffffffffffffffffffffffffffffffffffff1673ffffffffffffffffffffffffffffffffffffffff1663d9513d8d8483856040518463ffffffff1660e01b8152600401611dae93929190615396565b600060405180830381600087803b158015611dc857600080fd5b505af1158015611ddc573d6000803e3d6000fd5b50505050428173ffffffffffffffffffffffffffffffffffffffff16600860009054906101000a900473ffffffffffffffffffffffffffffffffffffffff1673ffffffffffffffffffffffffffffffffffffffff167f298cf90af0c193530c17955cc82408e717e5608363c9bea6d5212be815c7bdcc8686604051611e629291906153cd565b60405180910390a450505050565b600b5481565b60006009600083815260200190815260200160002060080154421115611e9f5760029050611f0f565b600960008381526020019081526020016000206007015442118015611ed95750600960008381526020019081526020016000206008015442105b15611ee75760019050611f0f565b6009600083815260200190815260200160002060070154421015611f0e5760009050611f0f565b5b919050565b8173ffffffffffffffffffffffffffffffffffffffff16611f33613955565b73ffffffffffffffffffffffffffffffffffffffff161415611f8a576040517f08c379a0000000000000000000000000000000000000000000000000000000008152600401611f819061529b565b60405180910390fd5b8060016000611f97613955565b73ffffffffffffffffffffffffffffffffffffffff1673ffffffffffffffffffffffffffffffffffffffff16815260200190815260200160002060008473ffffffffffffffffffffffffffffffffffffffff1673ffffffffffffffffffffffffffffffffffffffff16815260200190815260200160002060006101000a81548160ff0219169083151502179055508173ffffffffffffffffffffffffffffffffffffffff16612044613955565b73ffffffffffffffffffffffffffffffffffffffff167f17307eab39ab6107e8899845ad3d59bd9653f200f220920489ca2b5937696c3183604051612089919061503e565b60405180910390a35050565b6000806120a184611e76565b146120e1576040517f08c379a00000000000000000000000000000000000000000000000000000000081526004016120d89061517b565b60405180910390fd5b600360009054906101000a900473ffffffffffffffffffffffffffffffffffffffff1673ffffffffffffffffffffffffffffffffffffffff1663df235fe4336040518263ffffffff1660e01b815260040161213c9190614f47565b60206040518083038186803b15801561215457600080fd5b505afa158015612168573d6000803e3d6000fd5b505050506040513d601f19601f8201168201806040525081019061218c9190614474565b6121cb576040517f08c379a00000000000000000000000000000000000000000000000000000000081526004016121c29061525b565b60405180910390fd5b670de0b6b3a76400006121de84846110f2565b6121e891906155e5565b3414612229576040517f08c379a00000000000000000000000000000000000000000000000000000000081526004016122209061527b565b60405180910390fd5b600860009054906101000a900473ffffffffffffffffffffffffffffffffffffffff1673ffffffffffffffffffffffffffffffffffffffff166108fc349081150290604051600060405180830381858888f19350505050158015612291573d6000803e3d6000fd5b506122f6600860009054906101000a900473ffffffffffffffffffffffffffffffffffffffff163385856040518060400160405280600281526020017f5b5d000000000000000000000000000000000000000000000000000000000000815250613669565b600a600084815260200190815260200160002060010160003373ffffffffffffffffffffffffffffffffffffffff1673ffffffffffffffffffffffffffffffffffffffff16815260200190815260200160002060009054906101000a900460ff1661243f57600a6000848152602001908152602001600020600001339080600181540180825580915050600190039060005260206000200160009091909190916101000a81548173ffffffffffffffffffffffffffffffffffffffff021916908373ffffffffffffffffffffffffffffffffffffffff1602179055506001600a600085815260200190815260200160002060010160003373ffffffffffffffffffffffffffffffffffffffff1673ffffffffffffffffffffffffffffffffffffffff16815260200190815260200160002060006101000a81548160ff0219169083151502179055505b81600960008581526020019081526020016000206004016000828254612465919061558f565b92505081905550600460009054906101000a900473ffffffffffffffffffffffffffffffffffffffff1673ffffffffffffffffffffffffffffffffffffffff166328ceefeb8433856040518463ffffffff1660e01b81526004016124cb93929190615396565b600060405180830381600087803b1580156124e557600080fd5b505af11580156124f9573d6000803e3d6000fd5b50505050423373ffffffffffffffffffffffffffffffffffffffff167f3c027c045e3796f01c651fff484d89bbb7f28cbbcc98a20de6d5cb38543a753f85856040516125469291906153cd565b60405180910390a36001905092915050565b600860009054906101000a900473ffffffffffffffffffffffffffffffffffffffff1673ffffffffffffffffffffffffffffffffffffffff163373ffffffffffffffffffffffffffffffffffffffff16146125e8576040517f08c379a00000000000000000000000000000000000000000000000000000000081526004016125df9061515b565b60405180910390fd5b80600360006101000a81548173ffffffffffffffffffffffffffffffffffffffff021916908373ffffffffffffffffffffffffffffffffffffffff16021790555050565b6000600860009054906101000a900473ffffffffffffffffffffffffffffffffffffffff1673ffffffffffffffffffffffffffffffffffffffff163373ffffffffffffffffffffffffffffffffffffffff16146126be576040517f08c379a00000000000000000000000000000000000000000000000000000000081526004016126b59061515b565b60405180910390fd5b670de0b6b3a764000061272184600d600087815260200190815260200160002060008673ffffffffffffffffffffffffffffffffffffffff1673ffffffffffffffffffffffffffffffffffffffff168152602001908152602001600020546110f2565b61272b91906155e5565b905092915050565b6000600860009054906101000a900473ffffffffffffffffffffffffffffffffffffffff1673ffffffffffffffffffffffffffffffffffffffff163373ffffffffffffffffffffffffffffffffffffffff16146127c5576040517f08c379a00000000000000000000000000000000000000000000000000000000081526004016127bc9061515b565b60405180910390fd5b600a6000838152602001908152602001600020600001805490509050919050565b6000600860009054906101000a900473ffffffffffffffffffffffffffffffffffffffff1673ffffffffffffffffffffffffffffffffffffffff163373ffffffffffffffffffffffffffffffffffffffff1614612878576040517f08c379a000000000000000000000000000000000000000000000000000000000815260040161286f9061515b565b60405180910390fd5b600460009054906101000a900473ffffffffffffffffffffffffffffffffffffffff1673ffffffffffffffffffffffffffffffffffffffff166328ac87c7836040518263ffffffff1660e01b81526004016128d3919061531b565b60206040518083038186803b1580156128eb57600080fd5b505afa1580156128ff573d6000803e3d6000fd5b505050506040513d601f19601f820116820180604052508101906129239190614474565b612962576040517f08c379a0000000000000000000000000000000000000000000000000000000008152600401612959906151fb565b60405180910390fd5b600460009054906101000a900473ffffffffffffffffffffffffffffffffffffffff1673ffffffffffffffffffffffffffffffffffffffff16637004d05a836040518263ffffffff1660e01b81526004016129bd919061531b565b60806040518083038186803b1580156129d557600080fd5b505afa1580156129e9573d6000803e3d6000fd5b505050506040513d601f19601f82011682018060405250810190612a0d91906146cf565b600960008781526020019081526020016000206000016000600960008981526020019081526020016000206001016000600960008b81526020019081526020016000206002016000600960008d81526020019081526020016000206003016000889190505587919050558691905055859190505550505050600460009054906101000a900473ffffffffffffffffffffffffffffffffffffffff1673ffffffffffffffffffffffffffffffffffffffff1663a1f6f749836040518263ffffffff1660e01b8152600401612ae0919061531b565b604080518083038186803b158015612af757600080fd5b505afa158015612b0b573d6000803e3d6000fd5b505050506040513d601f19601f82011682018060405250810190612b2f9190614693565b600960008581526020019081526020016000206007016000600960008781526020019081526020016000206008016000849190505583919050555050612bbe600860009054906101000a900473ffffffffffffffffffffffffffffffffffffffff1683600960008681526020019081526020016000206000015460405180602001604052806000815250613c19565b427f5f7666687319b40936f33c188908d86aea154abd3f4127b4fa0a3f04f303c7da83604051612bee919061531b565b60405180910390a260019050919050565b600860009054906101000a900473ffffffffffffffffffffffffffffffffffffffff1673ffffffffffffffffffffffffffffffffffffffff163373ffffffffffffffffffffffffffffffffffffffff1614612c8f576040517f08c379a0000000000000000000000000000000000000000000000000000000008152600401612c869061515b565b60405180910390fd5b80600760006101000a81548173ffffffffffffffffffffffffffffffffffffffff021916908373ffffffffffffffffffffffffffffffffffffffff16021790555050565b600860009054906101000a900473ffffffffffffffffffffffffffffffffffffffff1673ffffffffffffffffffffffffffffffffffffffff163373ffffffffffffffffffffffffffffffffffffffff1614612d63576040517f08c379a0000000000000000000000000000000000000000000000000000000008152600401612d5a9061515b565b60405180910390fd5b80600560006101000a81548173ffffffffffffffffffffffffffffffffffffffff021916908373ffffffffffffffffffffffffffffffffffffffff16021790555050565b600080600860009054906101000a900473ffffffffffffffffffffffffffffffffffffffff1673ffffffffffffffffffffffffffffffffffffffff163373ffffffffffffffffffffffffffffffffffffffff1614612e3a576040517f08c379a0000000000000000000000000000000000000000000000000000000008152600401612e319061515b565b60405180910390fd5b600a60008581526020019081526020016000206000018381548110612e88577f4e487b7100000000000000000000000000000000000000000000000000000000600052603260045260246000fd5b9060005260206000200160009054906101000a900473ffffffffffffffffffffffffffffffffffffffff16600a60008681526020019081526020016000206001016000600a60008881526020019081526020016000206000018681548110612f19577f4e487b7100000000000000000000000000000000000000000000000000000000600052603260045260246000fd5b9060005260206000200160009054906101000a900473ffffffffffffffffffffffffffffffffffffffff1673ffffffffffffffffffffffffffffffffffffffff1673ffffffffffffffffffffffffffffffffffffffff16815260200190815260200160002060009054906101000a900460ff16915091509250929050565b6000600160008473ffffffffffffffffffffffffffffffffffffffff1673ffffffffffffffffffffffffffffffffffffffff16815260200190815260200160002060008373ffffffffffffffffffffffffffffffffffffffff1673ffffffffffffffffffffffffffffffffffffffff16815260200190815260200160002060009054906101000a900460ff16905092915050565b60096000848152602001908152602001600020600801544210613083576040517f08c379a000000000000000000000000000000000000000000000000000000000815260040161307a9061523b565b60405180910390fd5b600360009054906101000a900473ffffffffffffffffffffffffffffffffffffffff1673ffffffffffffffffffffffffffffffffffffffff1663df235fe4856040518263ffffffff1660e01b81526004016130de9190614f47565b60206040518083038186803b1580156130f657600080fd5b505afa15801561310a573d6000803e3d6000fd5b505050506040513d601f19601f8201168201806040525081019061312e9190614474565b61316d576040517f08c379a0000000000000000000000000000000000000000000000000000000008152600401613164906150fb565b60405180910390fd5b613175613955565b73ffffffffffffffffffffffffffffffffffffffff168573ffffffffffffffffffffffffffffffffffffffff1614806131bb57506131ba856131b5613955565b612f97565b5b6131fa576040517f08c379a00000000000000000000000000000000000000000000000000000000081526004016131f19061513b565b60405180910390fd5b6132078585858585613669565b600a600084815260200190815260200160002060010160008573ffffffffffffffffffffffffffffffffffffffff1673ffffffffffffffffffffffffffffffffffffffff16815260200190815260200160002060009054906101000a900460ff1661335057600a6000848152602001908152602001600020600001849080600181540180825580915050600190039060005260206000200160009091909190916101000a81548173ffffffffffffffffffffffffffffffffffffffff021916908373ffffffffffffffffffffffffffffffffffffffff1602179055506001600a600085815260200190815260200160002060010160008673ffffffffffffffffffffffffffffffffffffffff1673ffffffffffffffffffffffffffffffffffffffff16815260200190815260200160002060006101000a81548160ff0219169083151502179055505b600460009054906101000a900473ffffffffffffffffffffffffffffffffffffffff1673ffffffffffffffffffffffffffffffffffffffff166328ceefeb8486856040518463ffffffff1660e01b81526004016133af93929190615396565b600060405180830381600087803b1580156133c957600080fd5b505af11580156133dd573d6000803e3d6000fd5b50505050600460009054906101000a900473ffffffffffffffffffffffffffffffffffffffff1673ffffffffffffffffffffffffffffffffffffffff1663d9513d8d8433856040518463ffffffff1660e01b815260040161344093929190615396565b600060405180830381600087803b15801561345a57600080fd5b505af115801561346e573d6000803e3d6000fd5b50505050423373ffffffffffffffffffffffffffffffffffffffff168573ffffffffffffffffffffffffffffffffffffffff167f76af8f1a19a9c2d6fb164ae239609f223a6290ae841d2ceca000bf9372ae0a4486866040516134d29291906153cd565b60405180910390a45050505050565b600760009054906101000a900473ffffffffffffffffffffffffffffffffffffffff1673ffffffffffffffffffffffffffffffffffffffff163373ffffffffffffffffffffffffffffffffffffffff1614613571576040517f08c379a0000000000000000000000000000000000000000000000000000000008152600401613568906152fb565b60405180910390fd5b82600c6000600b5481526020019081526020016000206000018190555081600c6000600b54815260200190815260200160002060020160006101000a81548173ffffffffffffffffffffffffffffffffffffffff021916908373ffffffffffffffffffffffffffffffffffffffff16021790555080600c6000600b54815260200190815260200160002060010181905550600b6000815480929190613615906157a3565b91905055506001600b54613629919061563f565b7ff870abc42aa79b1c555fd58dbf922ad3fb83daf8842757e2a3cc899960c5731884848460405161365c93929190615396565b60405180910390a2505050565b600073ffffffffffffffffffffffffffffffffffffffff168473ffffffffffffffffffffffffffffffffffffffff1614156136d9576040517f08c379a00000000000000000000000000000000000000000000000000000000081526004016136d09061519b565b60405180910390fd5b60006136e3613955565b90506137038187876136f488613daf565b6136fd88613daf565b87613e75565b600080600086815260200190815260200160002060008873ffffffffffffffffffffffffffffffffffffffff1673ffffffffffffffffffffffffffffffffffffffff1681526020019081526020016000205490508381101561379a576040517f08c379a0000000000000000000000000000000000000000000000000000000008152600401613791906151db565b60405180910390fd5b83810360008087815260200190815260200160002060008973ffffffffffffffffffffffffffffffffffffffff1673ffffffffffffffffffffffffffffffffffffffff168152602001908152602001600020819055508360008087815260200190815260200160002060008873ffffffffffffffffffffffffffffffffffffffff1673ffffffffffffffffffffffffffffffffffffffff168152602001908152602001600020600082825461384f919061558f565b925050819055508573ffffffffffffffffffffffffffffffffffffffff168773ffffffffffffffffffffffffffffffffffffffff168373ffffffffffffffffffffffffffffffffffffffff167fc3d58168c5ae7397731d063d5bbf3d657854427343f4c083240f7aacaa2d0f6288886040516138cc9291906153cd565b60405180910390a46138e2828888888888613e7d565b50505050505050565b60007f01ffc9a7000000000000000000000000000000000000000000000000000000007bffffffffffffffffffffffffffffffffffffffffffffffffffffffff1916827bffffffffffffffffffffffffffffffffffffffffffffffffffffffff1916149050919050565b600033905090565b600073ffffffffffffffffffffffffffffffffffffffff168373ffffffffffffffffffffffffffffffffffffffff1614156139cd576040517f08c379a00000000000000000000000000000000000000000000000000000000081526004016139c4906151bb565b60405180910390fd5b60006139d7613955565b9050613a07818560006139e987613daf565b6139f287613daf565b60405180602001604052806000815250613e75565b600080600085815260200190815260200160002060008673ffffffffffffffffffffffffffffffffffffffff1673ffffffffffffffffffffffffffffffffffffffff16815260200190815260200160002054905082811015613a9e576040517f08c379a0000000000000000000000000000000000000000000000000000000008152600401613a959061511b565b60405180910390fd5b82810360008086815260200190815260200160002060008773ffffffffffffffffffffffffffffffffffffffff1673ffffffffffffffffffffffffffffffffffffffff16815260200190815260200160002081905550600073ffffffffffffffffffffffffffffffffffffffff168573ffffffffffffffffffffffffffffffffffffffff168373ffffffffffffffffffffffffffffffffffffffff167fc3d58168c5ae7397731d063d5bbf3d657854427343f4c083240f7aacaa2d0f628787604051613b6b9291906153cd565b60405180910390a45050505050565b80600160008473ffffffffffffffffffffffffffffffffffffffff1673ffffffffffffffffffffffffffffffffffffffff1681526020019081526020016000206000613bc4613955565b73ffffffffffffffffffffffffffffffffffffffff1673ffffffffffffffffffffffffffffffffffffffff16815260200190815260200160002060006101000a81548160ff0219169083151502179055505050565b600073ffffffffffffffffffffffffffffffffffffffff168473ffffffffffffffffffffffffffffffffffffffff161415613c89576040517f08c379a0000000000000000000000000000000000000000000000000000000008152600401613c80906152db565b60405180910390fd5b6000613c93613955565b9050613cb481600087613ca588613daf565b613cae88613daf565b87613e75565b8260008086815260200190815260200160002060008773ffffffffffffffffffffffffffffffffffffffff1673ffffffffffffffffffffffffffffffffffffffff1681526020019081526020016000206000828254613d13919061558f565b925050819055508473ffffffffffffffffffffffffffffffffffffffff16600073ffffffffffffffffffffffffffffffffffffffff168273ffffffffffffffffffffffffffffffffffffffff167fc3d58168c5ae7397731d063d5bbf3d657854427343f4c083240f7aacaa2d0f628787604051613d919291906153cd565b60405180910390a4613da881600087878787613e7d565b5050505050565b60606000600167ffffffffffffffff811115613df4577f4e487b7100000000000000000000000000000000000000000000000000000000600052604160045260246000fd5b604051908082528060200260200182016040528015613e225781602001602082028036833780820191505090505b5090508281600081518110613e60577f4e487b7100000000000000000000000000000000000000000000000000000000600052603260045260246000fd5b60200260200101818152505080915050919050565b505050505050565b613e9c8473ffffffffffffffffffffffffffffffffffffffff1661404d565b15614045578373ffffffffffffffffffffffffffffffffffffffff1663f23a6e6187878686866040518663ffffffff1660e01b8152600401613ee2959493929190614f99565b602060405180830381600087803b158015613efc57600080fd5b505af1925050508015613f2d57506040513d601f19601f82011682018060405250810190613f2a91906144c6565b60015b613fbc57613f39615897565b80613f445750613f81565b806040517f08c379a0000000000000000000000000000000000000000000000000000000008152600401613f789190615059565b60405180910390fd5b6040517f08c379a0000000000000000000000000000000000000000000000000000000008152600401613fb39061507b565b60405180910390fd5b63f23a6e6160e01b7bffffffffffffffffffffffffffffffffffffffffffffffffffffffff1916817bffffffffffffffffffffffffffffffffffffffffffffffffffffffff191614614043576040517f08c379a000000000000000000000000000000000000000000000000000000000815260040161403a9061509b565b60405180910390fd5b505b505050505050565b600080823b905060008111915050919050565b600061407361406e84615496565b615465565b9050808382526020820190508285602086028201111561409257600080fd5b60005b858110156140c257816140a88882614176565b845260208401935060208301925050600181019050614095565b5050509392505050565b60006140df6140da846154c2565b615465565b905080838252602082019050828560208602820111156140fe57600080fd5b60005b8581101561412e57816141148882614272565b845260208401935060208301925050600181019050614101565b5050509392505050565b600061414b614146846154ee565b615465565b90508281526020810184848401111561416357600080fd5b61416e84828561572f565b509392505050565b6000813590506141858161594d565b92915050565b60008135905061419a81615964565b92915050565b600082601f8301126141b157600080fd5b81356141c1848260208601614060565b91505092915050565b600082601f8301126141db57600080fd5b81356141eb8482602086016140cc565b91505092915050565b6000813590506142038161597b565b92915050565b6000815190506142188161597b565b92915050565b60008135905061422d81615992565b92915050565b60008151905061424281615992565b92915050565b600082601f83011261425957600080fd5b8135614269848260208601614138565b91505092915050565b600081359050614281816159a9565b92915050565b600081519050614296816159a9565b92915050565b6000602082840312156142ae57600080fd5b60006142bc84828501614176565b91505092915050565b600080604083850312156142d857600080fd5b60006142e685828601614176565b92505060206142f785828601614176565b9150509250929050565b600080600080600060a0868803121561431957600080fd5b600061432788828901614176565b955050602061433888828901614176565b945050604061434988828901614272565b935050606061435a88828901614272565b925050608086013567ffffffffffffffff81111561437757600080fd5b61438388828901614248565b9150509295509295909350565b600080604083850312156143a357600080fd5b60006143b185828601614176565b92505060206143c2858286016141f4565b9150509250929050565b600080604083850312156143df57600080fd5b60006143ed85828601614176565b92505060206143fe85828601614272565b9150509250929050565b6000806040838503121561441b57600080fd5b600083013567ffffffffffffffff81111561443557600080fd5b614441858286016141a0565b925050602083013567ffffffffffffffff81111561445e57600080fd5b61446a858286016141ca565b9150509250929050565b60006020828403121561448657600080fd5b600061449484828501614209565b91505092915050565b6000602082840312156144af57600080fd5b60006144bd8482850161421e565b91505092915050565b6000602082840312156144d857600080fd5b60006144e684828501614233565b91505092915050565b60006020828403121561450157600080fd5b600061450f84828501614272565b91505092915050565b60006020828403121561452a57600080fd5b600061453884828501614287565b91505092915050565b6000806040838503121561455457600080fd5b600061456285828601614272565b925050602061457385828601614176565b9150509250929050565b6000806040838503121561459057600080fd5b600061459e85828601614272565b92505060206145af8582860161418b565b9150509250929050565b6000806000606084860312156145ce57600080fd5b60006145dc86828701614272565b93505060206145ed8682870161418b565b92505060406145fe86828701614272565b9150509250925092565b60008060006060848603121561461d57600080fd5b600061462b86828701614272565b935050602061463c86828701614176565b925050604061464d86828701614272565b9150509250925092565b6000806040838503121561466a57600080fd5b600061467885828601614272565b925050602061468985828601614272565b9150509250929050565b600080604083850312156146a657600080fd5b60006146b485828601614287565b92505060206146c585828601614287565b9150509250929050565b600080600080608085870312156146e557600080fd5b60006146f387828801614287565b945050602061470487828801614287565b935050604061471587828801614287565b925050606061472687828801614287565b91505092959194509250565b600061473e8383614f29565b60208301905092915050565b614753816156f9565b82525050565b61476281615673565b82525050565b60006147738261552e565b61477d818561555c565b93506147888361551e565b8060005b838110156147b95781516147a08882614732565b97506147ab8361554f565b92505060018101905061478c565b5085935050505092915050565b6147cf81615697565b82525050565b60006147e082615539565b6147ea818561556d565b93506147fa81856020860161573e565b61480381615879565b840191505092915050565b600061481982615544565b614823818561557e565b935061483381856020860161573e565b61483c81615879565b840191505092915050565b600061485460348361557e565b91507f455243313135353a207472616e7366657220746f206e6f6e204552433131353560008301527f526563656976657220696d706c656d656e7465720000000000000000000000006020830152604082019050919050565b60006148ba60288361557e565b91507f455243313135353a204552433131353552656365697665722072656a6563746560008301527f6420746f6b656e730000000000000000000000000000000000000000000000006020830152604082019050919050565b600061492060148361557e565b91507f426f6e64206e6f74206d617475726564207965740000000000000000000000006000830152602082019050919050565b6000614960602b8361557e565b91507f455243313135353a2062616c616e636520717565727920666f7220746865207a60008301527f65726f20616464726573730000000000000000000000000000000000000000006020830152604082019050919050565b60006149c660108361557e565b91507f4e6f742077686974656c697374656421000000000000000000000000000000006000830152602082019050919050565b6000614a0660248361557e565b91507f455243313135353a206275726e20616d6f756e7420657863656564732062616c60008301527f616e6365000000000000000000000000000000000000000000000000000000006020830152604082019050919050565b6000614a6c60298361557e565b91507f455243313135353a2063616c6c6572206973206e6f74206f776e6572206e6f7260008301527f20617070726f76656400000000000000000000000000000000000000000000006020830152604082019050919050565b6000614ad2600b8361557e565b91507f4f6e6c79204f776e6572210000000000000000000000000000000000000000006000830152602082019050919050565b6000614b12600a8361557e565b91507f545320636c6f7365642e000000000000000000000000000000000000000000006000830152602082019050919050565b6000614b5260258361557e565b91507f455243313135353a207472616e7366657220746f20746865207a65726f20616460008301527f64726573730000000000000000000000000000000000000000000000000000006020830152604082019050919050565b6000614bb860238361557e565b91507f455243313135353a206275726e2066726f6d20746865207a65726f206164647260008301527f65737300000000000000000000000000000000000000000000000000000000006020830152604082019050919050565b6000614c1e602a8361557e565b91507f455243313135353a20696e73756666696369656e742062616c616e636520666f60008301527f72207472616e73666572000000000000000000000000000000000000000000006020830152604082019050919050565b6000614c8460148361557e565b91507f435352206e6f7420696e697469616c697a6564210000000000000000000000006000830152602082019050919050565b6000614cc4601b8361557e565b91507f526564656d7074696f6e206e6f7420706f737369626c652079657400000000006000830152602082019050919050565b6000614d04600b8361557e565b91507f4d442072656163686564210000000000000000000000000000000000000000006000830152602082019050919050565b6000614d4460108361557e565b91507f4e6f742077686974656c69737465642e000000000000000000000000000000006000830152602082019050919050565b6000614d84600f8361557e565b91507f436865636b206d73672e76616c756500000000000000000000000000000000006000830152602082019050919050565b6000614dc460298361557e565b91507f455243313135353a2073657474696e6720617070726f76616c2073746174757360008301527f20666f722073656c6600000000000000000000000000000000000000000000006020830152604082019050919050565b6000614e2a60298361557e565b91507f455243313135353a206163636f756e747320616e6420696473206c656e67746860008301527f206d69736d6174636800000000000000000000000000000000000000000000006020830152604082019050919050565b6000614e9060218361557e565b91507f455243313135353a206d696e7420746f20746865207a65726f2061646472657360008301527f73000000000000000000000000000000000000000000000000000000000000006020830152604082019050919050565b6000614ef6600f8361557e565b91507f4f6e6c7920526567756c61746f722100000000000000000000000000000000006000830152602082019050919050565b614f32816156ef565b82525050565b614f41816156ef565b82525050565b6000602082019050614f5c6000830184614759565b92915050565b6000606082019050614f776000830186614759565b614f846020830185614759565b614f916040830184614f38565b949350505050565b600060a082019050614fae6000830188614759565b614fbb6020830187614759565b614fc86040830186614f38565b614fd56060830185614f38565b8181036080830152614fe781846147d5565b90509695505050505050565b60006040820190506150086000830185614759565b61501560208301846147c6565b9392505050565b600060208201905081810360008301526150368184614768565b905092915050565b600060208201905061505360008301846147c6565b92915050565b60006020820190508181036000830152615073818461480e565b905092915050565b6000602082019050818103600083015261509481614847565b9050919050565b600060208201905081810360008301526150b4816148ad565b9050919050565b600060208201905081810360008301526150d481614913565b9050919050565b600060208201905081810360008301526150f481614953565b9050919050565b60006020820190508181036000830152615114816149b9565b9050919050565b60006020820190508181036000830152615134816149f9565b9050919050565b6000602082019050818103600083015261515481614a5f565b9050919050565b6000602082019050818103600083015261517481614ac5565b9050919050565b6000602082019050818103600083015261519481614b05565b9050919050565b600060208201905081810360008301526151b481614b45565b9050919050565b600060208201905081810360008301526151d481614bab565b9050919050565b600060208201905081810360008301526151f481614c11565b9050919050565b6000602082019050818103600083015261521481614c77565b9050919050565b6000602082019050818103600083015261523481614cb7565b9050919050565b6000602082019050818103600083015261525481614cf7565b9050919050565b6000602082019050818103600083015261527481614d37565b9050919050565b6000602082019050818103600083015261529481614d77565b9050919050565b600060208201905081810360008301526152b481614db7565b9050919050565b600060208201905081810360008301526152d481614e1d565b9050919050565b600060208201905081810360008301526152f481614e83565b9050919050565b6000602082019050818103600083015261531481614ee9565b9050919050565b60006020820190506153306000830184614f38565b92915050565b600060408201905061534b6000830185614f38565b6153586020830184614759565b9392505050565b60006060820190506153746000830186614f38565b615381602083018561474a565b61538e6040830184614f38565b949350505050565b60006060820190506153ab6000830186614f38565b6153b86020830185614759565b6153c56040830184614f38565b949350505050565b60006040820190506153e26000830185614f38565b6153ef6020830184614f38565b9392505050565b600060e08201905061540b600083018a614f38565b6154186020830189614f38565b6154256040830188614f38565b6154326060830187614f38565b61543f6080830186614f38565b61544c60a0830185614f38565b61545960c0830184614f38565b98975050505050505050565b6000604051905081810181811067ffffffffffffffff8211171561548c5761548b61584a565b5b8060405250919050565b600067ffffffffffffffff8211156154b1576154b061584a565b5b602082029050602081019050919050565b600067ffffffffffffffff8211156154dd576154dc61584a565b5b602082029050602081019050919050565b600067ffffffffffffffff8211156155095761550861584a565b5b601f19601f8301169050602081019050919050565b6000819050602082019050919050565b600081519050919050565b600081519050919050565b600081519050919050565b6000602082019050919050565b600082825260208201905092915050565b600082825260208201905092915050565b600082825260208201905092915050565b600061559a826156ef565b91506155a5836156ef565b9250827fffffffffffffffffffffffffffffffffffffffffffffffffffffffffffffffff038211156155da576155d96157ec565b5b828201905092915050565b60006155f0826156ef565b91506155fb836156ef565b9250817fffffffffffffffffffffffffffffffffffffffffffffffffffffffffffffffff0483118215151615615634576156336157ec565b5b828202905092915050565b600061564a826156ef565b9150615655836156ef565b925082821015615668576156676157ec565b5b828203905092915050565b600061567e826156cf565b9050919050565b6000615690826156cf565b9050919050565b60008115159050919050565b60007fffffffff0000000000000000000000000000000000000000000000000000000082169050919050565b600073ffffffffffffffffffffffffffffffffffffffff82169050919050565b6000819050919050565b60006157048261570b565b9050919050565b60006157168261571d565b9050919050565b6000615728826156cf565b9050919050565b82818337600083830152505050565b60005b8381101561575c578082015181840152602081019050615741565b8381111561576b576000848401525b50505050565b6000600282049050600182168061578957607f821691505b6020821081141561579d5761579c61581b565b5b50919050565b60006157ae826156ef565b91507fffffffffffffffffffffffffffffffffffffffffffffffffffffffffffffffff8214156157e1576157e06157ec565b5b600182019050919050565b7f4e487b7100000000000000000000000000000000000000000000000000000000600052601160045260246000fd5b7f4e487b7100000000000000000000000000000000000000000000000000000000600052602260045260246000fd5b7f4e487b7100000000000000000000000000000000000000000000000000000000600052604160045260246000fd5b6000601f19601f8301169050919050565b60008160e01c9050919050565b600060443d10156158a75761594a565b60046000803e6158b860005161588a565b6308c379a081146158c9575061594a565b60405160043d036004823e80513d602482011167ffffffffffffffff821117156158f55750505061594a565b808201805167ffffffffffffffff81111561591457505050505061594a565b8060208301013d850181111561592f5750505050505061594a565b61593882615879565b60208401016040528296505050505050505b90565b61595681615673565b811461596157600080fd5b50565b61596d81615685565b811461597857600080fd5b50565b61598481615697565b811461598f57600080fd5b50565b61599b816156a3565b81146159a657600080fd5b50565b6159b2816156ef565b81146159bd57600080fd5b5056fea2646970667358221220763239b1186352a3fe5d42a4ba3b8b46e84946563ae8d84a56ffda010c71894364736f6c6343000800003368747470733a2f2f6769746875622e636f6d2f4461764373722f426f6e64546f6b656e4d61737465725468657369732f7b69647d2e6a736f6e",
  "immutableReferences": {},
  "source": "// SPDX-License-Identifier: UNLICENSED\n\npragma solidity ^0.8.0;\n\nimport \"./@openzeppelin/contracts/token/ERC1155/ERC1155.sol\";\nimport \"./@openzeppelin/contracts/token/ERC1155/extensions/ERC1155Burnable.sol\";\nimport \"./@openzeppelin/contracts/token/ERC20/IERC20.sol\";\nimport \"./@openzeppelin/contracts/access/Ownable.sol\";\nimport \"./KnowYourCustomer.sol\";\nimport \"./Documents.sol\";\nimport \"./SecuritiesRegister.sol\";\n\ncontract Bond is ERC1155 {\n    \n\n// When first deploying the contract, the constructor requires the addresses of the KYC, CSR and Documents contract.\n// As an option to pay via a stablecoin should be included, a stablecoin's contract address can be submitted.\n\n    constructor() \n        \n        ERC1155(\"https://github.com/DavCsr/BondTokenMasterThesis/{id}.json\")\n        \n        { \n        IssuerAddress = msg.sender;\n    }\n    \n    // Events\n\n    // To foster transparency, the bond token contract emits events in the following cases:    \n\n    event TokenMinted (\n        uint _tokenID, \n        uint256 indexed _timestamp\n        );\n\n    event CouponPaid (\n        uint _tokenID, \n        address _to, \n        uint256 _amouont, \n        uint256 indexed _timestamp\n        );\n\n    event RedemptionPaid (\n        uint _tokenID, \n        address indexed _to, \n        uint256 _amouont, \n        uint256 indexed _timestamp\n        );\n\n    event TokenBought (\n        uint _tokenID, \n        address indexed _to, \n        uint256 _amount, \n        uint256 indexed _timestamp\n        );\n\n    event TokenTransfered (\n        uint _tokenID, \n        address indexed _to, \n        address indexed _from, \n        uint256 _amount, \n        uint256 indexed _timestamp\n        );\n\n    event RedemptionBuyBack (\n        uint _tokenID, \n        address indexed _from, \n        uint256 _amount, \n        uint256 indexed _timestamp\n        );\n\n    event RequestForcedTransfer (\n        uint indexed requestID, \n        uint _tokenID, \n        address _investor, \n        uint256 _amount\n        );\n\n    event ForcedTokenTransfered (\n        uint _tokenID, \n        address indexed _to, \n        address indexed _from, \n        uint256 _amount, \n        uint256 indexed _timestamp\n        );\n    \n    // Contracts \n    \n    KycContract KYC;\n    CSRContract CSR;\n    DocumentContract Documents;\n    IERC20 _stableCoin;\n\n    function setKycContract(address _addr)\n        public\n        onlyOwner\n        {\n        KYC = KycContract(_addr);\n    }\n\n    function setCSRContract(address _addr)\n        public\n        onlyOwner\n        {\n        CSR = CSRContract(_addr);\n    }\n\n    function setDocumentsContract(address _addr)\n        public\n        onlyOwner\n        {\n        Documents = DocumentContract(_addr);\n    }\n\n    function setStableCoinContract(address _addr)\n        public\n        onlyOwner\n        {\n        _stableCoin = IERC20(_addr);\n    }\n    \n    // Modifier\n\n    modifier onlyRegulator {\n        require(\n            msg.sender == Regulator, \n            \"Only Regulator!\"\n            );\n        _;\n    }\n\n    modifier onlyOwner {\n        require(\n            msg.sender == IssuerAddress, \n            \"Only Owner!\"\n            );\n        _;\n    }\n    \n    // Entities\n    \n    address Regulator;\n    address IssuerAddress;\n    \n    // Functions for entity management\n    \n    function setRegulator(\n        address _regulator) \n        public\n        onlyOwner\n        {\n        Regulator = _regulator;\n    }\n        \n    // Variables\n\n    \n    // Each token ID has a so-called TokenDataStruct.\n    // This struct contains important variables.\n    \n    mapping(uint => TokenDataStruct) private TokenData;\n\n    struct TokenDataStruct {\n        uint volume;\n        uint parValueETHER;\n        uint parValueEUR;\n        uint coupon;\n        uint issuedAmount;\n        uint redemptionAmount;\n        uint burnedAmount;\n        uint256 settlementDate;\n        uint256 maturityDate;\n    }\n    \n    // Each bond token ID potentially has unlimited investors.\n    // To get the investor count, these investors are stored in a list called Investor.\n    // Additionally, the InvestorData allows to answer the question, whether the balance\n    // of the investor is 0 => 'false', or >0 => 'true'.\n\n    mapping(uint => InvestorData) Investor;\n\n    struct InvestorData {\n        address [] Investors;\n        mapping(address => bool) isInvestor;\n    }\n\n    // The bond token prototype allows to request forced transfers.\n    // Each request has a specific requestID, which serves to identify\n    // the request for later execution. \n    // The Regulator has to store information about the tokenID, the amount\n    // and the investor address. If the request gets executed, the bool executed\n    // gets set to 'true' .\n\n    uint public requestID;\n\n    mapping(uint => ForcedTransferRequest) private RegulatoryRequests;\n\n    struct ForcedTransferRequest{\n        uint tokenID;\n        uint amount;\n        address investor;\n        bool executed;\n    }\n    \n    // The function tokenState returns the token's state of a tokenID.\n    // - 2: The bond is already matured.\n    // - 1: The bond is settled and can be traded.\n    // - 0: The bond is not settled yet and can initially be purchased.\n\n    function tokenState(\n        uint _tokenID)\n        public\n        view \n        returns(uint state)\n        {\n            \n        if (block.timestamp > TokenData[_tokenID].maturityDate){\n            return 2;\n        }\n        \n        if (block.timestamp > TokenData[_tokenID].settlementDate && \n            block.timestamp < TokenData[_tokenID].maturityDate) {\n            return 1;\n        }\n        \n        if (block.timestamp < TokenData[_tokenID].settlementDate) {\n            return 0;   \n        }\n    }\n    \n    // Function for the initial issuance\n\n    // The mintToken function requires to input a specific TokenID.\n    // Only the IssuerAddress can execute this function.\n    // The function delegateCalls the CSR contracts function\n    // 'dataComplete', which returns a bool for the tokenID.\n    // If 'true', the bond token pulls specific TokenData from the CSR.\n    // Then an internal _mint function gets executed, which distributes \n    // the volume of the bond token ID to the IssuerAddress.\n    // The event TokenMinted gets emitted.\n    // The function returns 'true' if executed correctly.\n    \n    function mintToken(\n        uint _tokenID)\n        public\n        onlyOwner\n        returns (bool)\n        {\n    \n        require(\n            CSR.dataComplete(_tokenID),\n            \"CSR not initialized!\"\n            );\n        \n        (TokenData[_tokenID].volume, \n        TokenData[_tokenID].parValueETHER, \n        TokenData[_tokenID].parValueEUR, \n        TokenData[_tokenID].coupon) = CSR.returnTokenDataOne(_tokenID);\n        \n        (TokenData[_tokenID].settlementDate, \n        TokenData[_tokenID].maturityDate) = CSR.returnTokenDataTwo(_tokenID);\n        \n        _mint(\n            IssuerAddress, \n            _tokenID, \n            TokenData[_tokenID].volume, \n            \"\"\n            );\n        \n        emit TokenMinted(\n            _tokenID, \n            block.timestamp\n            ); \n            \n        return true;\n    }\n    \n    // The function returnTokenData returns the token's specific data,\n    // which will be used later on in the smart contract.\n\n    function returnTokenData(\n        uint _tokenID)\n        public\n        view\n        returns (\n            uint volume, \n            uint parValueETHER, \n            uint parValueEUR, \n            uint coupon, \n            uint issuedAmount, \n            uint redemptionAmount, \n            uint burnedAmount)\n        {\n            \n        return(\n            TokenData[_tokenID].volume,\n            TokenData[_tokenID].parValueETHER,\n            TokenData[_tokenID].parValueEUR,\n            TokenData[_tokenID].coupon,\n            TokenData[_tokenID].issuedAmount,\n            TokenData[_tokenID].redemptionAmount,\n            TokenData[_tokenID].burnedAmount\n        );    \n    }\n    \n    // The function returnTokenDates returns the token's Dates,\n    // which will be used later on in the smart contract.\n\n    function returnTokenDates(\n        uint _tokenID)\n        public\n        view\n        returns(\n            uint256 settlementDate, \n            uint256 maturityDate)\n        {\n\n        return(\n            TokenData[_tokenID].settlementDate,\n            TokenData[_tokenID].maturityDate\n        );    \n    }\n    \n    // Functions for corporate actions\n    \n    // In order to be able to execute corporate actions, the function\n    // returnInvestorLength\n\n    function returnInvestorLength(\n        uint _tokenID)\n        public\n        view\n        onlyOwner\n        returns (uint investorLength)\n        {\n        return Investor[_tokenID].Investors.length;\n    }\n    \n    function returnInvestorAddress(\n        uint _tokenID,\n        uint _index)\n        public\n        view\n        onlyOwner\n        returns (\n            address investorAdress, \n            bool isInvestor)\n        {\n            \n        return (\n            Investor[_tokenID].Investors[_index], \n            Investor[_tokenID].isInvestor[Investor[_tokenID].Investors[_index]]); \n    }\n    \n    function payCoupon(\n        uint _tokenID,\n        address payable _to,\n        uint256 _valueInWEI)\n        public\n        payable\n        onlyOwner\n        {\n        require(\n            msg.value == _valueInWEI,\n            \"Check msg.value\"\n        );\n        \n        _to.transfer(_valueInWEI);\n        \n        emit CouponPaid(\n            _tokenID, \n            _to, \n            _valueInWEI, \n            block.timestamp);\n    }\n    \n    // Redemption Buy Back\n    \n    mapping(uint => mapping(address => uint256)) private BuyBack;\n    \n    function redemptionBuyBack(\n        address _from,\n        uint _tokenID)\n        public\n        {\n        require(\n            block.timestamp > TokenData[_tokenID].maturityDate,\n            \"Bond not matured yet\"\n        );\n        require(\n            _from == _msgSender() || \n            isApprovedForAll(_from, _msgSender()),\n            \"ERC1155: caller is not owner nor approved\"\n        );\n\n        uint balance = CSR.balanceOf(_tokenID, _from);\n        \n        _safeTransferFrom(\n            _from, \n            IssuerAddress, \n            _tokenID, \n            balance, \n            \"[]\"\n            );\n            \n        CSR.updateCSRbyContractSell(\n            _tokenID, \n            msg.sender,\n            balance\n            );\n            \n        BuyBack[_tokenID][_from] = balance;\n\n        emit RedemptionBuyBack(\n            _tokenID, \n            _from, \n            balance, \n            block.timestamp\n            );\n    }\n    \n    function returnRedemptionPTP(\n        uint _tokenID,\n        address _to)\n        public\n        view\n        onlyOwner\n        returns (uint256)\n        {\n        return returnPriceToPayETHER(\n            _tokenID, \n            BuyBack[_tokenID][_to]) \n            * (10**18);    \n    }\n    \n    function payRedemtion(\n        uint _tokenID,\n        address payable _to)\n        public\n        payable\n        onlyOwner\n        {\n        require(\n            block.timestamp > TokenData[_tokenID].maturityDate,\n            \"Redemption not possible yet\"\n        );    \n        \n        require(\n            msg.value == (returnPriceToPayETHER(_tokenID, BuyBack[_tokenID][_to]) * (10**18)),\n            \"Check msg.value\"\n            );\n            \n        _to.transfer(msg.value);\n        \n        TokenData[_tokenID].redemptionAmount += BuyBack[_tokenID][_to];\n        \n        emit RedemptionPaid(\n            _tokenID, \n            _to, \n            msg.value, \n            block.timestamp\n            );\n    }\n    \n    function burn(\n        uint _tokenID)\n        public\n        onlyOwner\n        {\n        uint256 balance = balanceOf(msg.sender, _tokenID);\n        _burn(msg.sender, _tokenID, balance);\n        TokenData[_tokenID].burnedAmount += balance;\n    }\n    \n    // Functions for investors\n    \n    function returnPriceToPayETHER(\n        uint _tokenID, \n        uint _amount)\n        public\n        view\n        returns(uint)\n        {\n        return(TokenData[_tokenID].parValueETHER * _amount);    \n    }\n    \n    function returnPriceToPayEUR(\n        uint _tokenID, \n        uint _amount)\n        public\n        view\n        returns(uint)\n        {\n        return(TokenData[_tokenID].parValueEUR * _amount);    \n    }\n    \n    function buyTokensETHER(\n        uint _tokenID, \n        uint _amount)\n        public \n        payable\n        returns(bool)\n        {\n        require(\n            tokenState(_tokenID) == 0,\n            \"TS closed.\"\n        );\n        require(\n            KYC.kycCompleted(msg.sender),\n            \"Not whitelisted.\"\n        );\n        require(\n            msg.value == (returnPriceToPayETHER(_tokenID, _amount)*(10**18)),\n            \"Check msg.value\"\n        );\n        \n        payable(IssuerAddress).transfer(msg.value);\n        \n        _safeTransferFrom(\n            IssuerAddress, \n            msg.sender, \n            _tokenID, \n            _amount, \n            \"[]\"\n            );\n        \n        if (!Investor[_tokenID].isInvestor[msg.sender]) {\n            Investor[_tokenID].Investors.push(msg.sender);\n            Investor[_tokenID].isInvestor[msg.sender] = true;\n        }\n        \n        TokenData[_tokenID].issuedAmount += _amount;\n        \n        CSR.updateCSRbyContractBuy(\n            _tokenID, \n            msg.sender,\n            _amount\n            );\n        \n        emit TokenBought(\n            _tokenID, \n            msg.sender, \n            _amount, \n            block.timestamp\n            );\n            \n        return true;\n    }\n    \n    function buyTokensEUR(\n        uint _tokenID, \n        uint _amount)\n        public \n        payable\n        returns(bool)\n        {\n        require(\n            tokenState(_tokenID) == 0,\n            \"TS closed.\"\n        );\n        require(\n            KYC.kycCompleted(msg.sender),\n            \"Not whitelisted!\"\n        );\n        \n        address from = msg.sender;\n        uint256 ptp = returnPriceToPayEUR(_tokenID, _amount);\n        \n        _stableCoin.transferFrom(from, IssuerAddress, ptp);\n        \n        _safeTransferFrom(\n            IssuerAddress, \n            msg.sender, \n            _tokenID, \n            _amount, \n            \"[]\"\n            );\n        \n        if (!Investor[_tokenID].isInvestor[msg.sender]) {\n            Investor[_tokenID].Investors.push(msg.sender);\n            Investor[_tokenID].isInvestor[msg.sender] = true;\n        }\n        \n        TokenData[_tokenID].issuedAmount += _amount;\n        \n        CSR.updateCSRbyContractBuy(\n            _tokenID, \n            msg.sender, \n            _amount\n            );\n        \n        emit TokenBought(\n            _tokenID, \n            msg.sender, \n            _amount, \n            block.timestamp\n            );\n            \n        return true;\n    }\n    \n    // Functions for token transfers\n    \n    function checkMaturityDate(\n        uint256 [] memory _tokenIDs\n        )\n        internal\n        view\n        returns(bool)\n        {\n        bool check = true;\n        for (uint i=0; i<_tokenIDs.length; i++) {\n            if (block.timestamp > TokenData[_tokenIDs[i]].maturityDate) {\n                check = false;\n            }\n        }\n        return check;\n    }\n    \n    function safeTransferFrom(\n        address from,\n        address to,\n        uint256 id,\n        uint256 amount,\n        bytes memory data\n        )\n        public\n        virtual override\n        {\n\n        require(\n            block.timestamp < TokenData[id].maturityDate,\n            \"MD reached!\"\n        );\n        require(\n            KYC.kycCompleted(to),\n            \"Not whitelisted!\"\n        );\n        require(\n            from == _msgSender() || \n            isApprovedForAll(from, _msgSender()),\n            \"ERC1155: caller is not owner nor approved\"\n        );\n        \n        _safeTransferFrom(\n            from, \n            to, \n            id, \n            amount, \n            data\n            );\n        \n        if (!Investor[id].isInvestor[to]) {\n            Investor[id].Investors.push(to);\n            Investor[id].isInvestor[to] = true;\n        }\n        \n        CSR.updateCSRbyContractBuy(id, to, amount); \n        CSR.updateCSRbyContractSell(id, msg.sender, amount);\n        \n        emit TokenTransfered(\n            id, \n            to, \n            msg.sender, \n            amount, \n            block.timestamp\n            );\n        \n    }\n    \n    // Forced transfers by regulatory authority\n    \n     function requestForcedTransfer(\n         uint _tokenID,\n         address _investor,\n         uint _amount)\n         public\n         onlyRegulator\n         {\n         RegulatoryRequests[requestID].tokenID = _tokenID;\n         RegulatoryRequests[requestID].investor = _investor;\n         RegulatoryRequests[requestID].amount = _amount;\n         requestID ++;\n         \n         emit RequestForcedTransfer(\n             requestID-1, \n             _tokenID, \n             _investor, \n             _amount\n             );\n     }\n    \n    function forcedTransfer(\n        uint _id)\n        public\n        onlyOwner\n        {\n        require(\n            RegulatoryRequests[_id].executed == false\n            );\n        \n        uint _tokenID = RegulatoryRequests[_id].tokenID;\n        uint _amount = RegulatoryRequests[_id].amount;\n        address _investor = RegulatoryRequests[_id].investor;\n        \n        setEmergencyApproval(_investor, true);\n        safeTransferFrom(_investor, IssuerAddress, _tokenID, _amount, \"[]\");\n        setEmergencyApproval(_investor, false);\n        \n        CSR.updateCSRbyContractSell(_tokenID, _investor, _amount);\n        \n        emit ForcedTokenTransfered(\n            _tokenID, \n            IssuerAddress, \n            _investor, \n            _amount, \n            block.timestamp\n            );\n    }\n}",
  "sourcePath": "/Users/David/Universitat Bayreuth/Master/Masterarbeit/TruffleEnvironment/contracts/BondToken.sol",
  "compiler": {
    "name": "solc",
    "version": "0.8.0+commit.c7dfd78e.Emscripten.clang"
  },
  "schemaVersion": "3.4.1",
  "updatedAt": "2021-09-26T23:43:37.137Z",
  "networkType": "ethereum",
  "devdoc": {
    "kind": "dev",
    "methods": {
      "balanceOf(address,uint256)": {
        "details": "See {IERC1155-balanceOf}. Requirements: - `account` cannot be the zero address."
      },
      "balanceOfBatch(address[],uint256[])": {
        "details": "See {IERC1155-balanceOfBatch}. Requirements: - `accounts` and `ids` must have the same length."
      },
      "isApprovedForAll(address,address)": {
        "details": "See {IERC1155-isApprovedForAll}."
      },
      "safeTransferFrom(address,address,uint256,uint256,bytes)": {
        "details": "See {IERC1155-safeTransferFrom}."
      },
      "setApprovalForAll(address,bool)": {
        "details": "See {IERC1155-setApprovalForAll}."
      },
      "supportsInterface(bytes4)": {
        "details": "See {IERC165-supportsInterface}."
      },
      "uri(uint256)": {
        "details": "See {IERC1155MetadataURI-uri}. This implementation returns the same URI for *all* token types. It relies on the token type ID substitution mechanism https://eips.ethereum.org/EIPS/eip-1155#metadata[defined in the EIP]. Clients calling this function must replace the `\\{id\\}` substring with the actual token type ID."
      }
    },
    "version": 1
  },
  "userdoc": {
    "kind": "user",
    "methods": {},
    "version": 1
  }
}