{
  "contractName": "CSRContract",
  "abi": [
    {
      "anonymous": false,
      "inputs": [
        {
          "indexed": false,
          "internalType": "uint256",
          "name": "_tokenID",
          "type": "uint256"
        },
        {
          "indexed": false,
          "internalType": "string[]",
          "name": "_data",
          "type": "string[]"
        },
        {
          "indexed": false,
          "internalType": "uint256",
          "name": "_timestamp",
          "type": "uint256"
        }
      ],
      "name": "ChangeOfRegister",
      "type": "event"
    },
    {
      "anonymous": false,
      "inputs": [
        {
          "indexed": false,
          "internalType": "uint256",
          "name": "_timestamp",
          "type": "uint256"
        },
        {
          "indexed": false,
          "internalType": "address",
          "name": "_changingAddress",
          "type": "address"
        },
        {
          "indexed": false,
          "internalType": "uint256",
          "name": "_tokenID",
          "type": "uint256"
        },
        {
          "indexed": false,
          "internalType": "address",
          "name": "_investor",
          "type": "address"
        },
        {
          "indexed": false,
          "internalType": "uint256",
          "name": "_amount",
          "type": "uint256"
        }
      ],
      "name": "ChangeOfRegisterInvestorBalance",
      "type": "event"
    },
    {
      "anonymous": false,
      "inputs": [
        {
          "indexed": false,
          "internalType": "address",
          "name": "_investor",
          "type": "address"
        },
        {
          "indexed": false,
          "internalType": "bytes32[]",
          "name": "_data",
          "type": "bytes32[]"
        },
        {
          "indexed": false,
          "internalType": "uint256",
          "name": "_timestamp",
          "type": "uint256"
        }
      ],
      "name": "ChangeOfRegisterInvestorData",
      "type": "event"
    },
    {
      "anonymous": false,
      "inputs": [
        {
          "indexed": true,
          "internalType": "address",
          "name": "previousOwner",
          "type": "address"
        },
        {
          "indexed": true,
          "internalType": "address",
          "name": "newOwner",
          "type": "address"
        }
      ],
      "name": "OwnershipTransferred",
      "type": "event"
    },
    {
      "anonymous": false,
      "inputs": [
        {
          "indexed": true,
          "internalType": "uint256",
          "name": "_tokenID",
          "type": "uint256"
        },
        {
          "indexed": false,
          "internalType": "string[]",
          "name": "_tokenTerms",
          "type": "string[]"
        },
        {
          "indexed": false,
          "internalType": "string",
          "name": "_isin",
          "type": "string"
        },
        {
          "indexed": false,
          "internalType": "string",
          "name": "_wkn",
          "type": "string"
        },
        {
          "indexed": false,
          "internalType": "string",
          "name": "_itin",
          "type": "string"
        }
      ],
      "name": "TermSheetEntry",
      "type": "event"
    },
    {
      "anonymous": false,
      "inputs": [
        {
          "indexed": true,
          "internalType": "uint256",
          "name": "_tokenID",
          "type": "uint256"
        },
        {
          "indexed": false,
          "internalType": "uint256",
          "name": "_volume",
          "type": "uint256"
        },
        {
          "indexed": false,
          "internalType": "uint256",
          "name": "_parValue",
          "type": "uint256"
        },
        {
          "indexed": false,
          "internalType": "uint256",
          "name": "_parValueEUR",
          "type": "uint256"
        },
        {
          "indexed": false,
          "internalType": "uint256",
          "name": "_coupon",
          "type": "uint256"
        },
        {
          "indexed": false,
          "internalType": "string",
          "name": "_rating",
          "type": "string"
        },
        {
          "indexed": false,
          "internalType": "string",
          "name": "_issuer",
          "type": "string"
        },
        {
          "indexed": false,
          "internalType": "string",
          "name": "_entryType",
          "type": "string"
        }
      ],
      "name": "TokenDataEntry",
      "type": "event"
    },
    {
      "anonymous": false,
      "inputs": [
        {
          "indexed": true,
          "internalType": "uint256",
          "name": "_tokenID",
          "type": "uint256"
        },
        {
          "indexed": false,
          "internalType": "uint256[]",
          "name": "_settlementDate",
          "type": "uint256[]"
        },
        {
          "indexed": false,
          "internalType": "uint256[]",
          "name": "_maturityDate",
          "type": "uint256[]"
        }
      ],
      "name": "TokenDatesEntry",
      "type": "event"
    },
    {
      "inputs": [],
      "name": "Registrar",
      "outputs": [
        {
          "internalType": "address",
          "name": "",
          "type": "address"
        }
      ],
      "stateMutability": "view",
      "type": "function",
      "constant": true
    },
    {
      "inputs": [],
      "name": "Regulator",
      "outputs": [
        {
          "internalType": "address",
          "name": "",
          "type": "address"
        }
      ],
      "stateMutability": "view",
      "type": "function",
      "constant": true
    },
    {
      "inputs": [],
      "name": "owner",
      "outputs": [
        {
          "internalType": "address",
          "name": "",
          "type": "address"
        }
      ],
      "stateMutability": "view",
      "type": "function",
      "constant": true
    },
    {
      "inputs": [],
      "name": "renounceOwnership",
      "outputs": [],
      "stateMutability": "nonpayable",
      "type": "function"
    },
    {
      "inputs": [
        {
          "internalType": "address",
          "name": "newOwner",
          "type": "address"
        }
      ],
      "name": "transferOwnership",
      "outputs": [],
      "stateMutability": "nonpayable",
      "type": "function"
    },
    {
      "inputs": [
        {
          "internalType": "address",
          "name": "_addr",
          "type": "address"
        }
      ],
      "name": "setBondTokenContract",
      "outputs": [],
      "stateMutability": "nonpayable",
      "type": "function"
    },
    {
      "inputs": [
        {
          "internalType": "address",
          "name": "_addr",
          "type": "address"
        }
      ],
      "name": "setKycContract",
      "outputs": [],
      "stateMutability": "nonpayable",
      "type": "function"
    },
    {
      "inputs": [
        {
          "internalType": "address",
          "name": "_addr",
          "type": "address"
        }
      ],
      "name": "setRegistrar",
      "outputs": [],
      "stateMutability": "nonpayable",
      "type": "function"
    },
    {
      "inputs": [
        {
          "internalType": "address",
          "name": "_addr",
          "type": "address"
        }
      ],
      "name": "changeRegistrar",
      "outputs": [],
      "stateMutability": "nonpayable",
      "type": "function"
    },
    {
      "inputs": [
        {
          "internalType": "address",
          "name": "_addr",
          "type": "address"
        }
      ],
      "name": "setRegulator",
      "outputs": [],
      "stateMutability": "nonpayable",
      "type": "function"
    },
    {
      "inputs": [
        {
          "internalType": "address",
          "name": "_addr",
          "type": "address"
        }
      ],
      "name": "changeRegulator",
      "outputs": [],
      "stateMutability": "nonpayable",
      "type": "function"
    },
    {
      "inputs": [
        {
          "internalType": "uint256",
          "name": "_tokenID",
          "type": "uint256"
        },
        {
          "internalType": "uint256[]",
          "name": "_settlementDate",
          "type": "uint256[]"
        },
        {
          "internalType": "uint256[]",
          "name": "_maturityDate",
          "type": "uint256[]"
        }
      ],
      "name": "setDates",
      "outputs": [],
      "stateMutability": "nonpayable",
      "type": "function"
    },
    {
      "inputs": [
        {
          "internalType": "uint256",
          "name": "_tokenID",
          "type": "uint256"
        },
        {
          "internalType": "uint256",
          "name": "_volume",
          "type": "uint256"
        },
        {
          "internalType": "uint256",
          "name": "_parValueETHER",
          "type": "uint256"
        },
        {
          "internalType": "uint256",
          "name": "_parValueEUR",
          "type": "uint256"
        },
        {
          "internalType": "uint256",
          "name": "_coupon",
          "type": "uint256"
        },
        {
          "internalType": "string",
          "name": "_rating",
          "type": "string"
        },
        {
          "internalType": "string",
          "name": "_issuer",
          "type": "string"
        },
        {
          "internalType": "string",
          "name": "_entryType",
          "type": "string"
        }
      ],
      "name": "setTokenData",
      "outputs": [],
      "stateMutability": "nonpayable",
      "type": "function"
    },
    {
      "inputs": [
        {
          "internalType": "uint256",
          "name": "_tokenID",
          "type": "uint256"
        },
        {
          "internalType": "string[]",
          "name": "_tokenTerms",
          "type": "string[]"
        },
        {
          "internalType": "string",
          "name": "_isin",
          "type": "string"
        },
        {
          "internalType": "string",
          "name": "_wkn",
          "type": "string"
        }
      ],
      "name": "setTermSheet",
      "outputs": [],
      "stateMutability": "nonpayable",
      "type": "function"
    },
    {
      "inputs": [
        {
          "internalType": "uint256",
          "name": "_tokenID",
          "type": "uint256"
        },
        {
          "internalType": "string[]",
          "name": "_tokenTerms",
          "type": "string[]"
        },
        {
          "internalType": "string",
          "name": "_isin",
          "type": "string"
        },
        {
          "internalType": "string",
          "name": "_wkn",
          "type": "string"
        },
        {
          "internalType": "string",
          "name": "_itin",
          "type": "string"
        }
      ],
      "name": "setTermSheet",
      "outputs": [],
      "stateMutability": "nonpayable",
      "type": "function"
    },
    {
      "inputs": [
        {
          "internalType": "uint256",
          "name": "_tokenID",
          "type": "uint256"
        },
        {
          "internalType": "string",
          "name": "_issuer",
          "type": "string"
        },
        {
          "internalType": "string",
          "name": "_rating",
          "type": "string"
        }
      ],
      "name": "setIssuerInformation",
      "outputs": [],
      "stateMutability": "nonpayable",
      "type": "function"
    },
    {
      "inputs": [
        {
          "internalType": "uint256[]",
          "name": "_tokenIDs",
          "type": "uint256[]"
        },
        {
          "internalType": "address",
          "name": "_investor",
          "type": "address"
        },
        {
          "internalType": "bytes32[]",
          "name": "_disposalRestrictions",
          "type": "bytes32[]"
        },
        {
          "internalType": "bytes32[]",
          "name": "_thirdPartyRights",
          "type": "bytes32[]"
        },
        {
          "internalType": "bytes32[]",
          "name": "_otherDisposalRestrictions",
          "type": "bytes32[]"
        },
        {
          "internalType": "bytes32[]",
          "name": "_legalCapacityOwner",
          "type": "bytes32[]"
        },
        {
          "internalType": "bytes32[]",
          "name": "_summary",
          "type": "bytes32[]"
        }
      ],
      "name": "setInvestorInformation",
      "outputs": [],
      "stateMutability": "nonpayable",
      "type": "function"
    },
    {
      "inputs": [
        {
          "internalType": "uint256",
          "name": "_tokenID",
          "type": "uint256"
        }
      ],
      "name": "setDataComplete",
      "outputs": [],
      "stateMutability": "nonpayable",
      "type": "function"
    },
    {
      "inputs": [
        {
          "internalType": "uint256",
          "name": "_tokenID",
          "type": "uint256"
        }
      ],
      "name": "setRegulatoryApproval",
      "outputs": [],
      "stateMutability": "nonpayable",
      "type": "function"
    },
    {
      "inputs": [
        {
          "internalType": "uint256",
          "name": "_tokenID",
          "type": "uint256"
        },
        {
          "internalType": "address",
          "name": "_addr",
          "type": "address"
        }
      ],
      "name": "balanceOf",
      "outputs": [
        {
          "internalType": "uint256",
          "name": "",
          "type": "uint256"
        }
      ],
      "stateMutability": "view",
      "type": "function",
      "constant": true
    },
    {
      "inputs": [
        {
          "internalType": "uint256",
          "name": "_tokenID",
          "type": "uint256"
        }
      ],
      "name": "dataComplete",
      "outputs": [
        {
          "internalType": "bool",
          "name": "",
          "type": "bool"
        }
      ],
      "stateMutability": "view",
      "type": "function",
      "constant": true
    },
    {
      "inputs": [
        {
          "internalType": "uint256",
          "name": "_tokenID",
          "type": "uint256"
        }
      ],
      "name": "returnTokenDataOne",
      "outputs": [
        {
          "internalType": "uint256",
          "name": "",
          "type": "uint256"
        },
        {
          "internalType": "uint256",
          "name": "",
          "type": "uint256"
        },
        {
          "internalType": "uint256",
          "name": "",
          "type": "uint256"
        },
        {
          "internalType": "uint256",
          "name": "",
          "type": "uint256"
        }
      ],
      "stateMutability": "view",
      "type": "function",
      "constant": true
    },
    {
      "inputs": [
        {
          "internalType": "uint256",
          "name": "_tokenID",
          "type": "uint256"
        }
      ],
      "name": "returnTokenDataTwo",
      "outputs": [
        {
          "internalType": "uint256",
          "name": "",
          "type": "uint256"
        },
        {
          "internalType": "uint256",
          "name": "",
          "type": "uint256"
        }
      ],
      "stateMutability": "view",
      "type": "function",
      "constant": true
    },
    {
      "inputs": [
        {
          "internalType": "uint256",
          "name": "_tokenID",
          "type": "uint256"
        }
      ],
      "name": "returnTokenDistribution",
      "outputs": [
        {
          "internalType": "uint256",
          "name": "SingleEntryAmount",
          "type": "uint256"
        },
        {
          "internalType": "uint256",
          "name": "CollectiveEntryAmount",
          "type": "uint256"
        }
      ],
      "stateMutability": "view",
      "type": "function",
      "constant": true
    },
    {
      "inputs": [
        {
          "internalType": "uint256",
          "name": "_tokenID",
          "type": "uint256"
        },
        {
          "internalType": "address",
          "name": "_addr",
          "type": "address"
        },
        {
          "internalType": "uint256",
          "name": "_amount",
          "type": "uint256"
        }
      ],
      "name": "updateCSRbyContractBuy",
      "outputs": [],
      "stateMutability": "nonpayable",
      "type": "function"
    },
    {
      "inputs": [
        {
          "internalType": "uint256",
          "name": "_tokenID",
          "type": "uint256"
        },
        {
          "internalType": "address",
          "name": "_addr",
          "type": "address"
        },
        {
          "internalType": "uint256",
          "name": "_amount",
          "type": "uint256"
        }
      ],
      "name": "updateCSRbyContractSell",
      "outputs": [],
      "stateMutability": "nonpayable",
      "type": "function"
    },
    {
      "inputs": [
        {
          "internalType": "uint256",
          "name": "_tokenID",
          "type": "uint256"
        },
        {
          "internalType": "string[]",
          "name": "_tokenTerms",
          "type": "string[]"
        },
        {
          "internalType": "string",
          "name": "_isin",
          "type": "string"
        },
        {
          "internalType": "string",
          "name": "_wkn",
          "type": "string"
        },
        {
          "internalType": "string",
          "name": "_itin",
          "type": "string"
        },
        {
          "internalType": "string[]",
          "name": "_summary",
          "type": "string[]"
        }
      ],
      "name": "changeTokenTermSheetProposal",
      "outputs": [],
      "stateMutability": "nonpayable",
      "type": "function"
    },
    {
      "inputs": [
        {
          "internalType": "uint256",
          "name": "_tokenID",
          "type": "uint256"
        }
      ],
      "name": "viewTokenTermSheetProposal",
      "outputs": [
        {
          "internalType": "string[]",
          "name": "",
          "type": "string[]"
        },
        {
          "internalType": "string",
          "name": "",
          "type": "string"
        },
        {
          "internalType": "string",
          "name": "",
          "type": "string"
        },
        {
          "internalType": "string",
          "name": "",
          "type": "string"
        }
      ],
      "stateMutability": "view",
      "type": "function",
      "constant": true
    },
    {
      "inputs": [
        {
          "internalType": "uint256",
          "name": "_tokenID",
          "type": "uint256"
        },
        {
          "internalType": "string[]",
          "name": "_summary",
          "type": "string[]"
        }
      ],
      "name": "approveChangeTokenTermSheet",
      "outputs": [],
      "stateMutability": "nonpayable",
      "type": "function"
    }
  ],
  "bytecode": "0x60806040523480156200001157600080fd5b5062000032620000266200003860201b60201c565b6200004060201b60201c565b62000104565b600033905090565b60008060009054906101000a900473ffffffffffffffffffffffffffffffffffffffff169050816000806101000a81548173ffffffffffffffffffffffffffffffffffffffff021916908373ffffffffffffffffffffffffffffffffffffffff1602179055508173ffffffffffffffffffffffffffffffffffffffff168173ffffffffffffffffffffffffffffffffffffffff167f8be0079c531659141344cd1fd0a4f28419497f9722a3daafe3b4186f6b6457e060405160405180910390a35050565b614f1580620001146000396000f3fe608060405234801561001057600080fd5b50600436106101cf5760003560e01c80638da5cb5b11610104578063d95514a8116100a2578063f2fde38b11610071578063f2fde38b146104ef578063f8b0e18e1461050b578063faab9d3914610527578063fe93995714610543576101cf565b8063d95514a814610466578063e210736a14610484578063ea0a7c2e146104a0578063edcf6c52146104d3576101cf565b8063b9f37c86116100de578063b9f37c86146103f4578063cde0a4f814610412578063d8d3fde01461042e578063d9513d8d1461044a576101cf565b80638da5cb5b14610389578063a1f6f749146103a7578063b173483d146103d8576101cf565b806331d676e6116101715780637004d05a1161014b5780637004d05a14610314578063715018a61461034757806376b58810146103515780638be9199f1461036d576101cf565b806331d676e6146102ac57806332ede06e146102c85780633656eec2146102e4576101cf565b806322833475116101ad578063228334751461022857806328ac87c71461024457806328ceefeb146102745780632e3f6ec214610290576101cf565b806304ee2db6146101d457806308528190146101f05780631c3279ed1461020c575b600080fd5b6101ee60048036038101906101e99190613f58565b610574565b005b61020a60048036038101906102059190613a4d565b610847565b005b61022660048036038101906102219190613a4d565b610998565b005b610242600480360381019061023d9190613cd5565b610a58565b005b61025e60048036038101906102599190613ba4565b610b3e565b60405161026b91906146a5565b60405180910390f35b61028e60048036038101906102899190613c32565b610c7f565b005b6102aa60048036038101906102a59190613fd7565b610f3c565b005b6102c660048036038101906102c19190613a76565b611027565b005b6102e260048036038101906102dd9190613ba4565b6113c7565b005b6102fe60048036038101906102f99190613bf6565b611489565b60405161030b91906147a0565b60405180910390f35b61032e60048036038101906103299190613ba4565b611645565b60405161033e9493929190614875565b60405180910390f35b61034f61179e565b005b61036b60048036038101906103669190613a4d565b611826565b005b61038760048036038101906103829190613e57565b611977565b005b610391611b35565b60405161039e91906145b4565b60405180910390f35b6103c160048036038101906103bc9190613ba4565b611b5e565b6040516103cf92919061484c565b60405180910390f35b6103f260048036038101906103ed9190613a4d565b611c80565b005b6103fc611d40565b60405161040991906145b4565b60405180910390f35b61042c60048036038101906104279190613a4d565b611d66565b005b61044860048036038101906104439190614056565b611e26565b005b610464600480360381019061045f9190613c32565b612025565b005b61046e6122e2565b60405161047b91906145b4565b60405180910390f35b61049e60048036038101906104999190613ba4565b612308565b005b6104ba60048036038101906104b59190613ba4565b6123fe565b6040516104ca949392919061460d565b60405180910390f35b6104ed60048036038101906104e89190613c81565b61275e565b005b61050960048036038101906105049190613a4d565b612b3b565b005b61052560048036038101906105209190613d80565b612c33565b005b610541600480360381019061053c9190613a4d565b612df4565b005b61055d60048036038101906105589190613ba4565b612eb4565b60405161056b92919061484c565b60405180910390f35b600360009054906101000a900473ffffffffffffffffffffffffffffffffffffffff1673ffffffffffffffffffffffffffffffffffffffff163373ffffffffffffffffffffffffffffffffffffffff1614610604576040517f08c379a00000000000000000000000000000000000000000000000000000000081526004016105fb90614780565b60405180910390fd5b6000151560056000858152602001908152602001600020600f0160019054906101000a900460ff1615151461063857600080fd5b61070682600081518110610675577f4e487b7100000000000000000000000000000000000000000000000000000000600052603260045260246000fd5b6020026020010151836001815181106106b7577f4e487b7100000000000000000000000000000000000000000000000000000000600052603260045260246000fd5b6020026020010151846002815181106106f9577f4e487b7100000000000000000000000000000000000000000000000000000000600052603260045260246000fd5b6020026020010151612ef4565b60056000858152602001908152602001600020600d01819055506107ee8160008151811061075d577f4e487b7100000000000000000000000000000000000000000000000000000000600052603260045260246000fd5b60200260200101518260018151811061079f577f4e487b7100000000000000000000000000000000000000000000000000000000600052603260045260246000fd5b6020026020010151836002815181106107e1577f4e487b7100000000000000000000000000000000000000000000000000000000600052603260045260246000fd5b6020026020010151612ef4565b60056000858152602001908152602001600020600e0181905550827f11bda135d8b607c0d89f7a05a6b282841e24460f4c545a44b95757dd1e1fccbd838360405161083a92919061466e565b60405180910390a2505050565b61084f612f0f565b73ffffffffffffffffffffffffffffffffffffffff1661086d611b35565b73ffffffffffffffffffffffffffffffffffffffff16146108c3576040517f08c379a00000000000000000000000000000000000000000000000000000000081526004016108ba90614720565b60405180910390fd5b8073ffffffffffffffffffffffffffffffffffffffff16600460009054906101000a900473ffffffffffffffffffffffffffffffffffffffff1673ffffffffffffffffffffffffffffffffffffffff161415610954576040517f08c379a000000000000000000000000000000000000000000000000000000000815260040161094b90614760565b60405180910390fd5b80600460006101000a81548173ffffffffffffffffffffffffffffffffffffffff021916908373ffffffffffffffffffffffffffffffffffffffff16021790555050565b6109a0612f0f565b73ffffffffffffffffffffffffffffffffffffffff166109be611b35565b73ffffffffffffffffffffffffffffffffffffffff1614610a14576040517f08c379a0000000000000000000000000000000000000000000000000000000008152600401610a0b90614720565b60405180910390fd5b80600160006101000a81548173ffffffffffffffffffffffffffffffffffffffff021916908373ffffffffffffffffffffffffffffffffffffffff16021790555050565b600360009054906101000a900473ffffffffffffffffffffffffffffffffffffffff1673ffffffffffffffffffffffffffffffffffffffff163373ffffffffffffffffffffffffffffffffffffffff1614610ae8576040517f08c379a0000000000000000000000000000000000000000000000000000000008152600401610adf90614780565b60405180910390fd5b6000151560056000868152602001908152602001600020600f0160019054906101000a900460ff16151514610b1c57600080fd5b610b388484848460405180602001604052806000815250612c33565b50505050565b60003373ffffffffffffffffffffffffffffffffffffffff16600160009054906101000a900473ffffffffffffffffffffffffffffffffffffffff1673ffffffffffffffffffffffffffffffffffffffff161480610be957503373ffffffffffffffffffffffffffffffffffffffff16600260009054906101000a900473ffffffffffffffffffffffffffffffffffffffff1673ffffffffffffffffffffffffffffffffffffffff16145b610c28576040517f08c379a0000000000000000000000000000000000000000000000000000000008152600401610c1f90614700565b60405180910390fd5b60056000838152602001908152602001600020600f0160009054906101000a900460ff168015610c78575060056000838152602001908152602001600020600f0160019054906101000a900460ff165b9050919050565b3373ffffffffffffffffffffffffffffffffffffffff16600160009054906101000a900473ffffffffffffffffffffffffffffffffffffffff1673ffffffffffffffffffffffffffffffffffffffff161480610d2857503373ffffffffffffffffffffffffffffffffffffffff16600260009054906101000a900473ffffffffffffffffffffffffffffffffffffffff1673ffffffffffffffffffffffffffffffffffffffff16145b610d67576040517f08c379a0000000000000000000000000000000000000000000000000000000008152600401610d5e90614700565b60405180910390fd5b6000600260009054906101000a900473ffffffffffffffffffffffffffffffffffffffff1673ffffffffffffffffffffffffffffffffffffffff1663bbc01b1a846040518263ffffffff1660e01b8152600401610dc491906145b4565b60206040518083038186803b158015610ddc57600080fd5b505afa158015610df0573d6000803e3d6000fd5b505050506040513d601f19601f82011682018060405250810190610e149190613bcd565b9050816005600086815260200190815260200160002060100160008573ffffffffffffffffffffffffffffffffffffffff1673ffffffffffffffffffffffffffffffffffffffff1681526020019081526020016000206000016000828254610e7c9190614afb565b925050819055506000811415610ebd5781600560008681526020019081526020016000206004016000016000828254610eb59190614afb565b925050819055505b6001811415610ef75781600560008681526020019081526020016000206004016001016000828254610eef9190614afb565b925050819055505b7fd7fb9fa2e5ad67bae24747b5119494719f8bf0fb90fcba50adc697d6460412514233868686604051610f2e9594939291906147bb565b60405180910390a150505050565b600360009054906101000a900473ffffffffffffffffffffffffffffffffffffffff1673ffffffffffffffffffffffffffffffffffffffff163373ffffffffffffffffffffffffffffffffffffffff1614610fcc576040517f08c379a0000000000000000000000000000000000000000000000000000000008152600401610fc390614780565b60405180910390fd5b8160056000858152602001908152602001600020600a019080519060200190610ff69291906135c9565b508060056000858152602001908152602001600020600b0190805190602001906110219291906135c9565b50505050565b600360009054906101000a900473ffffffffffffffffffffffffffffffffffffffff1673ffffffffffffffffffffffffffffffffffffffff163373ffffffffffffffffffffffffffffffffffffffff16146110b7576040517f08c379a00000000000000000000000000000000000000000000000000000000081526004016110ae90614780565b60405180910390fd5b60005b87518110156113825785600560008a8481518110611101577f4e487b7100000000000000000000000000000000000000000000000000000000600052603260045260246000fd5b6020026020010151815260200190815260200160002060100160008973ffffffffffffffffffffffffffffffffffffffff1673ffffffffffffffffffffffffffffffffffffffff168152602001908152602001600020600101908051906020019061116d92919061364f565b5084600560008a84815181106111ac577f4e487b7100000000000000000000000000000000000000000000000000000000600052603260045260246000fd5b6020026020010151815260200190815260200160002060100160008973ffffffffffffffffffffffffffffffffffffffff1673ffffffffffffffffffffffffffffffffffffffff168152602001908152602001600020600201908051906020019061121892919061364f565b5083600560008a8481518110611257577f4e487b7100000000000000000000000000000000000000000000000000000000600052603260045260246000fd5b6020026020010151815260200190815260200160002060100160008973ffffffffffffffffffffffffffffffffffffffff1673ffffffffffffffffffffffffffffffffffffffff16815260200190815260200160002060030190805190602001906112c392919061364f565b5082600560008a8481518110611302577f4e487b7100000000000000000000000000000000000000000000000000000000600052603260045260246000fd5b6020026020010151815260200190815260200160002060100160008973ffffffffffffffffffffffffffffffffffffffff1673ffffffffffffffffffffffffffffffffffffffff168152602001908152602001600020600401908051906020019061136e92919061364f565b50808061137a90614d53565b9150506110ba565b507f9d0073cff85dfdc37ff2ac2fc1dcd1af05817e0c98c921da3adea159c1ab9ddd8682426040516113b6939291906145cf565b60405180910390a150505050505050565b600360009054906101000a900473ffffffffffffffffffffffffffffffffffffffff1673ffffffffffffffffffffffffffffffffffffffff163373ffffffffffffffffffffffffffffffffffffffff1614611457576040517f08c379a000000000000000000000000000000000000000000000000000000000815260040161144e90614780565b60405180910390fd5b600160056000838152602001908152602001600020600f0160006101000a81548160ff02191690831515021790555050565b60008173ffffffffffffffffffffffffffffffffffffffff163373ffffffffffffffffffffffffffffffffffffffff1614806114f757506114c8611b35565b73ffffffffffffffffffffffffffffffffffffffff163373ffffffffffffffffffffffffffffffffffffffff16145b8061154f5750600360009054906101000a900473ffffffffffffffffffffffffffffffffffffffff1673ffffffffffffffffffffffffffffffffffffffff163373ffffffffffffffffffffffffffffffffffffffff16145b806115a757503373ffffffffffffffffffffffffffffffffffffffff16600160009054906101000a900473ffffffffffffffffffffffffffffffffffffffff1673ffffffffffffffffffffffffffffffffffffffff16145b6115e6576040517f08c379a00000000000000000000000000000000000000000000000000000000081526004016115dd906146e0565b60405180910390fd5b6005600084815260200190815260200160002060100160008373ffffffffffffffffffffffffffffffffffffffff1673ffffffffffffffffffffffffffffffffffffffff16815260200190815260200160002060000154905092915050565b6000806000803373ffffffffffffffffffffffffffffffffffffffff16600160009054906101000a900473ffffffffffffffffffffffffffffffffffffffff1673ffffffffffffffffffffffffffffffffffffffff1614806116f457503373ffffffffffffffffffffffffffffffffffffffff16600260009054906101000a900473ffffffffffffffffffffffffffffffffffffffff1673ffffffffffffffffffffffffffffffffffffffff16145b611733576040517f08c379a000000000000000000000000000000000000000000000000000000000815260040161172a90614700565b60405180910390fd5b600560008681526020019081526020016000206006015460056000878152602001908152602001600020600701546005600088815260200190815260200160002060080154600560008981526020019081526020016000206009015493509350935093509193509193565b6117a6612f0f565b73ffffffffffffffffffffffffffffffffffffffff166117c4611b35565b73ffffffffffffffffffffffffffffffffffffffff161461181a576040517f08c379a000000000000000000000000000000000000000000000000000000000815260040161181190614720565b60405180910390fd5b6118246000612f17565b565b61182e612f0f565b73ffffffffffffffffffffffffffffffffffffffff1661184c611b35565b73ffffffffffffffffffffffffffffffffffffffff16146118a2576040517f08c379a000000000000000000000000000000000000000000000000000000000815260040161189990614720565b60405180910390fd5b8073ffffffffffffffffffffffffffffffffffffffff16600360009054906101000a900473ffffffffffffffffffffffffffffffffffffffff1673ffffffffffffffffffffffffffffffffffffffff161415611933576040517f08c379a000000000000000000000000000000000000000000000000000000000815260040161192a90614740565b60405180910390fd5b80600360006101000a81548173ffffffffffffffffffffffffffffffffffffffff021916908373ffffffffffffffffffffffffffffffffffffffff16021790555050565b600360009054906101000a900473ffffffffffffffffffffffffffffffffffffffff1673ffffffffffffffffffffffffffffffffffffffff163373ffffffffffffffffffffffffffffffffffffffff1614611a07576040517f08c379a00000000000000000000000000000000000000000000000000000000081526004016119fe90614780565b60405180910390fd5b6000151560056000888152602001908152602001600020600f0160019054906101000a900460ff16151514611a3b57600080fd5b84600660008881526020019081526020016000206000019080519060200190611a6592919061369c565b5083600660008881526020019081526020016000206001019080519060200190611a909291906135c9565b5082600660008881526020019081526020016000206002019080519060200190611abb9291906135c9565b5081600660008881526020019081526020016000206003019080519060200190611ae69291906135c9565b50611aef611b35565b73ffffffffffffffffffffffffffffffffffffffff163373ffffffffffffffffffffffffffffffffffffffff161415611b2d57611b2c868261275e565b5b505050505050565b60008060009054906101000a900473ffffffffffffffffffffffffffffffffffffffff16905090565b6000803373ffffffffffffffffffffffffffffffffffffffff16600160009054906101000a900473ffffffffffffffffffffffffffffffffffffffff1673ffffffffffffffffffffffffffffffffffffffff161480611c0a57503373ffffffffffffffffffffffffffffffffffffffff16600260009054906101000a900473ffffffffffffffffffffffffffffffffffffffff1673ffffffffffffffffffffffffffffffffffffffff16145b611c49576040517f08c379a0000000000000000000000000000000000000000000000000000000008152600401611c4090614700565b60405180910390fd5b60056000848152602001908152602001600020600d015460056000858152602001908152602001600020600e015491509150915091565b611c88612f0f565b73ffffffffffffffffffffffffffffffffffffffff16611ca6611b35565b73ffffffffffffffffffffffffffffffffffffffff1614611cfc576040517f08c379a0000000000000000000000000000000000000000000000000000000008152600401611cf390614720565b60405180910390fd5b80600260006101000a81548173ffffffffffffffffffffffffffffffffffffffff021916908373ffffffffffffffffffffffffffffffffffffffff16021790555050565b600360009054906101000a900473ffffffffffffffffffffffffffffffffffffffff1681565b611d6e612f0f565b73ffffffffffffffffffffffffffffffffffffffff16611d8c611b35565b73ffffffffffffffffffffffffffffffffffffffff1614611de2576040517f08c379a0000000000000000000000000000000000000000000000000000000008152600401611dd990614720565b60405180910390fd5b80600460006101000a81548173ffffffffffffffffffffffffffffffffffffffff021916908373ffffffffffffffffffffffffffffffffffffffff16021790555050565b600360009054906101000a900473ffffffffffffffffffffffffffffffffffffffff1673ffffffffffffffffffffffffffffffffffffffff163373ffffffffffffffffffffffffffffffffffffffff1614611eb6576040517f08c379a0000000000000000000000000000000000000000000000000000000008152600401611ead90614780565b60405180910390fd5b60001515600560008a8152602001908152602001600020600f0160019054906101000a900460ff16151514611eea57600080fd5b86600560008a81526020019081526020016000206006018190555085600560008a81526020019081526020016000206007018190555084600560008a81526020019081526020016000206008018190555083600560008a81526020019081526020016000206009018190555082600560008a8152602001908152602001600020600b019080519060200190611f809291906135c9565b5081600560008a8152602001908152602001600020600a019080519060200190611fab9291906135c9565b5080600560008a8152602001908152602001600020600c019080519060200190611fd69291906135c9565b50877f7d399a448de78a90231a0a28e9e230a93dd5a9015f92a837ce9f639714e6cba58888888888888860405161201397969594939291906148ba565b60405180910390a25050505050505050565b3373ffffffffffffffffffffffffffffffffffffffff16600160009054906101000a900473ffffffffffffffffffffffffffffffffffffffff1673ffffffffffffffffffffffffffffffffffffffff1614806120ce57503373ffffffffffffffffffffffffffffffffffffffff16600260009054906101000a900473ffffffffffffffffffffffffffffffffffffffff1673ffffffffffffffffffffffffffffffffffffffff16145b61210d576040517f08c379a000000000000000000000000000000000000000000000000000000000815260040161210490614700565b60405180910390fd5b6000600260009054906101000a900473ffffffffffffffffffffffffffffffffffffffff1673ffffffffffffffffffffffffffffffffffffffff1663bbc01b1a846040518263ffffffff1660e01b815260040161216a91906145b4565b60206040518083038186803b15801561218257600080fd5b505afa158015612196573d6000803e3d6000fd5b505050506040513d601f19601f820116820180604052508101906121ba9190613bcd565b9050816005600086815260200190815260200160002060100160008573ffffffffffffffffffffffffffffffffffffffff1673ffffffffffffffffffffffffffffffffffffffff16815260200190815260200160002060000160008282546122229190614bdf565b925050819055506000811415612263578160056000868152602001908152602001600020600401600001600082825461225b9190614bdf565b925050819055505b600181141561229d57816005600086815260200190815260200160002060040160010160008282546122959190614bdf565b925050819055505b7fd7fb9fa2e5ad67bae24747b5119494719f8bf0fb90fcba50adc697d64604125142338686866040516122d49594939291906147bb565b60405180910390a150505050565b600460009054906101000a900473ffffffffffffffffffffffffffffffffffffffff1681565b600460009054906101000a900473ffffffffffffffffffffffffffffffffffffffff1673ffffffffffffffffffffffffffffffffffffffff163373ffffffffffffffffffffffffffffffffffffffff1614612398576040517f08c379a000000000000000000000000000000000000000000000000000000000815260040161238f90614780565b60405180910390fd5b6001151560056000838152602001908152602001600020600f0160009054906101000a900460ff161515146123cc57600080fd5b600160056000838152602001908152602001600020600f0160016101000a81548160ff02191690831515021790555050565b60608060608061240c612f0f565b73ffffffffffffffffffffffffffffffffffffffff1661242a611b35565b73ffffffffffffffffffffffffffffffffffffffff1614612480576040517f08c379a000000000000000000000000000000000000000000000000000000000815260040161247790614720565b60405180910390fd5b6006600086815260200190815260200160002060000160066000878152602001908152602001600020600101600660008881526020019081526020016000206002016006600089815260200190815260200160002060030183805480602002602001604051908101604052809291908181526020016000905b828210156125a557838290600052602060002001805461251890614cf6565b80601f016020809104026020016040519081016040528092919081815260200182805461254490614cf6565b80156125915780601f1061256657610100808354040283529160200191612591565b820191906000526020600020905b81548152906001019060200180831161257457829003601f168201915b5050505050815260200190600101906124f9565b5050505093508280546125b790614cf6565b80601f01602080910402602001604051908101604052809291908181526020018280546125e390614cf6565b80156126305780601f1061260557610100808354040283529160200191612630565b820191906000526020600020905b81548152906001019060200180831161261357829003601f168201915b5050505050925081805461264390614cf6565b80601f016020809104026020016040519081016040528092919081815260200182805461266f90614cf6565b80156126bc5780601f10612691576101008083540402835291602001916126bc565b820191906000526020600020905b81548152906001019060200180831161269f57829003601f168201915b505050505091508080546126cf90614cf6565b80601f01602080910402602001604051908101604052809291908181526020018280546126fb90614cf6565b80156127485780601f1061271d57610100808354040283529160200191612748565b820191906000526020600020905b81548152906001019060200180831161272b57829003601f168201915b5050505050905093509350935093509193509193565b612766612f0f565b73ffffffffffffffffffffffffffffffffffffffff16612784611b35565b73ffffffffffffffffffffffffffffffffffffffff16146127da576040517f08c379a00000000000000000000000000000000000000000000000000000000081526004016127d190614720565b60405180910390fd5b612aa68260066000858152602001908152602001600020600001805480602002602001604051908101604052809291908181526020016000905b828210156128c057838290600052602060002001805461283390614cf6565b80601f016020809104026020016040519081016040528092919081815260200182805461285f90614cf6565b80156128ac5780601f10612881576101008083540402835291602001916128ac565b820191906000526020600020905b81548152906001019060200180831161288f57829003601f168201915b505050505081526020019060010190612814565b505050506006600086815260200190815260200160002060010180546128e590614cf6565b80601f016020809104026020016040519081016040528092919081815260200182805461291190614cf6565b801561295e5780601f106129335761010080835404028352916020019161295e565b820191906000526020600020905b81548152906001019060200180831161294157829003601f168201915b505050505060066000878152602001908152602001600020600201805461298490614cf6565b80601f01602080910402602001604051908101604052809291908181526020018280546129b090614cf6565b80156129fd5780601f106129d2576101008083540402835291602001916129fd565b820191906000526020600020905b8154815290600101906020018083116129e057829003601f168201915b5050505050600660008881526020019081526020016000206003018054612a2390614cf6565b80601f0160208091040260200160405190810160405280929190818152602001828054612a4f90614cf6565b8015612a9c5780601f10612a7157610100808354040283529160200191612a9c565b820191906000526020600020905b815481529060010190602001808311612a7f57829003601f168201915b5050505050612c33565b6006600083815260200190815260200160002060008082016000612aca91906136fc565b600182016000612ada919061371d565b600282016000612aea919061371d565b600382016000612afa919061371d565b50507fd8097c3834adb3ac0d3032b6c6e8b893e169c4b7c6700ca2b1195f062d328a8c828242604051612b2f9392919061480e565b60405180910390a15050565b612b43612f0f565b73ffffffffffffffffffffffffffffffffffffffff16612b61611b35565b73ffffffffffffffffffffffffffffffffffffffff1614612bb7576040517f08c379a0000000000000000000000000000000000000000000000000000000008152600401612bae90614720565b60405180910390fd5b600073ffffffffffffffffffffffffffffffffffffffff168173ffffffffffffffffffffffffffffffffffffffff161415612c27576040517f08c379a0000000000000000000000000000000000000000000000000000000008152600401612c1e906146c0565b60405180910390fd5b612c3081612f17565b50565b600360009054906101000a900473ffffffffffffffffffffffffffffffffffffffff1673ffffffffffffffffffffffffffffffffffffffff163373ffffffffffffffffffffffffffffffffffffffff1614612cc3576040517f08c379a0000000000000000000000000000000000000000000000000000000008152600401612cba90614780565b60405180910390fd5b6000151560056000878152602001908152602001600020600f0160019054906101000a900460ff16151514612cf757600080fd5b83600560008781526020019081526020016000206000016000019080519060200190612d2492919061369c565b5082600560008781526020019081526020016000206000016001019080519060200190612d529291906135c9565b5081600560008781526020019081526020016000206000016002019080519060200190612d809291906135c9565b5080600560008781526020019081526020016000206000016003019080519060200190612dae9291906135c9565b50847fc89008e72ed837b8580a3a50c0ff865665e5080fc9994ab207f570c082a517cc85858585604051612de5949392919061460d565b60405180910390a25050505050565b612dfc612f0f565b73ffffffffffffffffffffffffffffffffffffffff16612e1a611b35565b73ffffffffffffffffffffffffffffffffffffffff1614612e70576040517f08c379a0000000000000000000000000000000000000000000000000000000008152600401612e6790614720565b60405180910390fd5b80600360006101000a81548173ffffffffffffffffffffffffffffffffffffffff021916908373ffffffffffffffffffffffffffffffffffffffff16021790555050565b6000806005600084815260200190815260200160002060040160000154600560008581526020019081526020016000206004016001015491509150915091565b6000612f068484846000806000612fdb565b90509392505050565b600033905090565b60008060009054906101000a900473ffffffffffffffffffffffffffffffffffffffff169050816000806101000a81548173ffffffffffffffffffffffffffffffffffffffff021916908373ffffffffffffffffffffffffffffffffffffffff1602179055508173ffffffffffffffffffffffffffffffffffffffff168173ffffffffffffffffffffffffffffffffffffffff167f8be0079c531659141344cd1fd0a4f28419497f9722a3daafe3b4186f6b6457e060405160405180910390a35050565b6000806107b290505b8761ffff168161ffff16101561303f57612ffd8161355a565b15613019576301e28500826130129190614afb565b915061302c565b6301e13380826130299190614afb565b91505b808061303790614d28565b915050612fe4565b61304761375d565b601f816000600c8110613083577f4e487b7100000000000000000000000000000000000000000000000000000000600052603260045260246000fd5b602002019060ff16908160ff168152505061309d8961355a565b156130f457601d816001600c81106130de577f4e487b7100000000000000000000000000000000000000000000000000000000600052603260045260246000fd5b602002019060ff16908160ff1681525050613142565b601c816001600c8110613130577f4e487b7100000000000000000000000000000000000000000000000000000000600052603260045260246000fd5b602002019060ff16908160ff16815250505b601f816002600c811061317e577f4e487b7100000000000000000000000000000000000000000000000000000000600052603260045260246000fd5b602002019060ff16908160ff1681525050601e816003600c81106131cb577f4e487b7100000000000000000000000000000000000000000000000000000000600052603260045260246000fd5b602002019060ff16908160ff1681525050601f816004600c8110613218577f4e487b7100000000000000000000000000000000000000000000000000000000600052603260045260246000fd5b602002019060ff16908160ff1681525050601e816005600c8110613265577f4e487b7100000000000000000000000000000000000000000000000000000000600052603260045260246000fd5b602002019060ff16908160ff1681525050601f816006600c81106132b2577f4e487b7100000000000000000000000000000000000000000000000000000000600052603260045260246000fd5b602002019060ff16908160ff1681525050601f816007600c81106132ff577f4e487b7100000000000000000000000000000000000000000000000000000000600052603260045260246000fd5b602002019060ff16908160ff1681525050601e816008600c811061334c577f4e487b7100000000000000000000000000000000000000000000000000000000600052603260045260246000fd5b602002019060ff16908160ff1681525050601f816009600c8110613399577f4e487b7100000000000000000000000000000000000000000000000000000000600052603260045260246000fd5b602002019060ff16908160ff1681525050601e81600a600c81106133e6577f4e487b7100000000000000000000000000000000000000000000000000000000600052603260045260246000fd5b602002019060ff16908160ff1681525050601f81600b600c8110613433577f4e487b7100000000000000000000000000000000000000000000000000000000600052603260045260246000fd5b602002019060ff16908160ff1681525050600191505b8760ff168261ffff1610156134d757806001836134669190614bab565b61ffff16600c81106134a1577f4e487b7100000000000000000000000000000000000000000000000000000000600052603260045260246000fd5b602002015160ff16620151806134b79190614b51565b836134c29190614afb565b925081806134cf90614d28565b925050613449565b6001876134e49190614c13565b60ff16620151806134f59190614b51565b836135009190614afb565b92508560ff16610e106135139190614b51565b8361351e9190614afb565b92508460ff16603c6135309190614b51565b8361353b9190614afb565b92508360ff168361354c9190614afb565b925050509695505050505050565b60008060048361356a9190614d9c565b61ffff161461357c57600090506135c4565b600060648361358b9190614d9c565b61ffff161461359d57600190506135c4565b6000610190836135ad9190614d9c565b61ffff16146135bf57600090506135c4565b600190505b919050565b8280546135d590614cf6565b90600052602060002090601f0160209004810192826135f7576000855561363e565b82601f1061361057805160ff191683800117855561363e565b8280016001018555821561363e579182015b8281111561363d578251825591602001919060010190613622565b5b50905061364b9190613780565b5090565b82805482825590600052602060002090810192821561368b579160200282015b8281111561368a57825182559160200191906001019061366f565b5b509050613698919061379d565b5090565b8280548282559060005260206000209081019282156136eb579160200282015b828111156136ea5782518290805190602001906136da9291906135c9565b50916020019190600101906136bc565b5b5090506136f891906137ba565b5090565b508054600082559060005260206000209081019061371a91906137ba565b50565b50805461372990614cf6565b6000825580601f1061373b575061375a565b601f0160209004906000526020600020908101906137599190613780565b5b50565b604051806101800160405280600c90602082028036833780820191505090505090565b5b80821115613799576000816000905550600101613781565b5090565b5b808211156137b657600081600090555060010161379e565b5090565b5b808211156137da57600081816137d1919061371d565b506001016137bb565b5090565b60006137f16137ec8461496f565b61493e565b9050808382526020820190508285602086028201111561381057600080fd5b60005b85811015613840578161382688826139e4565b845260208401935060208301925050600181019050613813565b5050509392505050565b600061385d6138588461499b565b61493e565b9050808382526020820190508260005b8581101561389d578135850161388388826139f9565b84526020840193506020830192505060018101905061386d565b5050509392505050565b60006138ba6138b5846149c7565b61493e565b905080838252602082019050828560208602820111156138d957600080fd5b60005b8581101561390957816138ef8882613a23565b8452602084019350602083019250506001810190506138dc565b5050509392505050565b6000613926613921846149f3565b61493e565b90508281526020810184848401111561393e57600080fd5b613949848285614cb4565b509392505050565b60008135905061396081614e9a565b92915050565b600082601f83011261397757600080fd5b81356139878482602086016137de565b91505092915050565b600082601f8301126139a157600080fd5b81356139b184826020860161384a565b91505092915050565b600082601f8301126139cb57600080fd5b81356139db8482602086016138a7565b91505092915050565b6000813590506139f381614eb1565b92915050565b600082601f830112613a0a57600080fd5b8135613a1a848260208601613913565b91505092915050565b600081359050613a3281614ec8565b92915050565b600081519050613a4781614ec8565b92915050565b600060208284031215613a5f57600080fd5b6000613a6d84828501613951565b91505092915050565b600080600080600080600060e0888a031215613a9157600080fd5b600088013567ffffffffffffffff811115613aab57600080fd5b613ab78a828b016139ba565b9750506020613ac88a828b01613951565b965050604088013567ffffffffffffffff811115613ae557600080fd5b613af18a828b01613966565b955050606088013567ffffffffffffffff811115613b0e57600080fd5b613b1a8a828b01613966565b945050608088013567ffffffffffffffff811115613b3757600080fd5b613b438a828b01613966565b93505060a088013567ffffffffffffffff811115613b6057600080fd5b613b6c8a828b01613966565b92505060c088013567ffffffffffffffff811115613b8957600080fd5b613b958a828b01613966565b91505092959891949750929550565b600060208284031215613bb657600080fd5b6000613bc484828501613a23565b91505092915050565b600060208284031215613bdf57600080fd5b6000613bed84828501613a38565b91505092915050565b60008060408385031215613c0957600080fd5b6000613c1785828601613a23565b9250506020613c2885828601613951565b9150509250929050565b600080600060608486031215613c4757600080fd5b6000613c5586828701613a23565b9350506020613c6686828701613951565b9250506040613c7786828701613a23565b9150509250925092565b60008060408385031215613c9457600080fd5b6000613ca285828601613a23565b925050602083013567ffffffffffffffff811115613cbf57600080fd5b613ccb85828601613990565b9150509250929050565b60008060008060808587031215613ceb57600080fd5b6000613cf987828801613a23565b945050602085013567ffffffffffffffff811115613d1657600080fd5b613d2287828801613990565b935050604085013567ffffffffffffffff811115613d3f57600080fd5b613d4b878288016139f9565b925050606085013567ffffffffffffffff811115613d6857600080fd5b613d74878288016139f9565b91505092959194509250565b600080600080600060a08688031215613d9857600080fd5b6000613da688828901613a23565b955050602086013567ffffffffffffffff811115613dc357600080fd5b613dcf88828901613990565b945050604086013567ffffffffffffffff811115613dec57600080fd5b613df8888289016139f9565b935050606086013567ffffffffffffffff811115613e1557600080fd5b613e21888289016139f9565b925050608086013567ffffffffffffffff811115613e3e57600080fd5b613e4a888289016139f9565b9150509295509295909350565b60008060008060008060c08789031215613e7057600080fd5b6000613e7e89828a01613a23565b965050602087013567ffffffffffffffff811115613e9b57600080fd5b613ea789828a01613990565b955050604087013567ffffffffffffffff811115613ec457600080fd5b613ed089828a016139f9565b945050606087013567ffffffffffffffff811115613eed57600080fd5b613ef989828a016139f9565b935050608087013567ffffffffffffffff811115613f1657600080fd5b613f2289828a016139f9565b92505060a087013567ffffffffffffffff811115613f3f57600080fd5b613f4b89828a01613990565b9150509295509295509295565b600080600060608486031215613f6d57600080fd5b6000613f7b86828701613a23565b935050602084013567ffffffffffffffff811115613f9857600080fd5b613fa4868287016139ba565b925050604084013567ffffffffffffffff811115613fc157600080fd5b613fcd868287016139ba565b9150509250925092565b600080600060608486031215613fec57600080fd5b6000613ffa86828701613a23565b935050602084013567ffffffffffffffff81111561401757600080fd5b614023868287016139f9565b925050604084013567ffffffffffffffff81111561404057600080fd5b61404c868287016139f9565b9150509250925092565b600080600080600080600080610100898b03121561407357600080fd5b60006140818b828c01613a23565b98505060206140928b828c01613a23565b97505060406140a38b828c01613a23565b96505060606140b48b828c01613a23565b95505060806140c58b828c01613a23565b94505060a089013567ffffffffffffffff8111156140e257600080fd5b6140ee8b828c016139f9565b93505060c089013567ffffffffffffffff81111561410b57600080fd5b6141178b828c016139f9565b92505060e089013567ffffffffffffffff81111561413457600080fd5b6141408b828c016139f9565b9150509295985092959890939650565b600061415c83836142e3565b60208301905092915050565b600061417483836142f2565b905092915050565b60006141888383614596565b60208301905092915050565b61419d81614c47565b82525050565b60006141ae82614a53565b6141b88185614aa6565b93506141c383614a23565b8060005b838110156141f45781516141db8882614150565b97506141e683614a7f565b9250506001810190506141c7565b5085935050505092915050565b600061420c82614a5e565b6142168185614ab7565b93508360208202850161422885614a33565b8060005b8581101561426457848403895281516142458582614168565b945061425083614a8c565b925060208a0199505060018101905061422c565b50829750879550505050505092915050565b600061428182614a69565b61428b8185614ac8565b935061429683614a43565b8060005b838110156142c75781516142ae888261417c565b97506142b983614a99565b92505060018101905061429a565b5085935050505092915050565b6142dd81614c59565b82525050565b6142ec81614c65565b82525050565b60006142fd82614a74565b6143078185614ad9565b9350614317818560208601614cc3565b61432081614e89565b840191505092915050565b600061433682614a74565b6143408185614aea565b9350614350818560208601614cc3565b61435981614e89565b840191505092915050565b6000614371602683614aea565b91507f4f776e61626c653a206e6577206f776e657220697320746865207a65726f206160008301527f64647265737300000000000000000000000000000000000000000000000000006020830152604082019050919050565b60006143d7602183614aea565b91507f596f7520617265206e6f7420616c6c6f77656420746f2076696577207468697360008301527f21000000000000000000000000000000000000000000000000000000000000006020830152604082019050919050565b600061443d602783614aea565b91507f4f6e6c79206120636f6e74726163742063616e2063616c6c207468697320667560008301527f6e6374696f6e21000000000000000000000000000000000000000000000000006020830152604082019050919050565b60006144a3602083614aea565b91507f4f776e61626c653a2063616c6c6572206973206e6f7420746865206f776e65726000830152602082019050919050565b60006144e3601283614aea565b91507f416c7265616479207265676973747261722100000000000000000000000000006000830152602082019050919050565b6000614523601183614aea565b91507f416c726561647920726567756c61746f720000000000000000000000000000006000830152602082019050919050565b6000614563601783614aea565b91507f596f7520617265206e6f7420617574686f72697a6564210000000000000000006000830152602082019050919050565b61459f81614c9d565b82525050565b6145ae81614c9d565b82525050565b60006020820190506145c96000830184614194565b92915050565b60006060820190506145e46000830186614194565b81810360208301526145f681856141a3565b905061460560408301846145a5565b949350505050565b600060808201905081810360008301526146278187614201565b9050818103602083015261463b818661432b565b9050818103604083015261464f818561432b565b90508181036060830152614663818461432b565b905095945050505050565b600060408201905081810360008301526146888185614276565b9050818103602083015261469c8184614276565b90509392505050565b60006020820190506146ba60008301846142d4565b92915050565b600060208201905081810360008301526146d981614364565b9050919050565b600060208201905081810360008301526146f9816143ca565b9050919050565b6000602082019050818103600083015261471981614430565b9050919050565b6000602082019050818103600083015261473981614496565b9050919050565b60006020820190508181036000830152614759816144d6565b9050919050565b6000602082019050818103600083015261477981614516565b9050919050565b6000602082019050818103600083015261479981614556565b9050919050565b60006020820190506147b560008301846145a5565b92915050565b600060a0820190506147d060008301886145a5565b6147dd6020830187614194565b6147ea60408301866145a5565b6147f76060830185614194565b61480460808301846145a5565b9695505050505050565b600060608201905061482360008301866145a5565b81810360208301526148358185614201565b905061484460408301846145a5565b949350505050565b600060408201905061486160008301856145a5565b61486e60208301846145a5565b9392505050565b600060808201905061488a60008301876145a5565b61489760208301866145a5565b6148a460408301856145a5565b6148b160608301846145a5565b95945050505050565b600060e0820190506148cf600083018a6145a5565b6148dc60208301896145a5565b6148e960408301886145a5565b6148f660608301876145a5565b8181036080830152614908818661432b565b905081810360a083015261491c818561432b565b905081810360c0830152614930818461432b565b905098975050505050505050565b6000604051905081810181811067ffffffffffffffff8211171561496557614964614e5a565b5b8060405250919050565b600067ffffffffffffffff82111561498a57614989614e5a565b5b602082029050602081019050919050565b600067ffffffffffffffff8211156149b6576149b5614e5a565b5b602082029050602081019050919050565b600067ffffffffffffffff8211156149e2576149e1614e5a565b5b602082029050602081019050919050565b600067ffffffffffffffff821115614a0e57614a0d614e5a565b5b601f19601f8301169050602081019050919050565b6000819050602082019050919050565b6000819050602082019050919050565b6000819050602082019050919050565b600081519050919050565b600081519050919050565b600081519050919050565b600081519050919050565b6000602082019050919050565b6000602082019050919050565b6000602082019050919050565b600082825260208201905092915050565b600082825260208201905092915050565b600082825260208201905092915050565b600082825260208201905092915050565b600082825260208201905092915050565b6000614b0682614c9d565b9150614b1183614c9d565b9250827fffffffffffffffffffffffffffffffffffffffffffffffffffffffffffffffff03821115614b4657614b45614dcd565b5b828201905092915050565b6000614b5c82614c9d565b9150614b6783614c9d565b9250817fffffffffffffffffffffffffffffffffffffffffffffffffffffffffffffffff0483118215151615614ba057614b9f614dcd565b5b828202905092915050565b6000614bb682614c6f565b9150614bc183614c6f565b925082821015614bd457614bd3614dcd565b5b828203905092915050565b6000614bea82614c9d565b9150614bf583614c9d565b925082821015614c0857614c07614dcd565b5b828203905092915050565b6000614c1e82614ca7565b9150614c2983614ca7565b925082821015614c3c57614c3b614dcd565b5b828203905092915050565b6000614c5282614c7d565b9050919050565b60008115159050919050565b6000819050919050565b600061ffff82169050919050565b600073ffffffffffffffffffffffffffffffffffffffff82169050919050565b6000819050919050565b600060ff82169050919050565b82818337600083830152505050565b60005b83811015614ce1578082015181840152602081019050614cc6565b83811115614cf0576000848401525b50505050565b60006002820490506001821680614d0e57607f821691505b60208210811415614d2257614d21614e2b565b5b50919050565b6000614d3382614c6f565b915061ffff821415614d4857614d47614dcd565b5b600182019050919050565b6000614d5e82614c9d565b91507fffffffffffffffffffffffffffffffffffffffffffffffffffffffffffffffff821415614d9157614d90614dcd565b5b600182019050919050565b6000614da782614c6f565b9150614db283614c6f565b925082614dc257614dc1614dfc565b5b828206905092915050565b7f4e487b7100000000000000000000000000000000000000000000000000000000600052601160045260246000fd5b7f4e487b7100000000000000000000000000000000000000000000000000000000600052601260045260246000fd5b7f4e487b7100000000000000000000000000000000000000000000000000000000600052602260045260246000fd5b7f4e487b7100000000000000000000000000000000000000000000000000000000600052604160045260246000fd5b6000601f19601f8301169050919050565b614ea381614c47565b8114614eae57600080fd5b50565b614eba81614c65565b8114614ec557600080fd5b50565b614ed181614c9d565b8114614edc57600080fd5b5056fea2646970667358221220f75c30ac11d8f2b91b8669740c113304a85865be7e32f1e1688368cc5121eaed64736f6c63430008000033",
  "immutableReferences": {},
  "source": "// SPDX-License-Identifier: UNLICENSED\n\npragma solidity ^0.8.0;\n\nimport \"./@openzeppelin/contracts/access/Ownable.sol\";\nimport \"./BondToken.sol\";\nimport \"./DateTime.sol\";\nimport \"./KnowYourCustomer.sol\";\n\ncontract CSRContract is Ownable, DateTime {\n    \n    // Events\n    \n    event TokenDataEntry (\n        uint indexed _tokenID, \n        uint _volume, \n        uint _parValue, \n        uint _parValueEUR, \n        uint _coupon, \n        string _rating, \n        string _issuer, \n        string _entryType\n        );\n\n    event TokenDatesEntry (\n        uint indexed _tokenID, \n        uint256 [] _settlementDate, \n        uint256 [] _maturityDate\n        );\n\n    event TermSheetEntry (\n        uint indexed _tokenID, \n        string [] _tokenTerms, \n        string _isin, \n        string _wkn, \n        string _itin\n        );\n\n    event ChangeOfRegister (\n        uint _tokenID, \n        string [] _data, \n        uint256 _timestamp\n        );\n\n    event ChangeOfRegisterInvestorData (\n        address _investor, \n        bytes32 [] _data, \n        uint256 _timestamp\n        );\n\n    event ChangeOfRegisterInvestorBalance (\n        uint _timestamp, \n        address _changingAddress, \n        uint _tokenID, \n        address _investor, \n        uint _amount\n        );\n    \n    // Contracts\n    \n    Bond BTC;\n    KycContract KYC;\n    \n    // Functions for contract management\n    \n    function setBondTokenContract(\n        address _addr)\n        public\n        onlyOwner\n        {\n        BTC = Bond(_addr);\n    }\n    \n    function setKycContract(address _addr)\n        public\n        onlyOwner\n        {\n        KYC = KycContract(_addr);\n    }\n    \n    // Modifier\n    \n    modifier onlyRegistrar {\n        require(\n            msg.sender == Registrar, \n            \"You are not authorized!\"\n            );\n        _;\n    }\n    \n    modifier onlyRegulator {\n        require(\n            msg.sender == Regulator, \n            \"You are not authorized!\"\n            );\n        _;\n    }\n    \n    modifier onlyContract {\n        require(\n            BTC == Bond(msg.sender) || \n            KYC == KycContract(msg.sender), \n            \"Only a contract can call this function!\"\n            );\n        _;\n    }\n    \n    // Entities\n    \n    address public Registrar;\n    address public Regulator;\n    \n    // Functions for entity management\n    \n    function setRegistrar(\n        address _addr)\n        public\n        onlyOwner\n        {\n        Registrar = _addr;    \n    }\n    \n    function changeRegistrar(\n        address _addr)\n        public\n        onlyOwner\n        {\n        require(\n            Registrar != _addr, \n            \"Already registrar!\"\n        );\n        Registrar = _addr;\n    }\n    \n    function setRegulator(\n        address _addr)\n        public\n        onlyOwner\n        {\n        Regulator = _addr;    \n    }\n    \n    function changeRegulator(\n        address _addr)\n        public\n        onlyOwner\n        {\n        require(\n            Regulator != _addr, \n            \"Already regulator\"\n        );\n        Regulator = _addr;\n    }\n    \n    // Crypto Securities Register\n    \n    mapping(uint => CSRStruct) private SecuritiesRegister;\n    \n    struct CSRStruct {\n        TermSheet termsheet;\n        InvestorStructure investorstructure;\n        uint volume;\n        uint parValueETHER;\n        uint parValueEUR;\n        uint coupon;\n        string issuer;\n        string rating;\n        string entryType;\n        uint256 settlementDate;\n        uint256 maturityDate;\n        bool dataComplete;\n        bool regulatorApproval;\n        mapping(address => InvestorInformationStruct) InvestorInformation;\n    }\n    \n    struct TermSheet {\n        string [] TokenTerms;\n        string ISIN;\n        string WKN;\n        string ITIN;\n    }\n    \n    struct InvestorStructure {\n        uint AmountSingleEntry;\n        uint AmountCollectiveEntry;\n    }\n    \n    struct InvestorInformationStruct {\n        uint balanceOf;\n        bytes32 [] DisposalRestrictions;\n        bytes32 [] ThirdPartyRights;\n        bytes32 [] OtherDisposalRestrictions;\n        bytes32 [] LegalCapacityOwner;\n    }\n    \n    // Functions for CSR management\n    \n    function setDates(\n        uint _tokenID, \n        uint256 [] memory _settlementDate, \n        uint256 [] memory _maturityDate)\n        public\n        onlyRegistrar\n        {\n        require(\n            SecuritiesRegister[_tokenID].regulatorApproval == false\n        );\n        \n        SecuritiesRegister[_tokenID].settlementDate = toTimestamp(\n            uint16(_settlementDate[0]), \n            uint8(_settlementDate[1]), \n            uint8(_settlementDate[2])\n            );\n\n        SecuritiesRegister[_tokenID].maturityDate = toTimestamp(\n            uint16(_maturityDate[0]), \n            uint8(_maturityDate[1]), \n            uint8(_maturityDate[2])\n            );\n        \n        emit TokenDatesEntry(\n            _tokenID, \n            _settlementDate, \n            _maturityDate\n            );\n    }\n    \n    function setTokenData(\n        uint _tokenID,\n        uint _volume,\n        uint _parValueETHER,\n        uint _parValueEUR,\n        uint _coupon,\n        string memory _rating,\n        string memory _issuer,\n        string memory _entryType)\n        public\n        onlyRegistrar\n        {\n        require(\n            SecuritiesRegister[_tokenID].regulatorApproval == false\n        );\n        \n        SecuritiesRegister[_tokenID].volume = _volume;\n        SecuritiesRegister[_tokenID].parValueETHER = _parValueETHER;\n        SecuritiesRegister[_tokenID].parValueEUR = _parValueEUR;\n        SecuritiesRegister[_tokenID].coupon = _coupon;\n        SecuritiesRegister[_tokenID].rating = _rating;\n        SecuritiesRegister[_tokenID].issuer = _issuer;\n        SecuritiesRegister[_tokenID].entryType = _entryType;\n        \n        emit TokenDataEntry(\n            _tokenID,\n            _volume,\n            _parValueETHER,\n            _parValueEUR,\n            _coupon, \n            _rating, \n            _issuer, \n            _entryType\n            );\n    }\n    \n    function setTermSheet(\n        uint _tokenID, \n        string [] memory _tokenTerms,\n        string memory _isin,\n        string memory _wkn)\n        public\n        onlyRegistrar\n        {\n        require(\n            SecuritiesRegister[_tokenID].regulatorApproval == false\n        );\n        \n        return setTermSheet(\n            _tokenID, \n            _tokenTerms, \n            _isin,\n            _wkn, \n            \"\");\n    }\n    \n    function setTermSheet(\n        uint _tokenID,\n        string [] memory _tokenTerms,\n        string memory _isin,\n        string memory _wkn,\n        string memory _itin)\n        public\n        onlyRegistrar\n        {\n        require(\n            SecuritiesRegister[_tokenID].regulatorApproval == false\n        );\n            \n        SecuritiesRegister[_tokenID].termsheet.TokenTerms = _tokenTerms;\n        SecuritiesRegister[_tokenID].termsheet.ISIN = _isin;\n        SecuritiesRegister[_tokenID].termsheet.WKN = _wkn;\n        SecuritiesRegister[_tokenID].termsheet.ITIN = _itin;\n        \n        emit TermSheetEntry(\n            _tokenID, \n            _tokenTerms, \n            _isin, \n            _wkn, \n            _itin\n            );\n    }\n    \n    function setIssuerInformation(\n        uint _tokenID,\n        string memory _issuer,\n        string memory _rating)\n        public\n        onlyRegistrar\n        {\n        SecuritiesRegister[_tokenID].issuer = _issuer;\n        SecuritiesRegister[_tokenID].rating = _rating;\n    }\n    \n    function setInvestorInformation(\n        uint [] memory _tokenIDs,\n        address _investor,\n        bytes32 [] memory _disposalRestrictions,\n        bytes32 [] memory _thirdPartyRights,\n        bytes32 [] memory _otherDisposalRestrictions,\n        bytes32 [] memory _legalCapacityOwner,\n        bytes32 [] memory _summary)\n        public\n        onlyRegistrar\n        {\n        for (uint i=0; i< _tokenIDs.length; i++) {\n            SecuritiesRegister[_tokenIDs[i]].InvestorInformation[_investor].DisposalRestrictions = _disposalRestrictions;\n            SecuritiesRegister[_tokenIDs[i]].InvestorInformation[_investor].ThirdPartyRights = _thirdPartyRights;\n            SecuritiesRegister[_tokenIDs[i]].InvestorInformation[_investor].OtherDisposalRestrictions = _otherDisposalRestrictions;\n            SecuritiesRegister[_tokenIDs[i]].InvestorInformation[_investor].LegalCapacityOwner = _legalCapacityOwner;\n        }\n        \n        emit ChangeOfRegisterInvestorData(\n            _investor,\n            _summary,\n            block.timestamp\n            );\n    }\n    \n    function setDataComplete(\n        uint _tokenID)\n        public\n        onlyRegistrar\n        {\n        SecuritiesRegister[_tokenID].dataComplete = true;\n    }\n    \n    function setRegulatoryApproval(\n        uint _tokenID)\n        public\n        onlyRegulator\n        {\n        require(\n            SecuritiesRegister[_tokenID].dataComplete == true\n            );\n        SecuritiesRegister[_tokenID].regulatorApproval = true;\n    }\n    \n    // View functions\n    \n    function balanceOf(\n        uint _tokenID, \n        address _addr)\n        external\n        view\n        returns(uint) \n        {\n        require(\n            msg.sender == _addr || \n            msg.sender == owner() || \n            msg.sender == Registrar || \n            BTC == Bond(msg.sender), \n            \"You are not allowed to view this!\"\n        );\n        \n        return SecuritiesRegister[_tokenID].InvestorInformation[_addr].balanceOf;    \n    }\n    \n    function dataComplete(\n        uint _tokenID)\n        external\n        view\n        onlyContract\n        returns(bool)\n        {\n        return (SecuritiesRegister[_tokenID].dataComplete && \n            SecuritiesRegister[_tokenID].regulatorApproval);     \n    }\n    \n    function returnTokenDataOne(\n        uint _tokenID)\n        external\n        view\n        onlyContract\n        returns(uint, uint, uint, uint)\n        {\n        \n        return (\n            SecuritiesRegister[_tokenID].volume, \n            SecuritiesRegister[_tokenID].parValueETHER,\n            SecuritiesRegister[_tokenID].parValueEUR,\n            SecuritiesRegister[_tokenID].coupon\n            );     \n    }\n    \n    function returnTokenDataTwo(\n        uint _tokenID)\n        external\n        view\n        onlyContract\n        returns(uint256, uint256)\n        {\n        \n        return (\n            SecuritiesRegister[_tokenID].settlementDate,\n            SecuritiesRegister[_tokenID].maturityDate\n            );     \n    }\n    \n    function returnTokenDistribution(\n        uint _tokenID)\n        public\n        view\n        returns(\n            uint256 SingleEntryAmount, \n            uint256 CollectiveEntryAmount)\n        {\n        return (\n            SecuritiesRegister[_tokenID].investorstructure.AmountSingleEntry, \n            SecuritiesRegister[_tokenID].investorstructure.AmountCollectiveEntry\n            );    \n    }\n    \n    // Functions for CSR-Update\n    \n    function updateCSRbyContractBuy(\n        uint _tokenID, \n        address _addr, \n        uint _amount)\n        external\n        onlyContract\n        {\n        \n        uint investorType = KYC.returnInvestorType(_addr);\n        \n        SecuritiesRegister[_tokenID].InvestorInformation[_addr].balanceOf += _amount;\n        \n        if (investorType == 0) {\n            SecuritiesRegister[_tokenID].investorstructure.AmountSingleEntry += _amount;\n        }\n        \n        if (investorType == 1) {\n            SecuritiesRegister[_tokenID].investorstructure.AmountCollectiveEntry += _amount;\n        }\n        \n        emit ChangeOfRegisterInvestorBalance (\n            block.timestamp, \n            msg.sender, \n            _tokenID, \n            _addr, \n            _amount);\n    }\n    \n    function updateCSRbyContractSell(\n        uint _tokenID, \n        address _addr, \n        uint _amount)\n        external\n        onlyContract\n        {\n        \n        uint investorType = KYC.returnInvestorType(_addr);\n        \n        SecuritiesRegister[_tokenID].InvestorInformation[_addr].balanceOf -= _amount;\n            \n        if (investorType == 0) {\n            SecuritiesRegister[_tokenID].investorstructure.AmountSingleEntry -= _amount;\n        }\n        \n        if (investorType == 1) {\n            SecuritiesRegister[_tokenID].investorstructure.AmountCollectiveEntry -= _amount;\n        }\n        \n        emit ChangeOfRegisterInvestorBalance (\n            block.timestamp, \n            msg.sender, \n            _tokenID, \n            _addr, \n            _amount);\n    }\n    \n    // Exemplary functions for changing or deleting data in the register for a specific token (neither complete nor conclusive)\n    \n    function changeTokenTermSheetProposal(\n        uint _tokenID,\n        string [] memory _tokenTerms,\n        string memory _isin,\n        string memory _wkn,\n        string memory _itin,\n        string [] memory _summary) \n        public\n        onlyRegistrar\n        {\n        require(\n            SecuritiesRegister[_tokenID].regulatorApproval == false\n            );\n            \n        TermSheetProposal[_tokenID].tokenTerms = _tokenTerms;\n        TermSheetProposal[_tokenID].isin = _isin;\n        TermSheetProposal[_tokenID].wkn = _wkn;\n        TermSheetProposal[_tokenID].itin = _itin;\n        \n        if (msg.sender == owner()) {\n            approveChangeTokenTermSheet(_tokenID, _summary);\n        }\n    }\n    \n    mapping (uint => changeTokenTermSheetProposalData) private TermSheetProposal;\n    \n    struct changeTokenTermSheetProposalData {\n        string [] tokenTerms;\n        string isin;\n        string wkn;\n        string itin;\n    }\n    \n    function viewTokenTermSheetProposal(\n        uint _tokenID)\n        public\n        view\n        onlyOwner\n        returns (\n            string [] memory,\n            string memory, \n            string memory, \n            string memory)\n        {\n        return (\n            TermSheetProposal[_tokenID].tokenTerms,\n            TermSheetProposal[_tokenID].isin,\n            TermSheetProposal[_tokenID].wkn,\n            TermSheetProposal[_tokenID].itin);    \n    }\n    \n    function approveChangeTokenTermSheet(\n        uint _tokenID, \n        string [] memory _summary)\n        public\n        onlyOwner\n        {\n            \n        setTermSheet(\n            _tokenID,\n            TermSheetProposal[_tokenID].tokenTerms,\n            TermSheetProposal[_tokenID].isin,\n            TermSheetProposal[_tokenID].wkn,\n            TermSheetProposal[_tokenID].itin);\n            \n        delete TermSheetProposal[_tokenID];\n        \n        emit ChangeOfRegister (\n            _tokenID, \n            _summary,\n            block.timestamp\n            );\n    }\n}",
  "sourcePath": "/Users/David/Universitat Bayreuth/Master/Masterarbeit/TruffleEnvironment/contracts/SecuritiesRegister.sol",
  "compiler": {
    "name": "solc",
    "version": "0.8.0+commit.c7dfd78e.Emscripten.clang"
  },
  "schemaVersion": "3.4.1",
  "updatedAt": "2021-09-26T23:43:33.404Z",
  "networkType": "ethereum",
  "devdoc": {
    "kind": "dev",
    "methods": {
      "owner()": {
        "details": "Returns the address of the current owner."
      },
      "renounceOwnership()": {
        "details": "Leaves the contract without owner. It will not be possible to call `onlyOwner` functions anymore. Can only be called by the current owner. NOTE: Renouncing ownership will leave the contract without an owner, thereby removing any functionality that is only available to the owner."
      },
      "transferOwnership(address)": {
        "details": "Transfers ownership of the contract to a new account (`newOwner`). Can only be called by the current owner."
      }
    },
    "version": 1
  },
  "userdoc": {
    "kind": "user",
    "methods": {},
    "version": 1
  }
}