{
  "contractName": "DocumentContract",
  "abi": [
    {
      "anonymous": false,
      "inputs": [
        {
          "indexed": false,
          "internalType": "uint256",
          "name": "_timestamp",
          "type": "uint256"
        },
        {
          "indexed": false,
          "internalType": "string",
          "name": "_company",
          "type": "string"
        },
        {
          "indexed": false,
          "internalType": "uint16",
          "name": "_year",
          "type": "uint16"
        },
        {
          "indexed": false,
          "internalType": "bytes32",
          "name": "_documentHash",
          "type": "bytes32"
        }
      ],
      "name": "DocumentUploaded",
      "type": "event"
    },
    {
      "anonymous": false,
      "inputs": [
        {
          "indexed": true,
          "internalType": "address",
          "name": "previousOwner",
          "type": "address"
        },
        {
          "indexed": true,
          "internalType": "address",
          "name": "newOwner",
          "type": "address"
        }
      ],
      "name": "OwnershipTransferred",
      "type": "event"
    },
    {
      "inputs": [],
      "name": "hashFunction",
      "outputs": [
        {
          "internalType": "uint8",
          "name": "",
          "type": "uint8"
        }
      ],
      "stateMutability": "view",
      "type": "function",
      "constant": true
    },
    {
      "inputs": [],
      "name": "owner",
      "outputs": [
        {
          "internalType": "address",
          "name": "",
          "type": "address"
        }
      ],
      "stateMutability": "view",
      "type": "function",
      "constant": true
    },
    {
      "inputs": [],
      "name": "renounceOwnership",
      "outputs": [],
      "stateMutability": "nonpayable",
      "type": "function"
    },
    {
      "inputs": [],
      "name": "size",
      "outputs": [
        {
          "internalType": "uint8",
          "name": "",
          "type": "uint8"
        }
      ],
      "stateMutability": "view",
      "type": "function",
      "constant": true
    },
    {
      "inputs": [
        {
          "internalType": "address",
          "name": "newOwner",
          "type": "address"
        }
      ],
      "name": "transferOwnership",
      "outputs": [],
      "stateMutability": "nonpayable",
      "type": "function"
    },
    {
      "inputs": [
        {
          "internalType": "uint8",
          "name": "_hashFunction",
          "type": "uint8"
        },
        {
          "internalType": "uint8",
          "name": "_size",
          "type": "uint8"
        }
      ],
      "name": "setHashDetails",
      "outputs": [],
      "stateMutability": "nonpayable",
      "type": "function"
    },
    {
      "inputs": [
        {
          "internalType": "string",
          "name": "_company",
          "type": "string"
        },
        {
          "internalType": "uint256",
          "name": "_tokenID",
          "type": "uint256"
        },
        {
          "internalType": "bytes32",
          "name": "_prospectHash",
          "type": "bytes32"
        }
      ],
      "name": "storeProspectHash",
      "outputs": [],
      "stateMutability": "nonpayable",
      "type": "function"
    },
    {
      "inputs": [
        {
          "internalType": "string",
          "name": "_company",
          "type": "string"
        },
        {
          "internalType": "uint256",
          "name": "_tokenID",
          "type": "uint256"
        },
        {
          "internalType": "bytes32",
          "name": "_wibHash",
          "type": "bytes32"
        }
      ],
      "name": "storeWIBHash",
      "outputs": [],
      "stateMutability": "nonpayable",
      "type": "function"
    },
    {
      "inputs": [
        {
          "internalType": "string",
          "name": "_company",
          "type": "string"
        },
        {
          "internalType": "uint16",
          "name": "_year",
          "type": "uint16"
        },
        {
          "internalType": "bytes32",
          "name": "_documentHash",
          "type": "bytes32"
        }
      ],
      "name": "storeAnnualReporting",
      "outputs": [],
      "stateMutability": "nonpayable",
      "type": "function"
    },
    {
      "inputs": [
        {
          "internalType": "string",
          "name": "_company",
          "type": "string"
        },
        {
          "internalType": "uint256",
          "name": "_tokenID",
          "type": "uint256"
        }
      ],
      "name": "retreiveProspect",
      "outputs": [
        {
          "internalType": "uint8",
          "name": "",
          "type": "uint8"
        },
        {
          "internalType": "uint8",
          "name": "",
          "type": "uint8"
        },
        {
          "internalType": "bytes32",
          "name": "",
          "type": "bytes32"
        }
      ],
      "stateMutability": "view",
      "type": "function",
      "constant": true
    },
    {
      "inputs": [
        {
          "internalType": "string",
          "name": "_company",
          "type": "string"
        },
        {
          "internalType": "uint256",
          "name": "_tokenID",
          "type": "uint256"
        }
      ],
      "name": "retreiveWIB",
      "outputs": [
        {
          "internalType": "uint8",
          "name": "",
          "type": "uint8"
        },
        {
          "internalType": "uint8",
          "name": "",
          "type": "uint8"
        },
        {
          "internalType": "bytes32",
          "name": "",
          "type": "bytes32"
        }
      ],
      "stateMutability": "view",
      "type": "function",
      "constant": true
    },
    {
      "inputs": [
        {
          "internalType": "string",
          "name": "_company",
          "type": "string"
        },
        {
          "internalType": "uint16",
          "name": "_year",
          "type": "uint16"
        }
      ],
      "name": "retreiveReportingDocuments",
      "outputs": [
        {
          "internalType": "uint8",
          "name": "",
          "type": "uint8"
        },
        {
          "internalType": "uint8",
          "name": "",
          "type": "uint8"
        },
        {
          "internalType": "bytes32",
          "name": "",
          "type": "bytes32"
        }
      ],
      "stateMutability": "view",
      "type": "function",
      "constant": true
    }
  ],
  "bytecode": "0x608060405234801561001057600080fd5b5061002d61002261003260201b60201c565b61003a60201b60201c565b6100fe565b600033905090565b60008060009054906101000a900473ffffffffffffffffffffffffffffffffffffffff169050816000806101000a81548173ffffffffffffffffffffffffffffffffffffffff021916908373ffffffffffffffffffffffffffffffffffffffff1602179055508173ffffffffffffffffffffffffffffffffffffffff168173ffffffffffffffffffffffffffffffffffffffff167f8be0079c531659141344cd1fd0a4f28419497f9722a3daafe3b4186f6b6457e060405160405180910390a35050565b6110688061010d6000396000f3fe608060405234801561001057600080fd5b50600436106100b45760003560e01c80638e181a56116100715780638e181a561461017f578063949d225d1461019b578063a55f8b82146101b9578063cc8ede59146101d5578063d9d1f7fb14610207578063f2fde38b14610223576100b4565b806302dccfbe146100b957806323c44b2c146100eb5780634800235f1461011d5780635e8f108414610139578063715018a6146101575780638da5cb5b14610161575b600080fd5b6100d360048036038101906100ce9190610af2565b61023f565b6040516100e293929190610e1d565b60405180910390f35b61010560048036038101906101009190610a37565b6102a6565b60405161011493929190610e1d565b60405180910390f35b61013760048036038101906101329190610bad565b610312565b005b6101416103c8565b60405161014e9190610e02565b60405180910390f35b61015f6103db565b005b610169610463565b6040516101769190610d5b565b60405180910390f35b61019960048036038101906101949190610b46565b61048c565b005b6101a3610547565b6040516101b09190610e02565b60405180910390f35b6101d360048036038101906101ce9190610a8b565b61055a565b005b6101ef60048036038101906101ea9190610af2565b610657565b6040516101fe93929190610e1d565b60405180910390f35b610221600480360381019061021c9190610b46565b6106be565b005b61023d60048036038101906102389190610a0e565b610779565b005b60008060008060149054906101000a900460ff16600060159054906101000a900460ff166001876040516102739190610d44565b90815260200160405180910390206000016000878152602001908152602001600020600001549250925092509250925092565b60008060008060149054906101000a900460ff16600060159054906101000a900460ff166001876040516102da9190610d44565b908152602001604051809103902060010160008761ffff1661ffff168152602001908152602001600020549250925092509250925092565b61031a610871565b73ffffffffffffffffffffffffffffffffffffffff16610338610463565b73ffffffffffffffffffffffffffffffffffffffff161461038e576040517f08c379a000000000000000000000000000000000000000000000000000000000815260040161038590610d96565b60405180910390fd5b81600060146101000a81548160ff021916908360ff16021790555080600060156101000a81548160ff021916908360ff1602179055505050565b600060149054906101000a900460ff1681565b6103e3610871565b73ffffffffffffffffffffffffffffffffffffffff16610401610463565b73ffffffffffffffffffffffffffffffffffffffff1614610457576040517f08c379a000000000000000000000000000000000000000000000000000000000815260040161044e90610d96565b60405180910390fd5b6104616000610879565b565b60008060009054906101000a900473ffffffffffffffffffffffffffffffffffffffff16905090565b610494610871565b73ffffffffffffffffffffffffffffffffffffffff166104b2610463565b73ffffffffffffffffffffffffffffffffffffffff1614610508576040517f08c379a00000000000000000000000000000000000000000000000000000000081526004016104ff90610d96565b60405180910390fd5b806001846040516105199190610d44565b9081526020016040518091039020600001600084815260200190815260200160002060010181905550505050565b600060159054906101000a900460ff1681565b610562610871565b73ffffffffffffffffffffffffffffffffffffffff16610580610463565b73ffffffffffffffffffffffffffffffffffffffff16146105d6576040517f08c379a00000000000000000000000000000000000000000000000000000000081526004016105cd90610d96565b60405180910390fd5b806001846040516105e79190610d44565b908152602001604051809103902060010160008461ffff1661ffff168152602001908152602001600020819055507fb2c2782bac3d4c723f0a2a36221139edd117faea491180c94baa62bf965f91214284848460405161064a9493929190610db6565b60405180910390a1505050565b60008060008060149054906101000a900460ff16600060159054906101000a900460ff1660018760405161068b9190610d44565b90815260200160405180910390206000016000878152602001908152602001600020600101549250925092509250925092565b6106c6610871565b73ffffffffffffffffffffffffffffffffffffffff166106e4610463565b73ffffffffffffffffffffffffffffffffffffffff161461073a576040517f08c379a000000000000000000000000000000000000000000000000000000000815260040161073190610d96565b60405180910390fd5b8060018460405161074b9190610d44565b9081526020016040518091039020600001600084815260200190815260200160002060000181905550505050565b610781610871565b73ffffffffffffffffffffffffffffffffffffffff1661079f610463565b73ffffffffffffffffffffffffffffffffffffffff16146107f5576040517f08c379a00000000000000000000000000000000000000000000000000000000081526004016107ec90610d96565b60405180910390fd5b600073ffffffffffffffffffffffffffffffffffffffff168173ffffffffffffffffffffffffffffffffffffffff161415610865576040517f08c379a000000000000000000000000000000000000000000000000000000000815260040161085c90610d76565b60405180910390fd5b61086e81610879565b50565b600033905090565b60008060009054906101000a900473ffffffffffffffffffffffffffffffffffffffff169050816000806101000a81548173ffffffffffffffffffffffffffffffffffffffff021916908373ffffffffffffffffffffffffffffffffffffffff1602179055508173ffffffffffffffffffffffffffffffffffffffff168173ffffffffffffffffffffffffffffffffffffffff167f8be0079c531659141344cd1fd0a4f28419497f9722a3daafe3b4186f6b6457e060405160405180910390a35050565b600061095061094b84610e85565b610e54565b90508281526020810184848401111561096857600080fd5b610973848285610f3d565b509392505050565b60008135905061098a81610fbf565b92915050565b60008135905061099f81610fd6565b92915050565b600082601f8301126109b657600080fd5b81356109c684826020860161093d565b91505092915050565b6000813590506109de81610fed565b92915050565b6000813590506109f381611004565b92915050565b600081359050610a088161101b565b92915050565b600060208284031215610a2057600080fd5b6000610a2e8482850161097b565b91505092915050565b60008060408385031215610a4a57600080fd5b600083013567ffffffffffffffff811115610a6457600080fd5b610a70858286016109a5565b9250506020610a81858286016109cf565b9150509250929050565b600080600060608486031215610aa057600080fd5b600084013567ffffffffffffffff811115610aba57600080fd5b610ac6868287016109a5565b9350506020610ad7868287016109cf565b9250506040610ae886828701610990565b9150509250925092565b60008060408385031215610b0557600080fd5b600083013567ffffffffffffffff811115610b1f57600080fd5b610b2b858286016109a5565b9250506020610b3c858286016109e4565b9150509250929050565b600080600060608486031215610b5b57600080fd5b600084013567ffffffffffffffff811115610b7557600080fd5b610b81868287016109a5565b9350506020610b92868287016109e4565b9250506040610ba386828701610990565b9150509250925092565b60008060408385031215610bc057600080fd5b6000610bce858286016109f9565b9250506020610bdf858286016109f9565b9150509250929050565b610bf281610edc565b82525050565b610c0181610eee565b82525050565b6000610c1282610eb5565b610c1c8185610ec0565b9350610c2c818560208601610f4c565b610c3581610fae565b840191505092915050565b6000610c4b82610eb5565b610c558185610ed1565b9350610c65818560208601610f4c565b80840191505092915050565b6000610c7e602683610ec0565b91507f4f776e61626c653a206e6577206f776e657220697320746865207a65726f206160008301527f64647265737300000000000000000000000000000000000000000000000000006020830152604082019050919050565b6000610ce4602083610ec0565b91507f4f776e61626c653a2063616c6c6572206973206e6f7420746865206f776e65726000830152602082019050919050565b610d2081610ef8565b82525050565b610d2f81610f26565b82525050565b610d3e81610f30565b82525050565b6000610d508284610c40565b915081905092915050565b6000602082019050610d706000830184610be9565b92915050565b60006020820190508181036000830152610d8f81610c71565b9050919050565b60006020820190508181036000830152610daf81610cd7565b9050919050565b6000608082019050610dcb6000830187610d26565b8181036020830152610ddd8186610c07565b9050610dec6040830185610d17565b610df96060830184610bf8565b95945050505050565b6000602082019050610e176000830184610d35565b92915050565b6000606082019050610e326000830186610d35565b610e3f6020830185610d35565b610e4c6040830184610bf8565b949350505050565b6000604051905081810181811067ffffffffffffffff82111715610e7b57610e7a610f7f565b5b8060405250919050565b600067ffffffffffffffff821115610ea057610e9f610f7f565b5b601f19601f8301169050602081019050919050565b600081519050919050565b600082825260208201905092915050565b600081905092915050565b6000610ee782610f06565b9050919050565b6000819050919050565b600061ffff82169050919050565b600073ffffffffffffffffffffffffffffffffffffffff82169050919050565b6000819050919050565b600060ff82169050919050565b82818337600083830152505050565b60005b83811015610f6a578082015181840152602081019050610f4f565b83811115610f79576000848401525b50505050565b7f4e487b7100000000000000000000000000000000000000000000000000000000600052604160045260246000fd5b6000601f19601f8301169050919050565b610fc881610edc565b8114610fd357600080fd5b50565b610fdf81610eee565b8114610fea57600080fd5b50565b610ff681610ef8565b811461100157600080fd5b50565b61100d81610f26565b811461101857600080fd5b50565b61102481610f30565b811461102f57600080fd5b5056fea26469706673582212209407c132005a54c6603375ddc17ea5338973657151d0850f50e9f271f672a18364736f6c63430008000033",
  "immutableReferences": {},
  "source": "// SPDX-License-Identifier: UNLICENSED\n\npragma solidity ^0.8.0;\n\nimport \"./@openzeppelin/contracts/access/Ownable.sol\";\nimport \"./BondToken.sol\";\n\ncontract DocumentContract is Ownable {\n    \n    // Events\n    \n    event DocumentUploaded(uint _timestamp, string _company, uint16 _year, bytes32 _documentHash);\n    \n    // Infura.io IPFS\n    \n    // Documents will be uploaded via an react js application to infura.io\n    // They can be accessed either manually with an internal function to retreive the hash or via a web-interface\n    \n    // Alphanumeric identifier of an IPFS Hash can be expressed as hexadecimal, which is 34 bytes (68 characters)\n    // First two bytes indicate the hash function being used and the size\n    // IPFS-Hash then should be stored without these to fit the bytes32\n    \n    uint8 public hashFunction;  // First byte (2 characters) - 0x12 is sha2 & 0x20 is sha256 for example (\"12\" or \"20\" would then be stored)\n    uint8 public size;          // Second byte (2 characters) \n    \n    \n    mapping (string => CompanyDocuments) ipfsHashes;\n        \n    struct CompanyDocuments {\n        mapping(uint => SecuritiesInformation) securitiesInformation;\n        mapping(uint16 => bytes32) annualReporting;\n    }\n    \n    struct SecuritiesInformation {\n        bytes32 prospectHash;\n        bytes32 wibHash;\n    }\n    \n    function setHashDetails(\n        uint8 _hashFunction,\n        uint8 _size)\n        public\n        onlyOwner\n        {\n        hashFunction = _hashFunction;\n        size = _size;\n    }\n    \n    // Functions for storing IPFS hashes\n    \n    function storeProspectHash(\n        string memory _company,\n        uint _tokenID,\n        bytes32 _prospectHash)\n        public\n        onlyOwner\n        {\n        ipfsHashes[_company].securitiesInformation[_tokenID].prospectHash = _prospectHash;   \n    }\n    \n    function storeWIBHash(\n        string memory _company,\n        uint _tokenID,\n        bytes32 _wibHash)\n        public\n        onlyOwner\n        {\n        ipfsHashes[_company].securitiesInformation[_tokenID].wibHash = _wibHash;   \n    }\n    \n    function storeAnnualReporting(\n        string memory _company,\n        uint16 _year,\n        bytes32 _documentHash)\n        external\n        onlyOwner\n        {\n        ipfsHashes[_company].annualReporting[_year] = _documentHash;\n        emit DocumentUploaded(block.timestamp, _company, _year, _documentHash);\n    }\n    \n    // Functions for external access\n    \n    function retreiveProspect(\n        string memory _company,\n        uint _tokenID)\n        public\n        view\n        returns (uint8, uint8, bytes32)\n        {\n        return (hashFunction, size, ipfsHashes[_company].securitiesInformation[_tokenID].prospectHash);    \n    }\n    \n    function retreiveWIB(\n        string memory _company,\n        uint _tokenID)\n        public\n        view\n        returns (uint8, uint8, bytes32)\n        {\n        return (hashFunction, size, ipfsHashes[_company].securitiesInformation[_tokenID].wibHash);    \n    }\n    \n    function retreiveReportingDocuments(\n        string memory _company,\n        uint16 _year)\n        public\n        view\n        returns (uint8, uint8, bytes32)\n        {\n        return (hashFunction, size, ipfsHashes[_company].annualReporting[_year]);\n    }\n\n}",
  "sourcePath": "/Users/David/Universitat Bayreuth/Master/Masterarbeit/TruffleEnvironment/contracts/Documents.sol",
  "compiler": {
    "name": "solc",
    "version": "0.8.0+commit.c7dfd78e.Emscripten.clang"
  },
  "schemaVersion": "3.4.1",
  "updatedAt": "2021-09-26T23:43:34.993Z",
  "networkType": "ethereum",
  "devdoc": {
    "kind": "dev",
    "methods": {
      "owner()": {
        "details": "Returns the address of the current owner."
      },
      "renounceOwnership()": {
        "details": "Leaves the contract without owner. It will not be possible to call `onlyOwner` functions anymore. Can only be called by the current owner. NOTE: Renouncing ownership will leave the contract without an owner, thereby removing any functionality that is only available to the owner."
      },
      "transferOwnership(address)": {
        "details": "Transfers ownership of the contract to a new account (`newOwner`). Can only be called by the current owner."
      }
    },
    "version": 1
  },
  "userdoc": {
    "kind": "user",
    "methods": {},
    "version": 1
  }
}