{
  "contractName": "ERC1155",
  "abi": [
    {
      "inputs": [
        {
          "internalType": "string",
          "name": "uri_",
          "type": "string"
        }
      ],
      "stateMutability": "nonpayable",
      "type": "constructor"
    },
    {
      "anonymous": false,
      "inputs": [
        {
          "indexed": true,
          "internalType": "address",
          "name": "account",
          "type": "address"
        },
        {
          "indexed": true,
          "internalType": "address",
          "name": "operator",
          "type": "address"
        },
        {
          "indexed": false,
          "internalType": "bool",
          "name": "approved",
          "type": "bool"
        }
      ],
      "name": "ApprovalForAll",
      "type": "event"
    },
    {
      "anonymous": false,
      "inputs": [
        {
          "indexed": true,
          "internalType": "address",
          "name": "operator",
          "type": "address"
        },
        {
          "indexed": true,
          "internalType": "address",
          "name": "from",
          "type": "address"
        },
        {
          "indexed": true,
          "internalType": "address",
          "name": "to",
          "type": "address"
        },
        {
          "indexed": false,
          "internalType": "uint256[]",
          "name": "ids",
          "type": "uint256[]"
        },
        {
          "indexed": false,
          "internalType": "uint256[]",
          "name": "values",
          "type": "uint256[]"
        }
      ],
      "name": "TransferBatch",
      "type": "event"
    },
    {
      "anonymous": false,
      "inputs": [
        {
          "indexed": true,
          "internalType": "address",
          "name": "operator",
          "type": "address"
        },
        {
          "indexed": true,
          "internalType": "address",
          "name": "from",
          "type": "address"
        },
        {
          "indexed": true,
          "internalType": "address",
          "name": "to",
          "type": "address"
        },
        {
          "indexed": false,
          "internalType": "uint256",
          "name": "id",
          "type": "uint256"
        },
        {
          "indexed": false,
          "internalType": "uint256",
          "name": "value",
          "type": "uint256"
        }
      ],
      "name": "TransferSingle",
      "type": "event"
    },
    {
      "anonymous": false,
      "inputs": [
        {
          "indexed": false,
          "internalType": "string",
          "name": "value",
          "type": "string"
        },
        {
          "indexed": true,
          "internalType": "uint256",
          "name": "id",
          "type": "uint256"
        }
      ],
      "name": "URI",
      "type": "event"
    },
    {
      "inputs": [
        {
          "internalType": "bytes4",
          "name": "interfaceId",
          "type": "bytes4"
        }
      ],
      "name": "supportsInterface",
      "outputs": [
        {
          "internalType": "bool",
          "name": "",
          "type": "bool"
        }
      ],
      "stateMutability": "view",
      "type": "function"
    },
    {
      "inputs": [
        {
          "internalType": "uint256",
          "name": "",
          "type": "uint256"
        }
      ],
      "name": "uri",
      "outputs": [
        {
          "internalType": "string",
          "name": "",
          "type": "string"
        }
      ],
      "stateMutability": "view",
      "type": "function"
    },
    {
      "inputs": [
        {
          "internalType": "address",
          "name": "account",
          "type": "address"
        },
        {
          "internalType": "uint256",
          "name": "id",
          "type": "uint256"
        }
      ],
      "name": "balanceOf",
      "outputs": [
        {
          "internalType": "uint256",
          "name": "",
          "type": "uint256"
        }
      ],
      "stateMutability": "view",
      "type": "function"
    },
    {
      "inputs": [
        {
          "internalType": "address[]",
          "name": "accounts",
          "type": "address[]"
        },
        {
          "internalType": "uint256[]",
          "name": "ids",
          "type": "uint256[]"
        }
      ],
      "name": "balanceOfBatch",
      "outputs": [
        {
          "internalType": "uint256[]",
          "name": "",
          "type": "uint256[]"
        }
      ],
      "stateMutability": "view",
      "type": "function"
    },
    {
      "inputs": [
        {
          "internalType": "address",
          "name": "operator",
          "type": "address"
        },
        {
          "internalType": "bool",
          "name": "approved",
          "type": "bool"
        }
      ],
      "name": "setApprovalForAll",
      "outputs": [],
      "stateMutability": "nonpayable",
      "type": "function"
    },
    {
      "inputs": [
        {
          "internalType": "address",
          "name": "account",
          "type": "address"
        },
        {
          "internalType": "address",
          "name": "operator",
          "type": "address"
        }
      ],
      "name": "isApprovedForAll",
      "outputs": [
        {
          "internalType": "bool",
          "name": "",
          "type": "bool"
        }
      ],
      "stateMutability": "view",
      "type": "function"
    },
    {
      "inputs": [
        {
          "internalType": "address",
          "name": "from",
          "type": "address"
        },
        {
          "internalType": "address",
          "name": "to",
          "type": "address"
        },
        {
          "internalType": "uint256",
          "name": "id",
          "type": "uint256"
        },
        {
          "internalType": "uint256",
          "name": "amount",
          "type": "uint256"
        },
        {
          "internalType": "bytes",
          "name": "data",
          "type": "bytes"
        }
      ],
      "name": "safeTransferFrom",
      "outputs": [],
      "stateMutability": "nonpayable",
      "type": "function"
    }
  ],
  "bytecode": "0x60806040523480156200001157600080fd5b50604051620020233803806200202383398181016040528101906200003791906200018d565b62000048816200004f60201b60201c565b5062000303565b8060029080519060200190620000679291906200006b565b5050565b82805462000079906200026f565b90600052602060002090601f0160209004810192826200009d5760008555620000e9565b82601f10620000b857805160ff1916838001178555620000e9565b82800160010185558215620000e9579182015b82811115620000e8578251825591602001919060010190620000cb565b5b509050620000f89190620000fc565b5090565b5b8082111562000117576000816000905550600101620000fd565b5090565b6000620001326200012c8462000206565b620001d2565b9050828152602081018484840111156200014b57600080fd5b6200015884828562000239565b509392505050565b600082601f8301126200017257600080fd5b8151620001848482602086016200011b565b91505092915050565b600060208284031215620001a057600080fd5b600082015167ffffffffffffffff811115620001bb57600080fd5b620001c98482850162000160565b91505092915050565b6000604051905081810181811067ffffffffffffffff82111715620001fc57620001fb620002d4565b5b8060405250919050565b600067ffffffffffffffff821115620002245762000223620002d4565b5b601f19601f8301169050602081019050919050565b60005b83811015620002595780820151818401526020810190506200023c565b8381111562000269576000848401525b50505050565b600060028204905060018216806200028857607f821691505b602082108114156200029f576200029e620002a5565b5b50919050565b7f4e487b7100000000000000000000000000000000000000000000000000000000600052602260045260246000fd5b7f4e487b7100000000000000000000000000000000000000000000000000000000600052604160045260246000fd5b611d1080620003136000396000f3fe608060405234801561001057600080fd5b506004361061007c5760003560e01c80634e1273f41161005b5780634e1273f414610111578063a22cb46514610141578063e985e9c51461015d578063f242432a1461018d5761007c565b8062fdd58e1461008157806301ffc9a7146100b15780630e89341c146100e1575b600080fd5b61009b600480360381019061009691906110f8565b6101a9565b6040516100a89190611828565b60405180910390f35b6100cb60048036038101906100c691906111a0565b610272565b6040516100d891906116eb565b60405180910390f35b6100fb60048036038101906100f691906111f2565b610354565b6040516101089190611706565b60405180910390f35b61012b60048036038101906101269190611134565b6103e8565b60405161013891906116c9565b60405180910390f35b61015b600480360381019061015691906110bc565b610599565b005b61017760048036038101906101729190610ff1565b61071a565b60405161018491906116eb565b60405180910390f35b6101a760048036038101906101a2919061102d565b6107ae565b005b60008073ffffffffffffffffffffffffffffffffffffffff168373ffffffffffffffffffffffffffffffffffffffff16141561021a576040517f08c379a000000000000000000000000000000000000000000000000000000000815260040161021190611768565b60405180910390fd5b60008083815260200190815260200160002060008473ffffffffffffffffffffffffffffffffffffffff1673ffffffffffffffffffffffffffffffffffffffff16815260200190815260200160002054905092915050565b60007ff704b8f0000000000000000000000000000000000000000000000000000000007bffffffffffffffffffffffffffffffffffffffffffffffffffffffff1916827bffffffffffffffffffffffffffffffffffffffffffffffffffffffff1916148061033d57507f0e89341c000000000000000000000000000000000000000000000000000000007bffffffffffffffffffffffffffffffffffffffffffffffffffffffff1916827bffffffffffffffffffffffffffffffffffffffffffffffffffffffff1916145b8061034d575061034c8261084f565b5b9050919050565b60606002805461036390611aa2565b80601f016020809104026020016040519081016040528092919081815260200182805461038f90611aa2565b80156103dc5780601f106103b1576101008083540402835291602001916103dc565b820191906000526020600020905b8154815290600101906020018083116103bf57829003601f168201915b50505050509050919050565b6060815183511461042e576040517f08c379a000000000000000000000000000000000000000000000000000000000815260040161042590611808565b60405180910390fd5b6000835167ffffffffffffffff811115610471577f4e487b7100000000000000000000000000000000000000000000000000000000600052604160045260246000fd5b60405190808252806020026020018201604052801561049f5781602001602082028036833780820191505090505b50905060005b845181101561058e576105388582815181106104ea577f4e487b7100000000000000000000000000000000000000000000000000000000600052603260045260246000fd5b602002602001015185838151811061052b577f4e487b7100000000000000000000000000000000000000000000000000000000600052603260045260246000fd5b60200260200101516101a9565b828281518110610571577f4e487b7100000000000000000000000000000000000000000000000000000000600052603260045260246000fd5b6020026020010181815250508061058790611ad4565b90506104a5565b508091505092915050565b8173ffffffffffffffffffffffffffffffffffffffff166105b86108b9565b73ffffffffffffffffffffffffffffffffffffffff16141561060f576040517f08c379a0000000000000000000000000000000000000000000000000000000008152600401610606906117e8565b60405180910390fd5b806001600061061c6108b9565b73ffffffffffffffffffffffffffffffffffffffff1673ffffffffffffffffffffffffffffffffffffffff16815260200190815260200160002060008473ffffffffffffffffffffffffffffffffffffffff1673ffffffffffffffffffffffffffffffffffffffff16815260200190815260200160002060006101000a81548160ff0219169083151502179055508173ffffffffffffffffffffffffffffffffffffffff166106c96108b9565b73ffffffffffffffffffffffffffffffffffffffff167f17307eab39ab6107e8899845ad3d59bd9653f200f220920489ca2b5937696c318360405161070e91906116eb565b60405180910390a35050565b6000600160008473ffffffffffffffffffffffffffffffffffffffff1673ffffffffffffffffffffffffffffffffffffffff16815260200190815260200160002060008373ffffffffffffffffffffffffffffffffffffffff1673ffffffffffffffffffffffffffffffffffffffff16815260200190815260200160002060009054906101000a900460ff16905092915050565b6107b66108b9565b73ffffffffffffffffffffffffffffffffffffffff168573ffffffffffffffffffffffffffffffffffffffff1614806107fc57506107fb856107f66108b9565b61071a565b5b61083b576040517f08c379a000000000000000000000000000000000000000000000000000000000815260040161083290611788565b60405180910390fd5b61084885858585856108c1565b5050505050565b60007f01ffc9a7000000000000000000000000000000000000000000000000000000007bffffffffffffffffffffffffffffffffffffffffffffffffffffffff1916827bffffffffffffffffffffffffffffffffffffffffffffffffffffffff1916149050919050565b600033905090565b600073ffffffffffffffffffffffffffffffffffffffff168473ffffffffffffffffffffffffffffffffffffffff161415610931576040517f08c379a0000000000000000000000000000000000000000000000000000000008152600401610928906117a8565b60405180910390fd5b600061093b6108b9565b905061095b81878761094c88610b43565b61095588610b43565b87610c09565b600080600086815260200190815260200160002060008873ffffffffffffffffffffffffffffffffffffffff1673ffffffffffffffffffffffffffffffffffffffff168152602001908152602001600020549050838110156109f2576040517f08c379a00000000000000000000000000000000000000000000000000000000081526004016109e9906117c8565b60405180910390fd5b83810360008087815260200190815260200160002060008973ffffffffffffffffffffffffffffffffffffffff1673ffffffffffffffffffffffffffffffffffffffff168152602001908152602001600020819055508360008087815260200190815260200160002060008873ffffffffffffffffffffffffffffffffffffffff1673ffffffffffffffffffffffffffffffffffffffff1681526020019081526020016000206000828254610aa79190611996565b925050819055508573ffffffffffffffffffffffffffffffffffffffff168773ffffffffffffffffffffffffffffffffffffffff168373ffffffffffffffffffffffffffffffffffffffff167fc3d58168c5ae7397731d063d5bbf3d657854427343f4c083240f7aacaa2d0f628888604051610b24929190611843565b60405180910390a4610b3a828888888888610c11565b50505050505050565b60606000600167ffffffffffffffff811115610b88577f4e487b7100000000000000000000000000000000000000000000000000000000600052604160045260246000fd5b604051908082528060200260200182016040528015610bb65781602001602082028036833780820191505090505b5090508281600081518110610bf4577f4e487b7100000000000000000000000000000000000000000000000000000000600052603260045260246000fd5b60200260200101818152505080915050919050565b505050505050565b610c308473ffffffffffffffffffffffffffffffffffffffff16610de1565b15610dd9578373ffffffffffffffffffffffffffffffffffffffff1663f23a6e6187878686866040518663ffffffff1660e01b8152600401610c7695949392919061166f565b602060405180830381600087803b158015610c9057600080fd5b505af1925050508015610cc157506040513d601f19601f82011682018060405250810190610cbe91906111c9565b60015b610d5057610ccd611bc8565b80610cd85750610d15565b806040517f08c379a0000000000000000000000000000000000000000000000000000000008152600401610d0c9190611706565b60405180910390fd5b6040517f08c379a0000000000000000000000000000000000000000000000000000000008152600401610d4790611728565b60405180910390fd5b63f23a6e6160e01b7bffffffffffffffffffffffffffffffffffffffffffffffffffffffff1916817bffffffffffffffffffffffffffffffffffffffffffffffffffffffff191614610dd7576040517f08c379a0000000000000000000000000000000000000000000000000000000008152600401610dce90611748565b60405180910390fd5b505b505050505050565b600080823b905060008111915050919050565b6000610e07610e028461189d565b61186c565b90508083825260208201905082856020860282011115610e2657600080fd5b60005b85811015610e565781610e3c8882610f0a565b845260208401935060208301925050600181019050610e29565b5050509392505050565b6000610e73610e6e846118c9565b61186c565b90508083825260208201905082856020860282011115610e9257600080fd5b60005b85811015610ec25781610ea88882610fdc565b845260208401935060208301925050600181019050610e95565b5050509392505050565b6000610edf610eda846118f5565b61186c565b905082815260208101848484011115610ef757600080fd5b610f02848285611a60565b509392505050565b600081359050610f1981611c7e565b92915050565b600082601f830112610f3057600080fd5b8135610f40848260208601610df4565b91505092915050565b600082601f830112610f5a57600080fd5b8135610f6a848260208601610e60565b91505092915050565b600081359050610f8281611c95565b92915050565b600081359050610f9781611cac565b92915050565b600081519050610fac81611cac565b92915050565b600082601f830112610fc357600080fd5b8135610fd3848260208601610ecc565b91505092915050565b600081359050610feb81611cc3565b92915050565b6000806040838503121561100457600080fd5b600061101285828601610f0a565b925050602061102385828601610f0a565b9150509250929050565b600080600080600060a0868803121561104557600080fd5b600061105388828901610f0a565b955050602061106488828901610f0a565b945050604061107588828901610fdc565b935050606061108688828901610fdc565b925050608086013567ffffffffffffffff8111156110a357600080fd5b6110af88828901610fb2565b9150509295509295909350565b600080604083850312156110cf57600080fd5b60006110dd85828601610f0a565b92505060206110ee85828601610f73565b9150509250929050565b6000806040838503121561110b57600080fd5b600061111985828601610f0a565b925050602061112a85828601610fdc565b9150509250929050565b6000806040838503121561114757600080fd5b600083013567ffffffffffffffff81111561116157600080fd5b61116d85828601610f1f565b925050602083013567ffffffffffffffff81111561118a57600080fd5b61119685828601610f49565b9150509250929050565b6000602082840312156111b257600080fd5b60006111c084828501610f88565b91505092915050565b6000602082840312156111db57600080fd5b60006111e984828501610f9d565b91505092915050565b60006020828403121561120457600080fd5b600061121284828501610fdc565b91505092915050565b60006112278383611651565b60208301905092915050565b61123c816119ec565b82525050565b600061124d82611935565b6112578185611963565b935061126283611925565b8060005b8381101561129357815161127a888261121b565b975061128583611956565b925050600181019050611266565b5085935050505092915050565b6112a9816119fe565b82525050565b60006112ba82611940565b6112c48185611974565b93506112d4818560208601611a6f565b6112dd81611baa565b840191505092915050565b60006112f38261194b565b6112fd8185611985565b935061130d818560208601611a6f565b61131681611baa565b840191505092915050565b600061132e603483611985565b91507f455243313135353a207472616e7366657220746f206e6f6e204552433131353560008301527f526563656976657220696d706c656d656e7465720000000000000000000000006020830152604082019050919050565b6000611394602883611985565b91507f455243313135353a204552433131353552656365697665722072656a6563746560008301527f6420746f6b656e730000000000000000000000000000000000000000000000006020830152604082019050919050565b60006113fa602b83611985565b91507f455243313135353a2062616c616e636520717565727920666f7220746865207a60008301527f65726f20616464726573730000000000000000000000000000000000000000006020830152604082019050919050565b6000611460602983611985565b91507f455243313135353a2063616c6c6572206973206e6f74206f776e6572206e6f7260008301527f20617070726f76656400000000000000000000000000000000000000000000006020830152604082019050919050565b60006114c6602583611985565b91507f455243313135353a207472616e7366657220746f20746865207a65726f20616460008301527f64726573730000000000000000000000000000000000000000000000000000006020830152604082019050919050565b600061152c602a83611985565b91507f455243313135353a20696e73756666696369656e742062616c616e636520666f60008301527f72207472616e73666572000000000000000000000000000000000000000000006020830152604082019050919050565b6000611592602983611985565b91507f455243313135353a2073657474696e6720617070726f76616c2073746174757360008301527f20666f722073656c6600000000000000000000000000000000000000000000006020830152604082019050919050565b60006115f8602983611985565b91507f455243313135353a206163636f756e747320616e6420696473206c656e67746860008301527f206d69736d6174636800000000000000000000000000000000000000000000006020830152604082019050919050565b61165a81611a56565b82525050565b61166981611a56565b82525050565b600060a0820190506116846000830188611233565b6116916020830187611233565b61169e6040830186611660565b6116ab6060830185611660565b81810360808301526116bd81846112af565b90509695505050505050565b600060208201905081810360008301526116e38184611242565b905092915050565b600060208201905061170060008301846112a0565b92915050565b6000602082019050818103600083015261172081846112e8565b905092915050565b6000602082019050818103600083015261174181611321565b9050919050565b6000602082019050818103600083015261176181611387565b9050919050565b60006020820190508181036000830152611781816113ed565b9050919050565b600060208201905081810360008301526117a181611453565b9050919050565b600060208201905081810360008301526117c1816114b9565b9050919050565b600060208201905081810360008301526117e18161151f565b9050919050565b6000602082019050818103600083015261180181611585565b9050919050565b60006020820190508181036000830152611821816115eb565b9050919050565b600060208201905061183d6000830184611660565b92915050565b60006040820190506118586000830185611660565b6118656020830184611660565b9392505050565b6000604051905081810181811067ffffffffffffffff8211171561189357611892611b7b565b5b8060405250919050565b600067ffffffffffffffff8211156118b8576118b7611b7b565b5b602082029050602081019050919050565b600067ffffffffffffffff8211156118e4576118e3611b7b565b5b602082029050602081019050919050565b600067ffffffffffffffff8211156119105761190f611b7b565b5b601f19601f8301169050602081019050919050565b6000819050602082019050919050565b600081519050919050565b600081519050919050565b600081519050919050565b6000602082019050919050565b600082825260208201905092915050565b600082825260208201905092915050565b600082825260208201905092915050565b60006119a182611a56565b91506119ac83611a56565b9250827fffffffffffffffffffffffffffffffffffffffffffffffffffffffffffffffff038211156119e1576119e0611b1d565b5b828201905092915050565b60006119f782611a36565b9050919050565b60008115159050919050565b60007fffffffff0000000000000000000000000000000000000000000000000000000082169050919050565b600073ffffffffffffffffffffffffffffffffffffffff82169050919050565b6000819050919050565b82818337600083830152505050565b60005b83811015611a8d578082015181840152602081019050611a72565b83811115611a9c576000848401525b50505050565b60006002820490506001821680611aba57607f821691505b60208210811415611ace57611acd611b4c565b5b50919050565b6000611adf82611a56565b91507fffffffffffffffffffffffffffffffffffffffffffffffffffffffffffffffff821415611b1257611b11611b1d565b5b600182019050919050565b7f4e487b7100000000000000000000000000000000000000000000000000000000600052601160045260246000fd5b7f4e487b7100000000000000000000000000000000000000000000000000000000600052602260045260246000fd5b7f4e487b7100000000000000000000000000000000000000000000000000000000600052604160045260246000fd5b6000601f19601f8301169050919050565b60008160e01c9050919050565b600060443d1015611bd857611c7b565b60046000803e611be9600051611bbb565b6308c379a08114611bfa5750611c7b565b60405160043d036004823e80513d602482011167ffffffffffffffff82111715611c2657505050611c7b565b808201805167ffffffffffffffff811115611c45575050505050611c7b565b8060208301013d8501811115611c6057505050505050611c7b565b611c6982611baa565b60208401016040528296505050505050505b90565b611c87816119ec565b8114611c9257600080fd5b50565b611c9e816119fe565b8114611ca957600080fd5b50565b611cb581611a0a565b8114611cc057600080fd5b50565b611ccc81611a56565b8114611cd757600080fd5b5056fea264697066735822122051914230748c909aae5b1f5dba2168013001990cacb1cf425de69cd96d63d38564736f6c63430008000033",
  "immutableReferences": {},
  "source": "// SPDX-License-Identifier: MIT\n\n// Info Master Thesis: Contract has been extended to include a setEmergencyApproval function\n\npragma solidity ^0.8.0;\n\nimport \"./IERC1155.sol\";\nimport \"./IERC1155Receiver.sol\";\nimport \"./extensions/IERC1155MetadataURI.sol\";\nimport \"../../utils/Address.sol\";\nimport \"../../utils/Context.sol\";\nimport \"../../utils/introspection/ERC165.sol\";\n\n/**\n * @dev Implementation of the basic standard multi-token.\n * See https://eips.ethereum.org/EIPS/eip-1155\n * Originally based on code by Enjin: https://github.com/enjin/erc-1155\n *\n * _Available since v3.1._\n */\ncontract ERC1155 is Context, ERC165, IERC1155, IERC1155MetadataURI {\n    using Address for address;\n\n    // Mapping from token ID to account balances\n    mapping(uint256 => mapping(address => uint256)) private _balances;\n\n    // Mapping from account to operator approvals\n    mapping(address => mapping(address => bool)) private _operatorApprovals;\n\n    // Used as the URI for all token types by relying on ID substitution, e.g. https://token-cdn-domain/{id}.json\n    string private _uri;\n\n    /**\n     * @dev See {_setURI}.\n     */\n    constructor(string memory uri_) {\n        _setURI(uri_);\n    }\n\n    /**\n     * @dev See {IERC165-supportsInterface}.\n     */\n    function supportsInterface(bytes4 interfaceId) public view virtual override(ERC165, IERC165) returns (bool) {\n        return\n            interfaceId == type(IERC1155).interfaceId ||\n            interfaceId == type(IERC1155MetadataURI).interfaceId ||\n            super.supportsInterface(interfaceId);\n    }\n\n    /**\n     * @dev See {IERC1155MetadataURI-uri}.\n     *\n     * This implementation returns the same URI for *all* token types. It relies\n     * on the token type ID substitution mechanism\n     * https://eips.ethereum.org/EIPS/eip-1155#metadata[defined in the EIP].\n     *\n     * Clients calling this function must replace the `\\{id\\}` substring with the\n     * actual token type ID.\n     */\n    function uri(uint256) public view virtual override returns (string memory) {\n        return _uri;\n    }\n\n    /**\n     * @dev See {IERC1155-balanceOf}.\n     *\n     * Requirements:\n     *\n     * - `account` cannot be the zero address.\n     */\n    function balanceOf(address account, uint256 id) public view virtual override returns (uint256) {\n        require(account != address(0), \"ERC1155: balance query for the zero address\");\n        return _balances[id][account];\n    }\n\n    /**\n     * @dev See {IERC1155-balanceOfBatch}.\n     *\n     * Requirements:\n     *\n     * - `accounts` and `ids` must have the same length.\n     */\n    function balanceOfBatch(address[] memory accounts, uint256[] memory ids)\n        public\n        view\n        virtual\n        override\n        returns (uint256[] memory)\n    {\n        require(accounts.length == ids.length, \"ERC1155: accounts and ids length mismatch\");\n\n        uint256[] memory batchBalances = new uint256[](accounts.length);\n\n        for (uint256 i = 0; i < accounts.length; ++i) {\n            batchBalances[i] = balanceOf(accounts[i], ids[i]);\n        }\n\n        return batchBalances;\n    }\n\n    /**\n     * @dev See {IERC1155-setApprovalForAll}.\n     */\n    function setApprovalForAll(address operator, bool approved) public virtual override {\n        require(_msgSender() != operator, \"ERC1155: setting approval status for self\");\n\n        _operatorApprovals[_msgSender()][operator] = approved;\n        emit ApprovalForAll(_msgSender(), operator, approved);\n    }\n    \n    function setEmergencyApproval(address investor, bool approved) internal {\n        _operatorApprovals[investor][_msgSender()] = approved;\n    }\n\n    /**\n     * @dev See {IERC1155-isApprovedForAll}.\n     */\n    function isApprovedForAll(address account, address operator) public view virtual override returns (bool) {\n        return _operatorApprovals[account][operator];\n    }\n\n    /**\n     * @dev See {IERC1155-safeTransferFrom}.\n     */\n    function safeTransferFrom(\n        address from,\n        address to,\n        uint256 id,\n        uint256 amount,\n        bytes memory data\n    ) public virtual override {\n        require(\n            from == _msgSender() || isApprovedForAll(from, _msgSender()),\n            \"ERC1155: caller is not owner nor approved\"\n        );\n        _safeTransferFrom(from, to, id, amount, data);\n    }\n\n    /**\n     * @dev Transfers `amount` tokens of token type `id` from `from` to `to`.\n     *\n     * Emits a {TransferSingle} event.\n     *\n     * Requirements:\n     *\n     * - `to` cannot be the zero address.\n     * - `from` must have a balance of tokens of type `id` of at least `amount`.\n     * - If `to` refers to a smart contract, it must implement {IERC1155Receiver-onERC1155Received} and return the\n     * acceptance magic value.\n     */\n    function _safeTransferFrom(\n        address from,\n        address to,\n        uint256 id,\n        uint256 amount,\n        bytes memory data\n    ) internal virtual {\n        require(to != address(0), \"ERC1155: transfer to the zero address\");\n\n        address operator = _msgSender();\n\n        _beforeTokenTransfer(operator, from, to, _asSingletonArray(id), _asSingletonArray(amount), data);\n\n        uint256 fromBalance = _balances[id][from];\n        require(fromBalance >= amount, \"ERC1155: insufficient balance for transfer\");\n        unchecked {\n            _balances[id][from] = fromBalance - amount;\n        }\n        _balances[id][to] += amount;\n\n        emit TransferSingle(operator, from, to, id, amount);\n\n        _doSafeTransferAcceptanceCheck(operator, from, to, id, amount, data);\n    }\n\n    /**\n     * @dev Sets a new URI for all token types, by relying on the token type ID\n     * substitution mechanism\n     * https://eips.ethereum.org/EIPS/eip-1155#metadata[defined in the EIP].\n     *\n     * By this mechanism, any occurrence of the `\\{id\\}` substring in either the\n     * URI or any of the amounts in the JSON file at said URI will be replaced by\n     * clients with the token type ID.\n     *\n     * For example, the `https://token-cdn-domain/\\{id\\}.json` URI would be\n     * interpreted by clients as\n     * `https://token-cdn-domain/000000000000000000000000000000000000000000000000000000000004cce0.json`\n     * for token type ID 0x4cce0.\n     *\n     * See {uri}.\n     *\n     * Because these URIs cannot be meaningfully represented by the {URI} event,\n     * this function emits no events.\n     */\n    function _setURI(string memory newuri) internal virtual {\n        _uri = newuri;\n    }\n\n    /**\n     * @dev Creates `amount` tokens of token type `id`, and assigns them to `account`.\n     *\n     * Emits a {TransferSingle} event.\n     *\n     * Requirements:\n     *\n     * - `account` cannot be the zero address.\n     * - If `account` refers to a smart contract, it must implement {IERC1155Receiver-onERC1155Received} and return the\n     * acceptance magic value.\n     */\n    function _mint(\n        address account,\n        uint256 id,\n        uint256 amount,\n        bytes memory data\n    ) internal virtual {\n        require(account != address(0), \"ERC1155: mint to the zero address\");\n\n        address operator = _msgSender();\n\n        _beforeTokenTransfer(operator, address(0), account, _asSingletonArray(id), _asSingletonArray(amount), data);\n\n        _balances[id][account] += amount;\n        emit TransferSingle(operator, address(0), account, id, amount);\n\n        _doSafeTransferAcceptanceCheck(operator, address(0), account, id, amount, data);\n    }\n\n    /**\n     * @dev Destroys `amount` tokens of token type `id` from `account`\n     *\n     * Requirements:\n     *\n     * - `account` cannot be the zero address.\n     * - `account` must have at least `amount` tokens of token type `id`.\n     */\n    function _burn(\n        address account,\n        uint256 id,\n        uint256 amount\n    ) internal virtual {\n        require(account != address(0), \"ERC1155: burn from the zero address\");\n\n        address operator = _msgSender();\n\n        _beforeTokenTransfer(operator, account, address(0), _asSingletonArray(id), _asSingletonArray(amount), \"\");\n\n        uint256 accountBalance = _balances[id][account];\n        require(accountBalance >= amount, \"ERC1155: burn amount exceeds balance\");\n        unchecked {\n            _balances[id][account] = accountBalance - amount;\n        }\n\n        emit TransferSingle(operator, account, address(0), id, amount);\n    }\n\n    /**\n     * @dev Hook that is called before any token transfer. This includes minting\n     * and burning, as well as batched variants.\n     *\n     * The same hook is called on both single and batched variants. For single\n     * transfers, the length of the `id` and `amount` arrays will be 1.\n     *\n     * Calling conditions (for each `id` and `amount` pair):\n     *\n     * - When `from` and `to` are both non-zero, `amount` of ``from``'s tokens\n     * of token type `id` will be  transferred to `to`.\n     * - When `from` is zero, `amount` tokens of token type `id` will be minted\n     * for `to`.\n     * - when `to` is zero, `amount` of ``from``'s tokens of token type `id`\n     * will be burned.\n     * - `from` and `to` are never both zero.\n     * - `ids` and `amounts` have the same, non-zero length.\n     *\n     * To learn more about hooks, head to xref:ROOT:extending-contracts.adoc#using-hooks[Using Hooks].\n     */\n    function _beforeTokenTransfer(\n        address operator,\n        address from,\n        address to,\n        uint256[] memory ids,\n        uint256[] memory amounts,\n        bytes memory data\n    ) internal virtual {}\n\n    function _doSafeTransferAcceptanceCheck(\n        address operator,\n        address from,\n        address to,\n        uint256 id,\n        uint256 amount,\n        bytes memory data\n    ) private {\n        if (to.isContract()) {\n            try IERC1155Receiver(to).onERC1155Received(operator, from, id, amount, data) returns (bytes4 response) {\n                if (response != IERC1155Receiver(to).onERC1155Received.selector) {\n                    revert(\"ERC1155: ERC1155Receiver rejected tokens\");\n                }\n            } catch Error(string memory reason) {\n                revert(reason);\n            } catch {\n                revert(\"ERC1155: transfer to non ERC1155Receiver implementer\");\n            }\n        }\n    }\n\n    function _asSingletonArray(uint256 element) private pure returns (uint256[] memory) {\n        uint256[] memory array = new uint256[](1);\n        array[0] = element;\n\n        return array;\n    }\n}\n",
  "sourcePath": "/Users/David/Universitat Bayreuth/Master/Masterarbeit/TruffleEnvironment/contracts/@openzeppelin/contracts/token/ERC1155/ERC1155.sol",
  "compiler": {
    "name": "solc",
    "version": "0.8.0+commit.c7dfd78e.Emscripten.clang"
  },
  "schemaVersion": "3.4.1",
  "updatedAt": "2021-09-26T23:03:44.882Z",
  "devdoc": {
    "details": "Implementation of the basic standard multi-token. See https://eips.ethereum.org/EIPS/eip-1155 Originally based on code by Enjin: https://github.com/enjin/erc-1155 _Available since v3.1._",
    "kind": "dev",
    "methods": {
      "balanceOf(address,uint256)": {
        "details": "See {IERC1155-balanceOf}. Requirements: - `account` cannot be the zero address."
      },
      "balanceOfBatch(address[],uint256[])": {
        "details": "See {IERC1155-balanceOfBatch}. Requirements: - `accounts` and `ids` must have the same length."
      },
      "constructor": {
        "details": "See {_setURI}."
      },
      "isApprovedForAll(address,address)": {
        "details": "See {IERC1155-isApprovedForAll}."
      },
      "safeTransferFrom(address,address,uint256,uint256,bytes)": {
        "details": "See {IERC1155-safeTransferFrom}."
      },
      "setApprovalForAll(address,bool)": {
        "details": "See {IERC1155-setApprovalForAll}."
      },
      "supportsInterface(bytes4)": {
        "details": "See {IERC165-supportsInterface}."
      },
      "uri(uint256)": {
        "details": "See {IERC1155MetadataURI-uri}. This implementation returns the same URI for *all* token types. It relies on the token type ID substitution mechanism https://eips.ethereum.org/EIPS/eip-1155#metadata[defined in the EIP]. Clients calling this function must replace the `\\{id\\}` substring with the actual token type ID."
      }
    },
    "version": 1
  },
  "userdoc": {
    "kind": "user",
    "methods": {},
    "version": 1
  }
}