{
  "contractName": "KycContract",
  "abi": [
    {
      "anonymous": false,
      "inputs": [
        {
          "indexed": true,
          "internalType": "address",
          "name": "previousOwner",
          "type": "address"
        },
        {
          "indexed": true,
          "internalType": "address",
          "name": "newOwner",
          "type": "address"
        }
      ],
      "name": "OwnershipTransferred",
      "type": "event"
    },
    {
      "inputs": [],
      "name": "owner",
      "outputs": [
        {
          "internalType": "address",
          "name": "",
          "type": "address"
        }
      ],
      "stateMutability": "view",
      "type": "function",
      "constant": true
    },
    {
      "inputs": [],
      "name": "renounceOwnership",
      "outputs": [],
      "stateMutability": "nonpayable",
      "type": "function"
    },
    {
      "inputs": [
        {
          "internalType": "address",
          "name": "newOwner",
          "type": "address"
        }
      ],
      "name": "transferOwnership",
      "outputs": [],
      "stateMutability": "nonpayable",
      "type": "function"
    },
    {
      "inputs": [
        {
          "internalType": "address",
          "name": "_addr",
          "type": "address"
        }
      ],
      "name": "setBondTokenContract",
      "outputs": [],
      "stateMutability": "nonpayable",
      "type": "function"
    },
    {
      "inputs": [
        {
          "internalType": "address",
          "name": "_addr",
          "type": "address"
        }
      ],
      "name": "setCSRContract",
      "outputs": [],
      "stateMutability": "nonpayable",
      "type": "function"
    },
    {
      "inputs": [
        {
          "internalType": "address",
          "name": "_kycProvider",
          "type": "address"
        }
      ],
      "name": "setKycProvider",
      "outputs": [],
      "stateMutability": "nonpayable",
      "type": "function"
    },
    {
      "inputs": [
        {
          "internalType": "address",
          "name": "_kycProvider",
          "type": "address"
        },
        {
          "internalType": "bool",
          "name": "_update",
          "type": "bool"
        }
      ],
      "name": "updateKycProvider",
      "outputs": [],
      "stateMutability": "nonpayable",
      "type": "function"
    },
    {
      "inputs": [
        {
          "internalType": "address",
          "name": "_investor",
          "type": "address"
        },
        {
          "internalType": "uint256",
          "name": "_investorType",
          "type": "uint256"
        }
      ],
      "name": "setKycCompleted",
      "outputs": [],
      "stateMutability": "nonpayable",
      "type": "function"
    },
    {
      "inputs": [
        {
          "internalType": "address",
          "name": "_investor",
          "type": "address"
        }
      ],
      "name": "setKycRevoked",
      "outputs": [],
      "stateMutability": "nonpayable",
      "type": "function"
    },
    {
      "inputs": [
        {
          "internalType": "address",
          "name": "_investor",
          "type": "address"
        }
      ],
      "name": "kycCompleted",
      "outputs": [
        {
          "internalType": "bool",
          "name": "",
          "type": "bool"
        }
      ],
      "stateMutability": "view",
      "type": "function",
      "constant": true
    },
    {
      "inputs": [
        {
          "internalType": "address",
          "name": "_investor",
          "type": "address"
        }
      ],
      "name": "returnInvestorType",
      "outputs": [
        {
          "internalType": "uint256",
          "name": "",
          "type": "uint256"
        }
      ],
      "stateMutability": "view",
      "type": "function",
      "constant": true
    }
  ],
  "bytecode": "0x608060405234801561001057600080fd5b5061002d61002261003260201b60201c565b61003a60201b60201c565b6100fe565b600033905090565b60008060009054906101000a900473ffffffffffffffffffffffffffffffffffffffff169050816000806101000a81548173ffffffffffffffffffffffffffffffffffffffff021916908373ffffffffffffffffffffffffffffffffffffffff1602179055508173ffffffffffffffffffffffffffffffffffffffff168173ffffffffffffffffffffffffffffffffffffffff167f8be0079c531659141344cd1fd0a4f28419497f9722a3daafe3b4186f6b6457e060405160405180910390a35050565b6110e88061010d6000396000f3fe608060405234801561001057600080fd5b50600436106100a95760003560e01c8063a1f7c6d811610071578063a1f7c6d81461012a578063bbc01b1a14610146578063dc3958cc14610176578063df0795aa14610192578063df235fe4146101ae578063f2fde38b146101de576100a9565b80631c3279ed146100ae5780636301b480146100ca578063715018a6146100e65780637dc6bdfb146100f05780638da5cb5b1461010c575b600080fd5b6100c860048036038101906100c39190610cc9565b6101fa565b005b6100e460048036038101906100df9190610cc9565b6102ba565b005b6100ee61037a565b005b61010a60048036038101906101059190610d2e565b610402565b005b610114610589565b6040516101219190610f23565b60405180910390f35b610144600480360381019061013f9190610cf2565b6105b2565b005b610160600480360381019061015b9190610cc9565b610689565b60405161016d9190610ff9565b60405180910390f35b610190600480360381019061018b9190610cc9565b6107bd565b005b6101ac60048036038101906101a79190610cc9565b6108ae565b005b6101c860048036038101906101c39190610cc9565b610985565b6040516101d59190610f3e565b60405180910390f35b6101f860048036038101906101f39190610cc9565b610ac6565b005b610202610bbe565b73ffffffffffffffffffffffffffffffffffffffff16610220610589565b73ffffffffffffffffffffffffffffffffffffffff1614610276576040517f08c379a000000000000000000000000000000000000000000000000000000000815260040161026d90610f99565b60405180910390fd5b80600160006101000a81548173ffffffffffffffffffffffffffffffffffffffff021916908373ffffffffffffffffffffffffffffffffffffffff16021790555050565b6102c2610bbe565b73ffffffffffffffffffffffffffffffffffffffff166102e0610589565b73ffffffffffffffffffffffffffffffffffffffff1614610336576040517f08c379a000000000000000000000000000000000000000000000000000000000815260040161032d90610f99565b60405180910390fd5b80600260006101000a81548173ffffffffffffffffffffffffffffffffffffffff021916908373ffffffffffffffffffffffffffffffffffffffff16021790555050565b610382610bbe565b73ffffffffffffffffffffffffffffffffffffffff166103a0610589565b73ffffffffffffffffffffffffffffffffffffffff16146103f6576040517f08c379a00000000000000000000000000000000000000000000000000000000081526004016103ed90610f99565b60405180910390fd5b6104006000610bc6565b565b60011515600360003373ffffffffffffffffffffffffffffffffffffffff1673ffffffffffffffffffffffffffffffffffffffff16815260200190815260200160002060009054906101000a900460ff16151514610495576040517f08c379a000000000000000000000000000000000000000000000000000000000815260040161048c90610fd9565b60405180910390fd5b60008114806104a45750600181145b6104e3576040517f08c379a00000000000000000000000000000000000000000000000000000000081526004016104da90610fb9565b60405180910390fd5b6001600460008473ffffffffffffffffffffffffffffffffffffffff1673ffffffffffffffffffffffffffffffffffffffff16815260200190815260200160002060000160006101000a81548160ff02191690831515021790555080600460008473ffffffffffffffffffffffffffffffffffffffff1673ffffffffffffffffffffffffffffffffffffffff168152602001908152602001600020600101819055505050565b60008060009054906101000a900473ffffffffffffffffffffffffffffffffffffffff16905090565b6105ba610bbe565b73ffffffffffffffffffffffffffffffffffffffff166105d8610589565b73ffffffffffffffffffffffffffffffffffffffff161461062e576040517f08c379a000000000000000000000000000000000000000000000000000000000815260040161062590610f99565b60405180910390fd5b80600360008473ffffffffffffffffffffffffffffffffffffffff1673ffffffffffffffffffffffffffffffffffffffff16815260200190815260200160002060006101000a81548160ff0219169083151502179055505050565b60003373ffffffffffffffffffffffffffffffffffffffff16600160009054906101000a900473ffffffffffffffffffffffffffffffffffffffff1673ffffffffffffffffffffffffffffffffffffffff16148061073457503373ffffffffffffffffffffffffffffffffffffffff16600260009054906101000a900473ffffffffffffffffffffffffffffffffffffffff1673ffffffffffffffffffffffffffffffffffffffff16145b610773576040517f08c379a000000000000000000000000000000000000000000000000000000000815260040161076a90610f79565b60405180910390fd5b600460008373ffffffffffffffffffffffffffffffffffffffff1673ffffffffffffffffffffffffffffffffffffffff168152602001908152602001600020600101549050919050565b60011515600360003373ffffffffffffffffffffffffffffffffffffffff1673ffffffffffffffffffffffffffffffffffffffff16815260200190815260200160002060009054906101000a900460ff16151514610850576040517f08c379a000000000000000000000000000000000000000000000000000000000815260040161084790610fd9565b60405180910390fd5b6000600460008373ffffffffffffffffffffffffffffffffffffffff1673ffffffffffffffffffffffffffffffffffffffff16815260200190815260200160002060000160006101000a81548160ff02191690831515021790555050565b6108b6610bbe565b73ffffffffffffffffffffffffffffffffffffffff166108d4610589565b73ffffffffffffffffffffffffffffffffffffffff161461092a576040517f08c379a000000000000000000000000000000000000000000000000000000000815260040161092190610f99565b60405180910390fd5b6001600360008373ffffffffffffffffffffffffffffffffffffffff1673ffffffffffffffffffffffffffffffffffffffff16815260200190815260200160002060006101000a81548160ff02191690831515021790555050565b60003373ffffffffffffffffffffffffffffffffffffffff16600160009054906101000a900473ffffffffffffffffffffffffffffffffffffffff1673ffffffffffffffffffffffffffffffffffffffff161480610a3057503373ffffffffffffffffffffffffffffffffffffffff16600260009054906101000a900473ffffffffffffffffffffffffffffffffffffffff1673ffffffffffffffffffffffffffffffffffffffff16145b610a6f576040517f08c379a0000000000000000000000000000000000000000000000000000000008152600401610a6690610f79565b60405180910390fd5b600460008373ffffffffffffffffffffffffffffffffffffffff1673ffffffffffffffffffffffffffffffffffffffff16815260200190815260200160002060000160009054906101000a900460ff169050919050565b610ace610bbe565b73ffffffffffffffffffffffffffffffffffffffff16610aec610589565b73ffffffffffffffffffffffffffffffffffffffff1614610b42576040517f08c379a0000000000000000000000000000000000000000000000000000000008152600401610b3990610f99565b60405180910390fd5b600073ffffffffffffffffffffffffffffffffffffffff168173ffffffffffffffffffffffffffffffffffffffff161415610bb2576040517f08c379a0000000000000000000000000000000000000000000000000000000008152600401610ba990610f59565b60405180910390fd5b610bbb81610bc6565b50565b600033905090565b60008060009054906101000a900473ffffffffffffffffffffffffffffffffffffffff169050816000806101000a81548173ffffffffffffffffffffffffffffffffffffffff021916908373ffffffffffffffffffffffffffffffffffffffff1602179055508173ffffffffffffffffffffffffffffffffffffffff168173ffffffffffffffffffffffffffffffffffffffff167f8be0079c531659141344cd1fd0a4f28419497f9722a3daafe3b4186f6b6457e060405160405180910390a35050565b600081359050610c998161106d565b92915050565b600081359050610cae81611084565b92915050565b600081359050610cc38161109b565b92915050565b600060208284031215610cdb57600080fd5b6000610ce984828501610c8a565b91505092915050565b60008060408385031215610d0557600080fd5b6000610d1385828601610c8a565b9250506020610d2485828601610c9f565b9150509250929050565b60008060408385031215610d4157600080fd5b6000610d4f85828601610c8a565b9250506020610d6085828601610cb4565b9150509250929050565b610d7381611025565b82525050565b610d8281611037565b82525050565b6000610d95602683611014565b91507f4f776e61626c653a206e6577206f776e657220697320746865207a65726f206160008301527f64647265737300000000000000000000000000000000000000000000000000006020830152604082019050919050565b6000610dfb602683611014565b91507f4f6e6c79206120436f6e74726163742063616e2075736520746869732066756e60008301527f6374696f6e2100000000000000000000000000000000000000000000000000006020830152604082019050919050565b6000610e61602083611014565b91507f4f776e61626c653a2063616c6c6572206973206e6f7420746865206f776e65726000830152602082019050919050565b6000610ea1601983611014565b91507f4e6f7420612076616c696420696e766573746f725479706521000000000000006000830152602082019050919050565b6000610ee1601783611014565b91507f596f7520617265206e6f7420617574686f72697a6564210000000000000000006000830152602082019050919050565b610f1d81611063565b82525050565b6000602082019050610f386000830184610d6a565b92915050565b6000602082019050610f536000830184610d79565b92915050565b60006020820190508181036000830152610f7281610d88565b9050919050565b60006020820190508181036000830152610f9281610dee565b9050919050565b60006020820190508181036000830152610fb281610e54565b9050919050565b60006020820190508181036000830152610fd281610e94565b9050919050565b60006020820190508181036000830152610ff281610ed4565b9050919050565b600060208201905061100e6000830184610f14565b92915050565b600082825260208201905092915050565b600061103082611043565b9050919050565b60008115159050919050565b600073ffffffffffffffffffffffffffffffffffffffff82169050919050565b6000819050919050565b61107681611025565b811461108157600080fd5b50565b61108d81611037565b811461109857600080fd5b50565b6110a481611063565b81146110af57600080fd5b5056fea2646970667358221220b4a79a79a69ae1ffceca5fd1caaac336cbfdabec0f123180a572fb12b48ae65f64736f6c63430008000033",
  "immutableReferences": {},
  "source": "// SPDX-License-Identifier: UNLICENSED\n\npragma solidity ^0.8.0;\n\nimport \"./@openzeppelin/contracts/access/Ownable.sol\";\nimport \"./BondToken.sol\";\nimport \"./SecuritiesRegister.sol\";\n\ncontract KycContract is Ownable {\n    \n    // Contracts\n    \n    Bond BTC;\n    CSRContract CSR;\n    \n    // Functions for contract management\n    \n    function setBondTokenContract(\n        address _addr)\n        public\n        onlyOwner\n        {\n        BTC = Bond(_addr);\n    }\n    \n    function setCSRContract(address _addr)\n        public\n        onlyOwner\n        {\n        CSR = CSRContract(_addr);\n    }\n    \n    // Modifier\n    \n    modifier onlyKycProvider {\n        require(\n            KycProvider[msg.sender] == true, \n            \"You are not authorized!\"\n            );\n        _;\n    }\n    \n    modifier onlyContract {\n        require(\n            BTC == Bond(msg.sender) || CSR == CSRContract(msg.sender), \n            \"Only a Contract can use this function!\"\n            );\n        _;\n    }\n    \n    // Entities\n    \n    mapping(address => bool) KycProvider;\n    \n    // Functions for entity management\n    \n    function setKycProvider(\n        address _kycProvider)\n        public\n        onlyOwner\n        {\n        KycProvider[_kycProvider] = true;\n    }\n    \n    function updateKycProvider(\n        address _kycProvider, \n        bool _update) \n        public\n        onlyOwner\n        {\n        KycProvider[_kycProvider] = _update;\n    }\n    \n    // Variables\n    \n    mapping(address => InvestorInfo) private Whitelist;\n    \n    struct InvestorInfo {\n        bool whitelisted;\n        uint investorType; // 0 stands for retail, 1 for institutional\n    }\n    \n    // Functions\n    \n    function setKycCompleted(\n        address _investor,\n        uint _investorType)\n        public\n        onlyKycProvider\n        {\n        require(\n            _investorType == 0 || _investorType == 1,\n            \"Not a valid investorType!\"\n            );    \n        Whitelist[_investor].whitelisted = true;\n        Whitelist[_investor].investorType = _investorType;\n    }\n    \n    function setKycRevoked(\n        address _investor)\n        public\n        onlyKycProvider\n        {\n        Whitelist[_investor].whitelisted = false;\n    }\n    \n    function kycCompleted(\n        address _investor)\n        external \n        view\n        onlyContract\n        returns(bool)\n        {\n        return Whitelist[_investor].whitelisted;\n    }\n    \n    function returnInvestorType(\n        address _investor)\n        external\n        view\n        onlyContract\n        returns(uint)\n        {\n        return Whitelist[_investor].investorType;        \n    }\n    \n}",
  "sourcePath": "/Users/David/Universitat Bayreuth/Master/Masterarbeit/TruffleEnvironment/contracts/KnowYourCustomer.sol",
  "compiler": {
    "name": "solc",
    "version": "0.8.0+commit.c7dfd78e.Emscripten.clang"
  },
  "schemaVersion": "3.4.1",
  "updatedAt": "2021-09-26T23:43:34.214Z",
  "networkType": "ethereum",
  "devdoc": {
    "kind": "dev",
    "methods": {
      "owner()": {
        "details": "Returns the address of the current owner."
      },
      "renounceOwnership()": {
        "details": "Leaves the contract without owner. It will not be possible to call `onlyOwner` functions anymore. Can only be called by the current owner. NOTE: Renouncing ownership will leave the contract without an owner, thereby removing any functionality that is only available to the owner."
      },
      "transferOwnership(address)": {
        "details": "Transfers ownership of the contract to a new account (`newOwner`). Can only be called by the current owner."
      }
    },
    "version": 1
  },
  "userdoc": {
    "kind": "user",
    "methods": {},
    "version": 1
  }
}