{
  "contractName": "StableCoin",
  "abi": [
    {
      "inputs": [
        {
          "internalType": "string",
          "name": "name",
          "type": "string"
        },
        {
          "internalType": "string",
          "name": "symbol",
          "type": "string"
        }
      ],
      "stateMutability": "nonpayable",
      "type": "constructor"
    },
    {
      "anonymous": false,
      "inputs": [
        {
          "indexed": true,
          "internalType": "address",
          "name": "owner",
          "type": "address"
        },
        {
          "indexed": true,
          "internalType": "address",
          "name": "spender",
          "type": "address"
        },
        {
          "indexed": false,
          "internalType": "uint256",
          "name": "value",
          "type": "uint256"
        }
      ],
      "name": "Approval",
      "type": "event"
    },
    {
      "anonymous": false,
      "inputs": [
        {
          "indexed": true,
          "internalType": "address",
          "name": "from",
          "type": "address"
        },
        {
          "indexed": true,
          "internalType": "address",
          "name": "to",
          "type": "address"
        },
        {
          "indexed": false,
          "internalType": "uint256",
          "name": "value",
          "type": "uint256"
        }
      ],
      "name": "Transfer",
      "type": "event"
    },
    {
      "inputs": [
        {
          "internalType": "address",
          "name": "owner",
          "type": "address"
        },
        {
          "internalType": "address",
          "name": "spender",
          "type": "address"
        }
      ],
      "name": "allowance",
      "outputs": [
        {
          "internalType": "uint256",
          "name": "",
          "type": "uint256"
        }
      ],
      "stateMutability": "view",
      "type": "function",
      "constant": true
    },
    {
      "inputs": [
        {
          "internalType": "address",
          "name": "spender",
          "type": "address"
        },
        {
          "internalType": "uint256",
          "name": "amount",
          "type": "uint256"
        }
      ],
      "name": "approve",
      "outputs": [
        {
          "internalType": "bool",
          "name": "",
          "type": "bool"
        }
      ],
      "stateMutability": "nonpayable",
      "type": "function"
    },
    {
      "inputs": [
        {
          "internalType": "address",
          "name": "account",
          "type": "address"
        }
      ],
      "name": "balanceOf",
      "outputs": [
        {
          "internalType": "uint256",
          "name": "",
          "type": "uint256"
        }
      ],
      "stateMutability": "view",
      "type": "function",
      "constant": true
    },
    {
      "inputs": [],
      "name": "decimals",
      "outputs": [
        {
          "internalType": "uint8",
          "name": "",
          "type": "uint8"
        }
      ],
      "stateMutability": "view",
      "type": "function",
      "constant": true
    },
    {
      "inputs": [
        {
          "internalType": "address",
          "name": "spender",
          "type": "address"
        },
        {
          "internalType": "uint256",
          "name": "subtractedValue",
          "type": "uint256"
        }
      ],
      "name": "decreaseAllowance",
      "outputs": [
        {
          "internalType": "bool",
          "name": "",
          "type": "bool"
        }
      ],
      "stateMutability": "nonpayable",
      "type": "function"
    },
    {
      "inputs": [
        {
          "internalType": "address",
          "name": "spender",
          "type": "address"
        },
        {
          "internalType": "uint256",
          "name": "addedValue",
          "type": "uint256"
        }
      ],
      "name": "increaseAllowance",
      "outputs": [
        {
          "internalType": "bool",
          "name": "",
          "type": "bool"
        }
      ],
      "stateMutability": "nonpayable",
      "type": "function"
    },
    {
      "inputs": [],
      "name": "name",
      "outputs": [
        {
          "internalType": "string",
          "name": "",
          "type": "string"
        }
      ],
      "stateMutability": "view",
      "type": "function",
      "constant": true
    },
    {
      "inputs": [],
      "name": "symbol",
      "outputs": [
        {
          "internalType": "string",
          "name": "",
          "type": "string"
        }
      ],
      "stateMutability": "view",
      "type": "function",
      "constant": true
    },
    {
      "inputs": [],
      "name": "totalSupply",
      "outputs": [
        {
          "internalType": "uint256",
          "name": "",
          "type": "uint256"
        }
      ],
      "stateMutability": "view",
      "type": "function",
      "constant": true
    },
    {
      "inputs": [
        {
          "internalType": "address",
          "name": "recipient",
          "type": "address"
        },
        {
          "internalType": "uint256",
          "name": "amount",
          "type": "uint256"
        }
      ],
      "name": "transfer",
      "outputs": [
        {
          "internalType": "bool",
          "name": "",
          "type": "bool"
        }
      ],
      "stateMutability": "nonpayable",
      "type": "function"
    },
    {
      "inputs": [
        {
          "internalType": "address",
          "name": "sender",
          "type": "address"
        },
        {
          "internalType": "address",
          "name": "recipient",
          "type": "address"
        },
        {
          "internalType": "uint256",
          "name": "amount",
          "type": "uint256"
        }
      ],
      "name": "transferFrom",
      "outputs": [
        {
          "internalType": "bool",
          "name": "",
          "type": "bool"
        }
      ],
      "stateMutability": "nonpayable",
      "type": "function"
    },
    {
      "inputs": [
        {
          "internalType": "uint256",
          "name": "_amount",
          "type": "uint256"
        }
      ],
      "name": "mintEUR",
      "outputs": [],
      "stateMutability": "nonpayable",
      "type": "function"
    }
  ],
  "bytecode": "0x60806040523480156200001157600080fd5b5060405162001db438038062001db4833981810160405281019062000037919062000363565b818181600390805190602001906200005192919062000241565b5080600490805190602001906200006a92919062000241565b505050620000ad3362000082620000b560201b60201c565b60ff16600a62000093919062000598565b6064620000a19190620006d5565b620000be60201b60201c565b505062000846565b60006012905090565b600073ffffffffffffffffffffffffffffffffffffffff168273ffffffffffffffffffffffffffffffffffffffff16141562000131576040517f08c379a0000000000000000000000000000000000000000000000000000000008152600401620001289062000429565b60405180910390fd5b62000145600083836200023760201b60201c565b8060026000828254620001599190620004e0565b92505081905550806000808473ffffffffffffffffffffffffffffffffffffffff1673ffffffffffffffffffffffffffffffffffffffff1681526020019081526020016000206000828254620001b09190620004e0565b925050819055508173ffffffffffffffffffffffffffffffffffffffff16600073ffffffffffffffffffffffffffffffffffffffff167fddf252ad1be2c89b69c2b068fc378daa952ba7f163c4a11628f55a4df523b3ef836040516200021791906200044b565b60405180910390a362000233600083836200023c60201b60201c565b5050565b505050565b505050565b8280546200024f9062000776565b90600052602060002090601f016020900481019282620002735760008555620002bf565b82601f106200028e57805160ff1916838001178555620002bf565b82800160010185558215620002bf579182015b82811115620002be578251825591602001919060010190620002a1565b5b509050620002ce9190620002d2565b5090565b5b80821115620002ed576000816000905550600101620002d3565b5090565b60006200030862000302846200049c565b62000468565b9050828152602081018484840111156200032157600080fd5b6200032e84828562000740565b509392505050565b600082601f8301126200034857600080fd5b81516200035a848260208601620002f1565b91505092915050565b600080604083850312156200037757600080fd5b600083015167ffffffffffffffff8111156200039257600080fd5b620003a08582860162000336565b925050602083015167ffffffffffffffff811115620003be57600080fd5b620003cc8582860162000336565b9150509250929050565b6000620003e5601f83620004cf565b91507f45524332303a206d696e7420746f20746865207a65726f2061646472657373006000830152602082019050919050565b620004238162000736565b82525050565b600060208201905081810360008301526200044481620003d6565b9050919050565b600060208201905062000462600083018462000418565b92915050565b6000604051905081810181811067ffffffffffffffff821117156200049257620004916200080a565b5b8060405250919050565b600067ffffffffffffffff821115620004ba57620004b96200080a565b5b601f19601f8301169050602081019050919050565b600082825260208201905092915050565b6000620004ed8262000736565b9150620004fa8362000736565b9250827fffffffffffffffffffffffffffffffffffffffffffffffffffffffffffffffff03821115620005325762000531620007ac565b5b828201905092915050565b6000808291508390505b60018511156200058f57808604811115620005675762000566620007ac565b5b6001851615620005775780820291505b8081029050620005878562000839565b945062000547565b94509492505050565b6000620005a58262000736565b9150620005b28362000736565b9250620005e17fffffffffffffffffffffffffffffffffffffffffffffffffffffffffffffffff8484620005e9565b905092915050565b600082620005fb5760019050620006ce565b816200060b5760009050620006ce565b81600181146200062457600281146200062f5762000665565b6001915050620006ce565b60ff841115620006445762000643620007ac565b5b8360020a9150848211156200065e576200065d620007ac565b5b50620006ce565b5060208310610133831016604e8410600b84101617156200069f5782820a905083811115620006995762000698620007ac565b5b620006ce565b620006ae84848460016200053d565b92509050818404811115620006c857620006c7620007ac565b5b81810290505b9392505050565b6000620006e28262000736565b9150620006ef8362000736565b9250817fffffffffffffffffffffffffffffffffffffffffffffffffffffffffffffffff04831182151516156200072b576200072a620007ac565b5b828202905092915050565b6000819050919050565b60005b838110156200076057808201518184015260208101905062000743565b8381111562000770576000848401525b50505050565b600060028204905060018216806200078f57607f821691505b60208210811415620007a657620007a5620007db565b5b50919050565b7f4e487b7100000000000000000000000000000000000000000000000000000000600052601160045260246000fd5b7f4e487b7100000000000000000000000000000000000000000000000000000000600052602260045260246000fd5b7f4e487b7100000000000000000000000000000000000000000000000000000000600052604160045260246000fd5b60008160011c9050919050565b61155e80620008566000396000f3fe608060405234801561001057600080fd5b50600436106100b45760003560e01c80633950935111610071578063395093511461018f57806370a08231146101bf57806395d89b41146101ef578063a457c2d71461020d578063a9059cbb1461023d578063dd62ed3e1461026d576100b4565b806306fdde03146100b9578063095ea7b3146100d757806318160ddd1461010757806323b872dd146101255780632762e08f14610155578063313ce56714610171575b600080fd5b6100c161029d565b6040516100ce9190611207565b60405180910390f35b6100f160048036038101906100ec9190610e17565b61032f565b6040516100fe91906111ec565b60405180910390f35b61010f61034d565b60405161011c9190611329565b60405180910390f35b61013f600480360381019061013a9190610dc8565b610357565b60405161014c91906111ec565b60405180910390f35b61016f600480360381019061016a9190610e53565b61044f565b005b61017961045c565b6040516101869190611344565b60405180910390f35b6101a960048036038101906101a49190610e17565b610465565b6040516101b691906111ec565b60405180910390f35b6101d960048036038101906101d49190610d63565b610511565b6040516101e69190611329565b60405180910390f35b6101f7610559565b6040516102049190611207565b60405180910390f35b61022760048036038101906102229190610e17565b6105eb565b60405161023491906111ec565b60405180910390f35b61025760048036038101906102529190610e17565b6106d6565b60405161026491906111ec565b60405180910390f35b61028760048036038101906102829190610d8c565b6106f4565b6040516102949190611329565b60405180910390f35b6060600380546102ac90611459565b80601f01602080910402602001604051908101604052809291908181526020018280546102d890611459565b80156103255780601f106102fa57610100808354040283529160200191610325565b820191906000526020600020905b81548152906001019060200180831161030857829003601f168201915b5050505050905090565b600061034361033c61077b565b8484610783565b6001905092915050565b6000600254905090565b600061036484848461094e565b6000600160008673ffffffffffffffffffffffffffffffffffffffff1673ffffffffffffffffffffffffffffffffffffffff16815260200190815260200160002060006103af61077b565b73ffffffffffffffffffffffffffffffffffffffff1673ffffffffffffffffffffffffffffffffffffffff1681526020019081526020016000205490508281101561042f576040517f08c379a000000000000000000000000000000000000000000000000000000000815260040161042690611289565b60405180910390fd5b6104438561043b61077b565b858403610783565b60019150509392505050565b6104593382610bcf565b50565b60006012905090565b600061050761047261077b565b84846001600061048061077b565b73ffffffffffffffffffffffffffffffffffffffff1673ffffffffffffffffffffffffffffffffffffffff16815260200190815260200160002060008873ffffffffffffffffffffffffffffffffffffffff1673ffffffffffffffffffffffffffffffffffffffff16815260200190815260200160002054610502919061137b565b610783565b6001905092915050565b60008060008373ffffffffffffffffffffffffffffffffffffffff1673ffffffffffffffffffffffffffffffffffffffff168152602001908152602001600020549050919050565b60606004805461056890611459565b80601f016020809104026020016040519081016040528092919081815260200182805461059490611459565b80156105e15780601f106105b6576101008083540402835291602001916105e1565b820191906000526020600020905b8154815290600101906020018083116105c457829003601f168201915b5050505050905090565b600080600160006105fa61077b565b73ffffffffffffffffffffffffffffffffffffffff1673ffffffffffffffffffffffffffffffffffffffff16815260200190815260200160002060008573ffffffffffffffffffffffffffffffffffffffff1673ffffffffffffffffffffffffffffffffffffffff168152602001908152602001600020549050828110156106b7576040517f08c379a00000000000000000000000000000000000000000000000000000000081526004016106ae906112e9565b60405180910390fd5b6106cb6106c261077b565b85858403610783565b600191505092915050565b60006106ea6106e361077b565b848461094e565b6001905092915050565b6000600160008473ffffffffffffffffffffffffffffffffffffffff1673ffffffffffffffffffffffffffffffffffffffff16815260200190815260200160002060008373ffffffffffffffffffffffffffffffffffffffff1673ffffffffffffffffffffffffffffffffffffffff16815260200190815260200160002054905092915050565b600033905090565b600073ffffffffffffffffffffffffffffffffffffffff168373ffffffffffffffffffffffffffffffffffffffff1614156107f3576040517f08c379a00000000000000000000000000000000000000000000000000000000081526004016107ea906112c9565b60405180910390fd5b600073ffffffffffffffffffffffffffffffffffffffff168273ffffffffffffffffffffffffffffffffffffffff161415610863576040517f08c379a000000000000000000000000000000000000000000000000000000000815260040161085a90611249565b60405180910390fd5b80600160008573ffffffffffffffffffffffffffffffffffffffff1673ffffffffffffffffffffffffffffffffffffffff16815260200190815260200160002060008473ffffffffffffffffffffffffffffffffffffffff1673ffffffffffffffffffffffffffffffffffffffff168152602001908152602001600020819055508173ffffffffffffffffffffffffffffffffffffffff168373ffffffffffffffffffffffffffffffffffffffff167f8c5be1e5ebec7d5bd14f71427d1e84f3dd0314c0f7b2291e5b200ac8c7c3b925836040516109419190611329565b60405180910390a3505050565b600073ffffffffffffffffffffffffffffffffffffffff168373ffffffffffffffffffffffffffffffffffffffff1614156109be576040517f08c379a00000000000000000000000000000000000000000000000000000000081526004016109b5906112a9565b60405180910390fd5b600073ffffffffffffffffffffffffffffffffffffffff168273ffffffffffffffffffffffffffffffffffffffff161415610a2e576040517f08c379a0000000000000000000000000000000000000000000000000000000008152600401610a2590611229565b60405180910390fd5b610a39838383610d2f565b60008060008573ffffffffffffffffffffffffffffffffffffffff1673ffffffffffffffffffffffffffffffffffffffff16815260200190815260200160002054905081811015610abf576040517f08c379a0000000000000000000000000000000000000000000000000000000008152600401610ab690611269565b60405180910390fd5b8181036000808673ffffffffffffffffffffffffffffffffffffffff1673ffffffffffffffffffffffffffffffffffffffff16815260200190815260200160002081905550816000808573ffffffffffffffffffffffffffffffffffffffff1673ffffffffffffffffffffffffffffffffffffffff1681526020019081526020016000206000828254610b52919061137b565b925050819055508273ffffffffffffffffffffffffffffffffffffffff168473ffffffffffffffffffffffffffffffffffffffff167fddf252ad1be2c89b69c2b068fc378daa952ba7f163c4a11628f55a4df523b3ef84604051610bb69190611329565b60405180910390a3610bc9848484610d34565b50505050565b600073ffffffffffffffffffffffffffffffffffffffff168273ffffffffffffffffffffffffffffffffffffffff161415610c3f576040517f08c379a0000000000000000000000000000000000000000000000000000000008152600401610c3690611309565b60405180910390fd5b610c4b60008383610d2f565b8060026000828254610c5d919061137b565b92505081905550806000808473ffffffffffffffffffffffffffffffffffffffff1673ffffffffffffffffffffffffffffffffffffffff1681526020019081526020016000206000828254610cb2919061137b565b925050819055508173ffffffffffffffffffffffffffffffffffffffff16600073ffffffffffffffffffffffffffffffffffffffff167fddf252ad1be2c89b69c2b068fc378daa952ba7f163c4a11628f55a4df523b3ef83604051610d179190611329565b60405180910390a3610d2b60008383610d34565b5050565b505050565b505050565b600081359050610d48816114fa565b92915050565b600081359050610d5d81611511565b92915050565b600060208284031215610d7557600080fd5b6000610d8384828501610d39565b91505092915050565b60008060408385031215610d9f57600080fd5b6000610dad85828601610d39565b9250506020610dbe85828601610d39565b9150509250929050565b600080600060608486031215610ddd57600080fd5b6000610deb86828701610d39565b9350506020610dfc86828701610d39565b9250506040610e0d86828701610d4e565b9150509250925092565b60008060408385031215610e2a57600080fd5b6000610e3885828601610d39565b9250506020610e4985828601610d4e565b9150509250929050565b600060208284031215610e6557600080fd5b6000610e7384828501610d4e565b91505092915050565b610e85816113e3565b82525050565b6000610e968261135f565b610ea0818561136a565b9350610eb0818560208601611426565b610eb9816114e9565b840191505092915050565b6000610ed160238361136a565b91507f45524332303a207472616e7366657220746f20746865207a65726f206164647260008301527f65737300000000000000000000000000000000000000000000000000000000006020830152604082019050919050565b6000610f3760228361136a565b91507f45524332303a20617070726f766520746f20746865207a65726f20616464726560008301527f73730000000000000000000000000000000000000000000000000000000000006020830152604082019050919050565b6000610f9d60268361136a565b91507f45524332303a207472616e7366657220616d6f756e742065786365656473206260008301527f616c616e636500000000000000000000000000000000000000000000000000006020830152604082019050919050565b600061100360288361136a565b91507f45524332303a207472616e7366657220616d6f756e742065786365656473206160008301527f6c6c6f77616e63650000000000000000000000000000000000000000000000006020830152604082019050919050565b600061106960258361136a565b91507f45524332303a207472616e736665722066726f6d20746865207a65726f20616460008301527f64726573730000000000000000000000000000000000000000000000000000006020830152604082019050919050565b60006110cf60248361136a565b91507f45524332303a20617070726f76652066726f6d20746865207a65726f2061646460008301527f72657373000000000000000000000000000000000000000000000000000000006020830152604082019050919050565b600061113560258361136a565b91507f45524332303a2064656372656173656420616c6c6f77616e63652062656c6f7760008301527f207a65726f0000000000000000000000000000000000000000000000000000006020830152604082019050919050565b600061119b601f8361136a565b91507f45524332303a206d696e7420746f20746865207a65726f2061646472657373006000830152602082019050919050565b6111d78161140f565b82525050565b6111e681611419565b82525050565b60006020820190506112016000830184610e7c565b92915050565b600060208201905081810360008301526112218184610e8b565b905092915050565b6000602082019050818103600083015261124281610ec4565b9050919050565b6000602082019050818103600083015261126281610f2a565b9050919050565b6000602082019050818103600083015261128281610f90565b9050919050565b600060208201905081810360008301526112a281610ff6565b9050919050565b600060208201905081810360008301526112c28161105c565b9050919050565b600060208201905081810360008301526112e2816110c2565b9050919050565b6000602082019050818103600083015261130281611128565b9050919050565b600060208201905081810360008301526113228161118e565b9050919050565b600060208201905061133e60008301846111ce565b92915050565b600060208201905061135960008301846111dd565b92915050565b600081519050919050565b600082825260208201905092915050565b60006113868261140f565b91506113918361140f565b9250827fffffffffffffffffffffffffffffffffffffffffffffffffffffffffffffffff038211156113c6576113c561148b565b5b828201905092915050565b60006113dc826113ef565b9050919050565b60008115159050919050565b600073ffffffffffffffffffffffffffffffffffffffff82169050919050565b6000819050919050565b600060ff82169050919050565b60005b83811015611444578082015181840152602081019050611429565b83811115611453576000848401525b50505050565b6000600282049050600182168061147157607f821691505b60208210811415611485576114846114ba565b5b50919050565b7f4e487b7100000000000000000000000000000000000000000000000000000000600052601160045260246000fd5b7f4e487b7100000000000000000000000000000000000000000000000000000000600052602260045260246000fd5b6000601f19601f8301169050919050565b611503816113d1565b811461150e57600080fd5b50565b61151a8161140f565b811461152557600080fd5b5056fea26469706673582212203e8268af6e739f507f73f8340cc1d0641cbe7027facc6ed2e13617fb96b3bcdd64736f6c63430008000033",
  "immutableReferences": {},
  "source": "// SPDX-License-Identifier: UNLICENSED\n\npragma solidity ^0.8.0;\n\nimport \"./@openzeppelin/contracts/token/ERC20/ERC20.sol\";\n\n\ncontract StableCoin is ERC20 {\n    constructor(string memory name, string memory symbol) ERC20(name, symbol) {\n        // Mint 100 tokens to msg.sender\n        // Similar to how\n        // 1 dollar = 100 cents\n        // 1 token = 1 * (10 ** decimals)\n        _mint(msg.sender, 100 * 10**uint(decimals()));\n    }\n    \n    function mintEUR(\n        uint _amount)\n        public\n        {\n        _mint(msg.sender, _amount);    \n    }\n    \n}",
  "sourcePath": "/Users/David/Universitat Bayreuth/Master/Masterarbeit/TruffleEnvironment/contracts/StableCoin.sol",
  "compiler": {
    "name": "solc",
    "version": "0.8.0+commit.c7dfd78e.Emscripten.clang"
  },
  "schemaVersion": "3.4.1",
  "updatedAt": "2021-09-26T23:43:35.985Z",
  "networkType": "ethereum",
  "devdoc": {
    "kind": "dev",
    "methods": {
      "allowance(address,address)": {
        "details": "See {IERC20-allowance}."
      },
      "approve(address,uint256)": {
        "details": "See {IERC20-approve}. Requirements: - `spender` cannot be the zero address."
      },
      "balanceOf(address)": {
        "details": "See {IERC20-balanceOf}."
      },
      "decimals()": {
        "details": "Returns the number of decimals used to get its user representation. For example, if `decimals` equals `2`, a balance of `505` tokens should be displayed to a user as `5.05` (`505 / 10 ** 2`). Tokens usually opt for a value of 18, imitating the relationship between Ether and Wei. This is the value {ERC20} uses, unless this function is overridden; NOTE: This information is only used for _display_ purposes: it in no way affects any of the arithmetic of the contract, including {IERC20-balanceOf} and {IERC20-transfer}."
      },
      "decreaseAllowance(address,uint256)": {
        "details": "Atomically decreases the allowance granted to `spender` by the caller. This is an alternative to {approve} that can be used as a mitigation for problems described in {IERC20-approve}. Emits an {Approval} event indicating the updated allowance. Requirements: - `spender` cannot be the zero address. - `spender` must have allowance for the caller of at least `subtractedValue`."
      },
      "increaseAllowance(address,uint256)": {
        "details": "Atomically increases the allowance granted to `spender` by the caller. This is an alternative to {approve} that can be used as a mitigation for problems described in {IERC20-approve}. Emits an {Approval} event indicating the updated allowance. Requirements: - `spender` cannot be the zero address."
      },
      "name()": {
        "details": "Returns the name of the token."
      },
      "symbol()": {
        "details": "Returns the symbol of the token, usually a shorter version of the name."
      },
      "totalSupply()": {
        "details": "See {IERC20-totalSupply}."
      },
      "transfer(address,uint256)": {
        "details": "See {IERC20-transfer}. Requirements: - `recipient` cannot be the zero address. - the caller must have a balance of at least `amount`."
      },
      "transferFrom(address,address,uint256)": {
        "details": "See {IERC20-transferFrom}. Emits an {Approval} event indicating the updated allowance. This is not required by the EIP. See the note at the beginning of {ERC20}. Requirements: - `sender` and `recipient` cannot be the zero address. - `sender` must have a balance of at least `amount`. - the caller must have allowance for ``sender``'s tokens of at least `amount`."
      }
    },
    "version": 1
  },
  "userdoc": {
    "kind": "user",
    "methods": {},
    "version": 1
  }
}